{"contracts/IOURegistryV3.sol":{"IOURegistryV3":{"abi":[{"inputs":[],"stateMutability":"nonpayable","type":"constructor"},{"inputs":[{"internalType":"address","name":"target","type":"address"}],"name":"AddressEmptyCode","type":"error"},{"inputs":[],"name":"AlreadySettled","type":"error"},{"inputs":[],"name":"AmountExceedsLimit","type":"error"},{"inputs":[],"name":"AmountExceedsSurplus","type":"error"},{"inputs":[],"name":"AmountTooSmall","type":"error"},{"inputs":[],"name":"ConditionNotResolved","type":"error"},{"inputs":[],"name":"ConditionWrongWinner","type":"error"},{"inputs":[{"internalType":"address","name":"implementation","type":"address"}],"name":"ERC1967InvalidImplementation","type":"error"},{"inputs":[],"name":"ERC1967NonPayable","type":"error"},{"inputs":[],"name":"EnforcedPause","type":"error"},{"inputs":[],"name":"ExpectedPause","type":"error"},{"inputs":[],"name":"FailedCall","type":"error"},{"inputs":[],"name":"FeeExceedsMaximum","type":"error"},{"inputs":[],"name":"InvalidAddress","type":"error"},{"inputs":[],"name":"InvalidBatchSize","type":"error"},{"inputs":[],"name":"InvalidDuration","type":"error"},{"inputs":[],"name":"InvalidInitialization","type":"error"},{"inputs":[],"name":"InvalidWinnerFlag","type":"error"},{"inputs":[],"name":"IouAlreadyClaimed","type":"error"},{"inputs":[],"name":"IouAlreadyRefunded","type":"error"},{"inputs":[],"name":"MismatchedRecipient","type":"error"},{"inputs":[],"name":"MismatchedToken","type":"error"},{"inputs":[],"name":"MixedSendersNotAllowed","type":"error"},{"inputs":[],"name":"NotConditional","type":"error"},{"inputs":[],"name":"NotExecutor","type":"error"},{"inputs":[],"name":"NotInitializing","type":"error"},{"inputs":[],"name":"NotSender","type":"error"},{"inputs":[],"name":"NotVault","type":"error"},{"inputs":[{"internalType":"address","name":"owner","type":"address"}],"name":"OwnableInvalidOwner","type":"error"},{"inputs":[{"internalType":"address","name":"account","type":"address"}],"name":"OwnableUnauthorizedAccount","type":"error"},{"inputs":[],"name":"ReentrancyGuardReentrantCall","type":"error"},{"inputs":[{"internalType":"uint256","name":"unlocksAt","type":"uint256"}],"name":"RefundLocked","type":"error"},{"inputs":[{"internalType":"address","name":"token","type":"address"}],"name":"SafeERC20FailedOperation","type":"error"},{"inputs":[],"name":"UUPSUnauthorizedCallContext","type":"error"},{"inputs":[{"internalType":"bytes32","name":"slot","type":"bytes32"}],"name":"UUPSUnsupportedProxiableUUID","type":"error"},{"inputs":[],"name":"UnsupportedToken","type":"error"},{"inputs":[{"internalType":"uint256","name":"unlocksAt","type":"uint256"}],"name":"UpgradeTimelockActive","type":"error"},{"anonymous":false,"inputs":[{"indexed":true,"internalType":"bytes32","name":"recipientId","type":"bytes32"},{"indexed":true,"internalType":"address","name":"claimant","type":"address"},{"indexed":true,"internalType":"address","name":"token","type":"address"},{"indexed":false,"internalType":"uint256","name":"totalAmount","type":"uint256"},{"indexed":false,"internalType":"uint256","name":"iouCount","type":"uint256"}],"name":"BatchClaimed","type":"event"},{"anonymous":false,"inputs":[{"indexed":true,"internalType":"address","name":"sender","type":"address"},{"indexed":true,"internalType":"address","name":"token","type":"address"},{"indexed":false,"internalType":"uint256","name":"totalAmount","type":"uint256"},{"indexed":false,"internalType":"uint256","name":"iouCount","type":"uint256"}],"name":"BatchRefunded","type":"event"},{"anonymous":false,"inputs":[{"indexed":true,"internalType":"uint256","name":"iouId","type":"uint256"},{"indexed":true,"internalType":"bytes32","name":"recipientId","type":"bytes32"},{"indexed":true,"internalType":"address","name":"claimant","type":"address"},{"indexed":false,"internalType":"uint256","name":"netAmount","type":"uint256"}],"name":"ConditionalClaimed","type":"event"},{"anonymous":false,"inputs":[{"indexed":true,"internalType":"uint256","name":"iouId","type":"uint256"},{"indexed":true,"internalType":"address","name":"sender","type":"address"},{"indexed":true,"internalType":"address","name":"token","type":"address"},{"indexed":false,"internalType":"bytes32","name":"recipientId","type":"bytes32"},{"indexed":false,"internalType":"uint256","name":"netAmount","type":"uint256"},{"indexed":false,"internalType":"uint256","name":"fee","type":"uint256"},{"indexed":false,"internalType":"bytes32","name":"conditionHash","type":"bytes32"},{"indexed":false,"internalType":"bytes32","name":"jobId","type":"bytes32"}],"name":"ConditionalIOUCreated","type":"event"},{"anonymous":false,"inputs":[{"indexed":true,"internalType":"uint256","name":"iouId","type":"uint256"},{"indexed":true,"internalType":"address","name":"sender","type":"address"},{"indexed":false,"internalType":"uint256","name":"netAmount","type":"uint256"},{"indexed":false,"internalType":"uint8","name":"resolvedInFavor","type":"uint8"}],"name":"ConditionalRefunded","type":"event"},{"anonymous":false,"inputs":[{"indexed":true,"internalType":"uint256","name":"iouId","type":"uint256"},{"indexed":false,"internalType":"uint8","name":"resolvedInFavor","type":"uint8"},{"indexed":false,"internalType":"uint64","name":"resolvedAt","type":"uint64"}],"name":"ConditionalResolved","type":"event"},{"anonymous":false,"inputs":[{"indexed":true,"internalType":"address","name":"user","type":"address"},{"indexed":false,"internalType":"bool","name":"isExempt","type":"bool"}],"name":"FeeExemptionUpdated","type":"event"},{"anonymous":false,"inputs":[{"indexed":false,"internalType":"bool","name":"isExempt","type":"bool"}],"name":"GlobalFeeExemptionUpdated","type":"event"},{"anonymous":false,"inputs":[{"indexed":false,"internalType":"uint256","name":"oldDuration","type":"uint256"},{"indexed":false,"internalType":"uint256","name":"newDuration","type":"uint256"}],"name":"HoldDurationUpdated","type":"event"},{"anonymous":false,"inputs":[{"indexed":true,"internalType":"uint256","name":"iouId","type":"uint256"},{"indexed":true,"internalType":"bytes32","name":"recipientId","type":"bytes32"},{"indexed":true,"internalType":"address","name":"claimant","type":"address"},{"indexed":false,"internalType":"uint256","name":"netAmount","type":"uint256"}],"name":"IOUClaimed","type":"event"},{"anonymous":false,"inputs":[{"indexed":true,"internalType":"uint256","name":"iouId","type":"uint256"},{"indexed":true,"internalType":"address","name":"sender","type":"address"},{"indexed":true,"internalType":"address","name":"token","type":"address"},{"indexed":false,"internalType":"bytes32","name":"recipientId","type":"bytes32"},{"indexed":false,"internalType":"uint256","name":"netAmount","type":"uint256"},{"indexed":false,"internalType":"uint256","name":"fee","type":"uint256"},{"indexed":false,"internalType":"uint64","name":"expiry","type":"uint64"}],"name":"IOUCreated","type":"event"},{"anonymous":false,"inputs":[{"indexed":true,"internalType":"uint256","name":"iouId","type":"uint256"},{"indexed":true,"internalType":"address","name":"sender","type":"address"},{"indexed":false,"internalType":"uint256","name":"netAmount","type":"uint256"}],"name":"IOURefunded","type":"event"},{"anonymous":false,"inputs":[{"indexed":false,"internalType":"uint64","name":"version","type":"uint64"}],"name":"Initialized","type":"event"},{"anonymous":false,"inputs":[{"indexed":true,"internalType":"address","name":"previousOwner","type":"address"},{"indexed":true,"internalType":"address","name":"newOwner","type":"address"}],"name":"OwnershipTransferStarted","type":"event"},{"anonymous":false,"inputs":[{"indexed":true,"internalType":"address","name":"previousOwner","type":"address"},{"indexed":true,"internalType":"address","name":"newOwner","type":"address"}],"name":"OwnershipTransferred","type":"event"},{"anonymous":false,"inputs":[{"indexed":false,"internalType":"address","name":"account","type":"address"}],"name":"Paused","type":"event"},{"anonymous":false,"inputs":[{"indexed":true,"internalType":"address","name":"token","type":"address"},{"indexed":false,"internalType":"bool","name":"isSupported","type":"bool"}],"name":"TokenSupportUpdated","type":"event"},{"anonymous":false,"inputs":[{"indexed":false,"internalType":"address","name":"account","type":"address"}],"name":"Unpaused","type":"event"},{"anonymous":false,"inputs":[{"indexed":true,"internalType":"address","name":"newImplementation","type":"address"},{"indexed":false,"internalType":"uint256","name":"timelockEnd","type":"uint256"}],"name":"UpgradeScheduled","type":"event"},{"anonymous":false,"inputs":[{"indexed":true,"internalType":"address","name":"implementation","type":"address"}],"name":"Upgraded","type":"event"},{"inputs":[],"name":"BPS","outputs":[{"internalType":"uint256","name":"","type":"uint256"}],"stateMutability":"view","type":"function"},{"inputs":[],"name":"MAX_BATCH","outputs":[{"internalType":"uint256","name":"","type":"uint256"}],"stateMutability":"view","type":"function"},{"inputs":[],"name":"MAX_FEE_BPS","outputs":[{"internalType":"uint256","name":"","type":"uint256"}],"stateMutability":"view","type":"function"},{"inputs":[],"name":"RECIPIENT_WIN","outputs":[{"internalType":"uint256","name":"","type":"uint256"}],"stateMutability":"view","type":"function"},{"inputs":[],"name":"RECIPIENT_WIN_REFUND_DELAY","outputs":[{"internalType":"uint256","name":"","type":"uint256"}],"stateMutability":"view","type":"function"},{"inputs":[],"name":"SENDER_WIN","outputs":[{"internalType":"uint256","name":"","type":"uint256"}],"stateMutability":"view","type":"function"},{"inputs":[],"name":"UNRESOLVED","outputs":[{"internalType":"uint256","name":"","type":"uint256"}],"stateMutability":"view","type":"function"},{"inputs":[],"name":"UPGRADE_INTERFACE_VERSION","outputs":[{"internalType":"string","name":"","type":"string"}],"stateMutability":"view","type":"function"},{"inputs":[],"name":"UPGRADE_TIMELOCK","outputs":[{"internalType":"uint256","name":"","type":"uint256"}],"stateMutability":"view","type":"function"},{"inputs":[],"name":"acceptOwnership","outputs":[],"stateMutability":"nonpayable","type":"function"},{"inputs":[{"internalType":"uint256[]","name":"iouIds","type":"uint256[]"},{"internalType":"address","name":"claimant","type":"address"},{"internalType":"bytes32","name":"recipientId","type":"bytes32"},{"internalType":"address","name":"token","type":"address"}],"name":"batchClaim","outputs":[],"stateMutability":"nonpayable","type":"function"},{"inputs":[{"internalType":"uint256[]","name":"iouIds","type":"uint256[]"},{"internalType":"address","name":"token","type":"address"}],"name":"batchRefund","outputs":[],"stateMutability":"nonpayable","type":"function"},{"inputs":[{"internalType":"address","name":"user","type":"address"},{"internalType":"uint256","name":"amount","type":"uint256"}],"name":"calculateFee","outputs":[{"internalType":"uint256","name":"","type":"uint256"}],"stateMutability":"view","type":"function"},{"inputs":[{"internalType":"uint256","name":"iouId","type":"uint256"},{"internalType":"address","name":"claimant","type":"address"},{"internalType":"bytes32","name":"recipientId","type":"bytes32"}],"name":"claimConditional","outputs":[],"stateMutability":"nonpayable","type":"function"},{"inputs":[{"internalType":"address","name":"from","type":"address"},{"internalType":"address","name":"token","type":"address"},{"internalType":"uint256","name":"netAmount","type":"uint256"},{"internalType":"bytes32","name":"recipientId","type":"bytes32"},{"internalType":"bytes32","name":"conditionHash","type":"bytes32"},{"internalType":"bytes32","name":"jobId","type":"bytes32"},{"internalType":"uint256","name":"expirySeconds","type":"uint256"}],"name":"createConditionalIOU","outputs":[{"internalType":"uint256","name":"iouId","type":"uint256"}],"stateMutability":"nonpayable","type":"function"},{"inputs":[{"internalType":"address","name":"token","type":"address"},{"internalType":"uint256","name":"amount","type":"uint256"}],"name":"emergencyWithdrawToken","outputs":[],"stateMutability":"nonpayable","type":"function"},{"inputs":[{"internalType":"address","name":"from","type":"address"},{"internalType":"address","name":"token","type":"address"},{"internalType":"uint256","name":"netAmount","type":"uint256"},{"internalType":"bytes32","name":"recipientId","type":"bytes32"}],"name":"executeCreate","outputs":[{"internalType":"uint256","name":"iouId","type":"uint256"}],"stateMutability":"nonpayable","type":"function"},{"inputs":[],"name":"executorMaxTxAmount","outputs":[{"internalType":"uint256","name":"","type":"uint256"}],"stateMutability":"view","type":"function"},{"inputs":[{"internalType":"address","name":"","type":"address"}],"name":"executors","outputs":[{"internalType":"bool","name":"","type":"bool"}],"stateMutability":"view","type":"function"},{"inputs":[],"name":"feeBps","outputs":[{"internalType":"uint256","name":"","type":"uint256"}],"stateMutability":"view","type":"function"},{"inputs":[],"name":"getConfig","outputs":[{"internalType":"address","name":"vaultAddress","type":"address"},{"internalType":"address","name":"treasuryAddress","type":"address"},{"internalType":"uint256","name":"platformFeeBps","type":"uint256"},{"internalType":"uint256","name":"minimumFee","type":"uint256"},{"internalType":"uint256","name":"maxFeeBps","type":"uint256"},{"internalType":"uint256","name":"holdTime","type":"uint256"},{"internalType":"bool","name":"isGlobalFeeExempt","type":"bool"},{"internalType":"bool","name":"isPaused","type":"bool"}],"stateMutability":"view","type":"function"},{"inputs":[{"internalType":"uint256","name":"iouId","type":"uint256"}],"name":"getIOU","outputs":[{"components":[{"internalType":"address","name":"sender","type":"address"},{"internalType":"address","name":"token","type":"address"},{"internalType":"uint256","name":"netAmount","type":"uint256"},{"internalType":"bytes32","name":"recipientId","type":"bytes32"},{"internalType":"uint64","name":"expiry","type":"uint64"},{"internalType":"bool","name":"claimed","type":"bool"},{"internalType":"bool","name":"refunded","type":"bool"},{"internalType":"bool","name":"isConditional","type":"bool"},{"internalType":"bytes32","name":"conditionHash","type":"bytes32"},{"internalType":"uint64","name":"resolvedAt","type":"uint64"},{"internalType":"uint8","name":"resolvedInFavor","type":"uint8"}],"internalType":"struct IOURegistryV3.IOU","name":"","type":"tuple"}],"stateMutability":"view","type":"function"},{"inputs":[{"internalType":"bytes32","name":"recipientId","type":"bytes32"},{"internalType":"uint256","name":"offset","type":"uint256"},{"internalType":"uint256","name":"limit","type":"uint256"}],"name":"getPendingIOUs","outputs":[{"internalType":"uint256[]","name":"ids","type":"uint256[]"},{"internalType":"uint256","name":"count","type":"uint256"}],"stateMutability":"view","type":"function"},{"inputs":[],"name":"globalFeeExempt","outputs":[{"internalType":"bool","name":"","type":"bool"}],"stateMutability":"view","type":"function"},{"inputs":[],"name":"holdDuration","outputs":[{"internalType":"uint256","name":"","type":"uint256"}],"stateMutability":"view","type":"function"},{"inputs":[{"internalType":"address","name":"_vault","type":"address"},{"internalType":"address","name":"_treasury","type":"address"},{"internalType":"uint256","name":"_feeBps","type":"uint256"},{"internalType":"uint256","name":"_minFee","type":"uint256"},{"internalType":"address","name":"_initialExecutor","type":"address"}],"name":"initialize","outputs":[],"stateMutability":"nonpayable","type":"function"},{"inputs":[{"internalType":"uint256","name":"","type":"uint256"}],"name":"ious","outputs":[{"internalType":"address","name":"sender","type":"address"},{"internalType":"address","name":"token","type":"address"},{"internalType":"uint256","name":"netAmount","type":"uint256"},{"internalType":"bytes32","name":"recipientId","type":"bytes32"},{"internalType":"uint64","name":"expiry","type":"uint64"},{"internalType":"bool","name":"claimed","type":"bool"},{"internalType":"bool","name":"refunded","type":"bool"},{"internalType":"bool","name":"isConditional","type":"bool"},{"internalType":"bytes32","name":"conditionHash","type":"bytes32"},{"internalType":"uint64","name":"resolvedAt","type":"uint64"},{"internalType":"uint8","name":"resolvedInFavor","type":"uint8"}],"stateMutability":"view","type":"function"},{"inputs":[{"internalType":"address","name":"","type":"address"}],"name":"isFeeExempt","outputs":[{"internalType":"bool","name":"","type":"bool"}],"stateMutability":"view","type":"function"},{"inputs":[],"name":"minFee","outputs":[{"internalType":"uint256","name":"","type":"uint256"}],"stateMutability":"view","type":"function"},{"inputs":[],"name":"nextId","outputs":[{"internalType":"uint256","name":"","type":"uint256"}],"stateMutability":"view","type":"function"},{"inputs":[],"name":"owner","outputs":[{"internalType":"address","name":"","type":"address"}],"stateMutability":"view","type":"function"},{"inputs":[],"name":"pause","outputs":[],"stateMutability":"nonpayable","type":"function"},{"inputs":[],"name":"paused","outputs":[{"internalType":"bool","name":"","type":"bool"}],"stateMutability":"view","type":"function"},{"inputs":[],"name":"pendingOwner","outputs":[{"internalType":"address","name":"","type":"address"}],"stateMutability":"view","type":"function"},{"inputs":[],"name":"proxiableUUID","outputs":[{"internalType":"bytes32","name":"","type":"bytes32"}],"stateMutability":"view","type":"function"},{"inputs":[{"internalType":"bytes32","name":"","type":"bytes32"},{"internalType":"uint256","name":"","type":"uint256"}],"name":"recipientIOUs","outputs":[{"internalType":"uint256","name":"","type":"uint256"}],"stateMutability":"view","type":"function"},{"inputs":[{"internalType":"uint256","name":"iouId","type":"uint256"}],"name":"refundConditional","outputs":[],"stateMutability":"nonpayable","type":"function"},{"inputs":[{"internalType":"uint256","name":"iouId","type":"uint256"}],"name":"refundEligibility","outputs":[{"internalType":"bool","name":"eligible","type":"bool"},{"internalType":"uint256","name":"unlocksAt","type":"uint256"},{"internalType":"string","name":"reason","type":"string"}],"stateMutability":"view","type":"function"},{"inputs":[],"name":"renounceOwnership","outputs":[],"stateMutability":"nonpayable","type":"function"},{"inputs":[{"internalType":"uint256","name":"iouId","type":"uint256"},{"internalType":"uint8","name":"winnerFlag","type":"uint8"}],"name":"resolveConditional","outputs":[],"stateMutability":"nonpayable","type":"function"},{"inputs":[{"internalType":"address","name":"newImplementation","type":"address"}],"name":"scheduleUpgrade","outputs":[],"stateMutability":"nonpayable","type":"function"},{"inputs":[{"internalType":"address","name":"executor","type":"address"},{"internalType":"bool","name":"status","type":"bool"}],"name":"setExecutor","outputs":[],"stateMutability":"nonpayable","type":"function"},{"inputs":[{"internalType":"uint256","name":"_maxAmount","type":"uint256"}],"name":"setExecutorMaxTxAmount","outputs":[],"stateMutability":"nonpayable","type":"function"},{"inputs":[{"internalType":"address","name":"user","type":"address"},{"internalType":"bool","name":"exempt","type":"bool"}],"name":"setFeeExempt","outputs":[],"stateMutability":"nonpayable","type":"function"},{"inputs":[{"internalType":"uint256","name":"_feeBps","type":"uint256"},{"internalType":"uint256","name":"_minFee","type":"uint256"}],"name":"setFees","outputs":[],"stateMutability":"nonpayable","type":"function"},{"inputs":[{"internalType":"bool","name":"exempt","type":"bool"}],"name":"setGlobalFeeExempt","outputs":[],"stateMutability":"nonpayable","type":"function"},{"inputs":[{"internalType":"uint256","name":"newDuration","type":"uint256"}],"name":"setHoldDuration","outputs":[],"stateMutability":"nonpayable","type":"function"},{"inputs":[{"internalType":"address","name":"token","type":"address"},{"internalType":"bool","name":"supported","type":"bool"}],"name":"setSupportedToken","outputs":[],"stateMutability":"nonpayable","type":"function"},{"inputs":[{"internalType":"address","name":"_treasury","type":"address"}],"name":"setTreasury","outputs":[],"stateMutability":"nonpayable","type":"function"},{"inputs":[{"internalType":"address","name":"_vault","type":"address"}],"name":"setVault","outputs":[],"stateMutability":"nonpayable","type":"function"},{"inputs":[{"internalType":"address","name":"","type":"address"}],"name":"supportedTokens","outputs":[{"internalType":"bool","name":"","type":"bool"}],"stateMutability":"view","type":"function"},{"inputs":[{"internalType":"address","name":"","type":"address"}],"name":"totalEscrowedByToken","outputs":[{"internalType":"uint256","name":"","type":"uint256"}],"stateMutability":"view","type":"function"},{"inputs":[{"internalType":"address","name":"newOwner","type":"address"}],"name":"transferOwnership","outputs":[],"stateMutability":"nonpayable","type":"function"},{"inputs":[],"name":"treasury","outputs":[{"internalType":"address","name":"","type":"address"}],"stateMutability":"view","type":"function"},{"inputs":[],"name":"unpause","outputs":[],"stateMutability":"nonpayable","type":"function"},{"inputs":[],"name":"upgradeTimelockEnd","outputs":[{"internalType":"uint256","name":"","type":"uint256"}],"stateMutability":"view","type":"function"},{"inputs":[{"internalType":"address","name":"newImplementation","type":"address"},{"internalType":"bytes","name":"data","type":"bytes"}],"name":"upgradeToAndCall","outputs":[],"stateMutability":"payable","type":"function"},{"inputs":[],"name":"vault","outputs":[{"internalType":"address","name":"","type":"address"}],"stateMutability":"view","type":"function"}],"evm":{"bytecode":{"linkReferences":{},"object":"60a06040523060805234801561001457600080fd5b5060017f9b779b17422d0df92223018b32b4d1fa46e071723d6817e2486d003becc55f0055610041610046565b6100f8565b7ff0c57e16840df040f15088dc2f81fe391c3923bec73e23a9662efc9c229c6a00805468010000000000000000900460ff16156100965760405163f92ee8a960e01b815260040160405180910390fd5b80546001600160401b03908116146100f55780546001600160401b0319166001600160401b0390811782556040519081527fc7f505b2f371ae2175ee4913f4499e1f2633a7b5936321eed1cdaeb6115181d29060200160405180910390a15b50565b608051613ee7610121600039600081816130620152818161308b01526132080152613ee76000f3fe6080604052600436106103815760003560e01c806361d027b3116101d15780639ac2a01111610102578063c7f417ba116100a0578063f0f442601161006f578063f0f4426014610c4a578063f2121d4114610c6a578063f2fde38b14610c98578063fbfa77cf14610cb857600080fd5b8063c7f417ba14610be5578063d55be8c614610bff578063e30c397814610c15578063e798646614610c2a57600080fd5b8063ad3cb1cc116100dc578063ad3cb1cc14610b08578063b3ab4c4914610b46578063c137b7c214610b66578063c3f909d414610b8657600080fd5b80639ac2a01114610aa3578063a4bde0b514610ad3578063a4c3b09114610ae857600080fd5b80638456cb591161016f5780638e3dafdd116101495780638e3dafdd14610a2e5780638ebfc79614610a4e57806394851bf814610a6e578063950bff9f14610a8e57600080fd5b80638456cb59146109e45780638b28ab1e146109f95780638da5cb5b14610a1957600080fd5b80636a0c5038116101ab5780636a0c50381461096d578063715018a61461098d5780637475e466146109a257806379ba5097146109cf57600080fd5b806361d027b3146108e55780636817031b1461091d57806368c4ac261461093d57600080fd5b806325ed32ca116102b65780634f1ef286116102545780635c975abb116102235780635c975abb146108805780635ca48a7f146108a55780635f1aeebf146108ba57806361b8ce8c146108cf57600080fd5b80634f1ef2861461082257806352d1902d1461083557806357e4288a1461084a57806357fb25cc1461086057600080fd5b806338385d001161029057806338385d001461077e5780633f4218e0146107ad5780633f4ba83a146107ed578063414740521461080257600080fd5b806325ed32ca146107275780632dd418991461073e57806330eb4ba81461075e57600080fd5b80631f8fb2a211610323578063249d39e9116102fd578063249d39e9146106cf57806324a9d853146106e557806324c901c9146106fb57806324ec75901461071157600080fd5b80631f8fb2a214610550578063200e6361146105705780632049f88f1461059057600080fd5b80631435756a1161035f5780631435756a146104d557806314937def146104fa57806317a282591461051a5780631e1bff3f1461053057600080fd5b806308f13f8f146103865780630b78f9c0146104935780630c80447a146104b5575b600080fd5b34801561039257600080fd5b5061041d6103a1366004613787565b600c6020526000908152604090208054600182015460028301546003840154600485015460058601546006909601546001600160a01b03958616969490951694929391926001600160401b038083169360ff600160401b808604821695600160481b8104831695600160501b909104831694811692919004168b565b604080516001600160a01b039c8d1681529b909a1660208c0152988a019790975260608901959095526001600160401b03938416608089015291151560a0880152151560c0870152151560e08601526101008501919091521661012083015260ff16610140820152610160015b60405180910390f35b34801561049f57600080fd5b506104b36104ae3660046137a0565b610cd8565b005b3480156104c157600080fd5b506104b36104d03660046137de565b610d0e565b3480156104e157600080fd5b506104ec62093a8081565b60405190815260200161048a565b34801561050657600080fd5b506104b3610515366004613844565b610d69565b34801561052657600080fd5b506104ec60065481565b34801561053c57600080fd5b506104b361054b3660046138a7565b61106f565b34801561055c57600080fd5b506104b361056b366004613787565b6110a2565b34801561057c57600080fd5b506104b361058b3660046138da565b6110af565b34801561059c57600080fd5b506106c26105ab366004613787565b6040805161016081018252600080825260208201819052918101829052606081018290526080810182905260a0810182905260c0810182905260e0810182905261010081018290526101208101829052610140810191909152506000908152600c602090815260409182902082516101608101845281546001600160a01b039081168252600183015416928101929092526002810154928201929092526003820154606082015260048201546001600160401b03808216608084015260ff600160401b8084048216151560a0860152600160481b84048216151560c0860152600160501b9093048116151560e085015260058501546101008501526006909401549081166101208401520490911661014082015290565b60405161048a9190613910565b3480156106db57600080fd5b506104ec61271081565b3480156106f157600080fd5b506104ec60025481565b34801561070757600080fd5b506104ec600e5481565b34801561071d57600080fd5b506104ec60035481565b34801561073357600080fd5b506104ec6202a30081565b34801561074a57600080fd5b506104b36107593660046139e7565b61131b565b34801561076a57600080fd5b506104b3610779366004613787565b6115fa565b34801561078a57600080fd5b5061079e610799366004613787565b611674565b60405161048a93929190613a9b565b3480156107b957600080fd5b506107dd6107c83660046137de565b60086020526000908152604090205460ff1681565b604051901515815260200161048a565b3480156107f957600080fd5b506104b361193c565b34801561080e57600080fd5b506104ec61081d366004613ac5565b61194e565b6104b3610830366004613b39565b611d5e565b34801561084157600080fd5b506104ec611d7d565b34801561085657600080fd5b506104ec60045481565b34801561086c57600080fd5b506104b361087b366004613c00565b611d9a565b34801561088c57600080fd5b50600080516020613e728339815191525460ff166107dd565b3480156108b157600080fd5b506104ec600281565b3480156108c657600080fd5b506104ec600081565b3480156108db57600080fd5b506104ec60055481565b3480156108f157600080fd5b50600154610905906001600160a01b031681565b6040516001600160a01b03909116815260200161048a565b34801561092957600080fd5b506104b36109383660046137de565b611f8a565b34801561094957600080fd5b506107dd6109583660046137de565b60096020526000908152604090205460ff1681565b34801561097957600080fd5b506104b3610988366004613c4b565b611fdb565b34801561099957600080fd5b506104b36121a2565b3480156109ae57600080fd5b506104ec6109bd3660046137de565b600b6020526000908152604090205481565b3480156109db57600080fd5b506104b36121b4565b3480156109f057600080fd5b506104b3612201565b348015610a0557600080fd5b506104ec610a14366004613c81565b612211565b348015610a2557600080fd5b50610905612226565b348015610a3a57600080fd5b506104b3610a49366004613cab565b61225b565b348015610a5a57600080fd5b506104b3610a693660046138a7565b6122ab565b348015610a7a57600080fd5b506104ec610a89366004613cc6565b612313565b348015610a9a57600080fd5b506104ec606481565b348015610aaf57600080fd5b506107dd610abe3660046137de565b600a6020526000908152604090205460ff1681565b348015610adf57600080fd5b506104ec600181565b348015610af457600080fd5b506104b3610b03366004613c81565b6126f5565b348015610b1457600080fd5b50610b39604051806040016040528060058152602001640352e302e360dc1b81525081565b60405161048a9190613d08565b348015610b5257600080fd5b506104ec610b613660046137a0565b6127f0565b348015610b7257600080fd5b506104b3610b81366004613787565b612821565b348015610b9257600080fd5b50610b9b612abf565b604080516001600160a01b03998a168152989097166020890152958701949094526060860192909252608085015260a0840152151560c0830152151560e08201526101000161048a565b348015610bf157600080fd5b506007546107dd9060ff1681565b348015610c0b57600080fd5b506104ec6101f481565b348015610c2157600080fd5b50610905612b28565b348015610c3657600080fd5b506104b3610c453660046138a7565b612b51565b348015610c5657600080fd5b506104b3610c653660046137de565b612bd8565b348015610c7657600080fd5b50610c8a610c85366004613d1b565b612c29565b60405161048a929190613d47565b348015610ca457600080fd5b506104b3610cb33660046137de565b612e3d565b348015610cc457600080fd5b50600054610905906001600160a01b031681565b610ce0612ec2565b6101f4821115610d0357604051632be7087760e21b815260040160405180910390fd5b600291909155600355565b610d16612ec2565b610d236202a30042613daa565b600e8190556040519081526001600160a01b038216907fe1009627653eb47f7d0f3b4435749f7984a803c21f84a076cc4dcb0412cf066f9060200160405180910390a250565b610d71612ef4565b610d79612f10565b811580610d865750606482115b15610da457604051637862e95960e01b815260040160405180910390fd5b6000806000805b85811015610fb0576000600c6000898985818110610dcb57610dcb613dbd565b6020908102929092013583525081019190915260400160002080549091506001600160a01b0316610dfc5750610fa8565b60018101546001600160a01b03878116911614610e2c576040516307664ded60e01b815260040160405180910390fd5b6004810154600160501b900460ff1615610e465750610fa8565b6001600160a01b038316610e665780546001600160a01b03169250610e93565b80546001600160a01b03848116911614610e9357604051632e8da26f60e11b815260040160405180910390fd5b80546000906001600160a01b0316331480610ebd5750336000908152600a602052604090205460ff165b9050808015610ed857506004820154600160401b900460ff16155b8015610ef057506004820154600160481b900460ff16155b8015610f09575060048201546001600160401b03164210155b15610fa55760048201805460ff60481b1916600160481b1790556002820154610f329087613daa565b955084610f3e81613dd3565b83549096506001600160a01b03169050898985818110610f6057610f60613dbd565b905060200201357fab53d85930559de8f4f7b2c56d6c6a5471daff559b2eaa2cec6c38cd3a327bf18460020154604051610f9c91815260200190565b60405180910390a35b50505b600101610dab565b508215611050576001600160a01b0384166000908152600b602052604081208054859290610fdf908490613dec565b90915550610ff990506001600160a01b0385168285612f41565b836001600160a01b0316816001600160a01b03167fab4240075e216b0ce0f7edc354aa12a7145572aef73412e987452015a9d0c8f48585604051611047929190918252602082015260400190565b60405180910390a35b50505061106a6001600080516020613e9283398151915255565b505050565b611077612ec2565b6001600160a01b03919091166000908152600a60205260409020805460ff1916911515919091179055565b6110aa612ec2565b600655565b6000546001600160a01b031633146110da576040516362df054560e01b815260040160405180910390fd5b6110e2612ef4565b6110ea612f10565b6001600160a01b0382166111115760405163e6c4247b60e01b815260040160405180910390fd5b6000838152600c6020526040902080546001600160a01b03166111475760405163e6c4247b60e01b815260040160405180910390fd5b6004810154600160501b900460ff1661117357604051637b54608d60e11b815260040160405180910390fd5b8181600301541461119757604051632de056e560e01b815260040160405180910390fd5b6004810154600160401b900460ff16156111c45760405163704359db60e01b815260040160405180910390fd5b6004810154600160481b900460ff16156111f15760405163a5e9827360e01b815260040160405180910390fd5b60068101546001600160401b031660000361121f576040516314566b5f60e11b815260040160405180910390fd5b6006810154600160401b900460ff1660021461124e576040516303f0c8cb60e31b815260040160405180910390fd5b60048101805460ff60401b1916600160401b179055600281015460018201546001600160a01b03166000908152600b602052604081208054909190611294908490613dec565b9091555050600281015460018201546112ba916001600160a01b03909116908590612f41565b826001600160a01b031682857f790520c0ad9786243d1bd36a7fb565f2e621bb821c43c42440d35170bacbf87784600201546040516112fb91815260200190565b60405180910390a45061106a6001600080516020613e9283398151915255565b6000546001600160a01b03163314611346576040516362df054560e01b815260040160405180910390fd5b61134e612ef4565b611356612f10565b6001600160a01b03831661137d5760405163e6c4247b60e01b815260040160405180910390fd5b83158061138a5750606484115b156113a857604051637862e95960e01b815260040160405180910390fd5b60008060005b86811015611539576000600c60008a8a858181106113ce576113ce613dbd565b6020908102929092013583525081019190915260400160002080549091506001600160a01b03166113ff5750611531565b8581600301541461142357604051632de056e560e01b815260040160405180910390fd5b60018101546001600160a01b03868116911614611453576040516307664ded60e01b815260040160405180910390fd5b6004810154600160501b900460ff161561146d5750611531565b6004810154600160401b900460ff1615801561149557506004810154600160481b900460ff16155b1561152f5760048101805460ff60401b1916600160401b17905560028101546114be9085613daa565b9350826114ca81613dd3565b935050866001600160a01b0316868a8a858181106114ea576114ea613dbd565b905060200201357f388b13de303b6025c48e0e60d6a961f9ffa52caed98c10256749cf1b8bec322f846002015460405161152691815260200190565b60405180910390a45b505b6001016113ae565b5081156115da576001600160a01b0383166000908152600b602052604081208054849290611568908490613dec565b9091555061158290506001600160a01b0384168684612f41565b826001600160a01b0316856001600160a01b0316857f6a6ed0c1e3bf4a67ea2a192ee2ac0366401f82cf64216a5d7964b320251d5e1385856040516115d1929190918252602082015260400190565b60405180910390a45b50506115f36001600080516020613e9283398151915255565b5050505050565b611602612ec2565b62015180811080611615575062278d0081115b1561163357604051637616640160e01b815260040160405180910390fd5b60045460408051918252602082018390527f9d1fc3ae74c682433ae187b635d6c0cca95f3c19c088f56133c2fef16e0514a1910160405180910390a1600455565b6000818152600c60205260408120805482916060916001600160a01b03166116c857505060408051808201909152600d81526c1253d557d393d517d193d55391609a1b602082015260009250829150611935565b6004810154600160501b900460ff1661170f57505060408051808201909152600f81526e1393d517d0d3d39112551253d39053608a1b602082015260009250829150611935565b6004810154600160401b900460ff161561175757505060408051808201909152600f81526e1053149150511657d0d31052535151608a1b602082015260009250829150611935565b6004810154600160481b900460ff16156117a057505060408051808201909152601081526f1053149150511657d49151955391115160821b602082015260009250829150611935565b6006810154600160401b900460ff1660001981016117ec57600160006040518060400160405280600a81526020016929a2a72222a92faba7a760b11b8152509450945094505050611935565b60011960ff8216016118a65760068201546000906118179062093a80906001600160401b0316613daa565b905080421061186857600160006040518060400160405280601b81526020017f524543495049454e545f57494e5f44454c41595f454c41505345440000000000815250955095509550505050611935565b60008160405180604001604052806014815260200173149150d2541251539517d5d25397d313d0d2d15160621b815250955095509550505050611935565b60048201546001600160401b031642106118f65760016000604051806040016040528060128152602001711156141254915117d553949154d3d315915160721b8152509450945094505050611935565b506004015460408051808201909152600f81526e1393d517d6515517d1561412549151608a1b6020820152600094506001600160401b03909116925090505b9193909250565b611944612ec2565b61194c612f76565b565b336000908152600a602052604081205460ff1661197e576040516361968ebb60e11b815260040160405180910390fd5b611986612ef4565b61198e612f10565b6001600160a01b0388166119b55760405163e6c4247b60e01b815260040160405180910390fd5b6001600160a01b03871660009081526009602052604090205460ff166119ee5760405163350b944160e11b815260040160405180910390fd5b85600003611a0f5760405163617ab12d60e11b815260040160405180910390fd5b6000600654118015611a22575060065486115b15611a405760405163172bd6a160e31b815260040160405180910390fd5b62015180821080611a5357506276a70082115b15611a7157604051637616640160e01b815260040160405180910390fd5b6000611a7d8342613daa565b90506000611a8c8a8a8a612fd0565b600580549192506000611a9e83613dd3565b9190505592506040518061016001604052808b6001600160a01b031681526020018a6001600160a01b03168152602001898152602001888152602001836001600160401b0316815260200160001515815260200160001515815260200160011515815260200187815260200160006001600160401b03168152602001600060ff16815250600c600085815260200190815260200160002060008201518160000160006101000a8154816001600160a01b0302191690836001600160a01b0316021790555060208201518160010160006101000a8154816001600160a01b0302191690836001600160a01b03160217905550604082015181600201556060820151816003015560808201518160040160006101000a8154816001600160401b0302191690836001600160401b0316021790555060a08201518160040160086101000a81548160ff02191690831515021790555060c08201518160040160096101000a81548160ff02191690831515021790555060e082015181600401600a6101000a81548160ff02191690831515021790555061010082015181600501556101208201518160060160006101000a8154816001600160401b0302191690836001600160401b031602179055506101408201518160060160086101000a81548160ff021916908360ff160217905550905050600d6000888152602001908152602001600020839080600181540180825580915050600190039060005260206000200160009091909190915055886001600160a01b03168a6001600160a01b0316847f3775b77bba38d015bb2dfd1073b2bb6beead98572e12f92e2be7be999fb249ee8a8c868c8c604051611d32959493929190948552602085019390935260408401919091526060830152608082015260a00190565b60405180910390a45050611d536001600080516020613e9283398151915255565b979650505050505050565b611d66613057565b611d6f826130fc565b611d798282613140565b5050565b6000611d876131fd565b50600080516020613e5283398151915290565b6000611da4613246565b805490915060ff600160401b82041615906001600160401b0316600081158015611dcb5750825b90506000826001600160401b03166001148015611de75750303b155b905081158015611df5575080155b15611e135760405163f92ee8a960e01b815260040160405180910390fd5b845467ffffffffffffffff191660011785558315611e3d57845460ff60401b1916600160401b1785555b611e463361326f565b611e4e613280565b611e56613280565b6001600160a01b038a161580611e7357506001600160a01b038916155b15611e915760405163e6c4247b60e01b815260040160405180910390fd5b6101f4881115611eb457604051632be7087760e21b815260040160405180910390fd5b600080546001600160a01b03808d166001600160a01b031992831617909255600180548c84169216919091179055600289905560038890556203f480600455861615611f1e576001600160a01b0386166000908152600a60205260409020805460ff191660011790555b336000908152600a60205260409020805460ff191660011790558315611f7e57845460ff60401b19168555604051600181527fc7f505b2f371ae2175ee4913f4499e1f2633a7b5936321eed1cdaeb6115181d29060200160405180910390a15b50505050505050505050565b611f92612ec2565b6001600160a01b038116611fb95760405163e6c4247b60e01b815260040160405180910390fd5b600080546001600160a01b0319166001600160a01b0392909216919091179055565b6000546001600160a01b03163314612006576040516362df054560e01b815260040160405180910390fd5b61200e612ef4565b612016612f10565b6000828152600c6020526040902080546001600160a01b031661204c5760405163e6c4247b60e01b815260040160405180910390fd5b6004810154600160501b900460ff1661207857604051637b54608d60e11b815260040160405180910390fd5b6004810154600160401b900460ff168061209d57506004810154600160481b900460ff165b156120ba5760405162560ff960e81b815260040160405180910390fd5b60068101546001600160401b0316156120e55760405162560ff960e81b815260040160405180910390fd5b60ff82166001148015906120fd575060ff8216600214155b1561211b57604051631121673960e21b815260040160405180910390fd5b600681018054426001600160401b031668ffffffffffffffffff199091168117600160401b60ff86169081029190911790925560408051928352602083019190915284917f47b7214d9c9105ed84391e7089c2e9f971c474ca3038f6b985704703800ef8bb910160405180910390a250611d796001600080516020613e9283398151915255565b6121aa612ec2565b61194c6000613288565b33806121be612b28565b6001600160a01b0316146121f55760405163118cdaa760e01b81526001600160a01b03821660048201526024015b60405180910390fd5b6121fe81613288565b50565b612209612ec2565b61194c6132c0565b600061221d8383613309565b90505b92915050565b6000807f9016d09d72d40fdae2fd8ceac6b6234c7706214fd39c1cd1e609a0528c1993005b546001600160a01b031692915050565b612263612ec2565b6007805460ff19168215159081179091556040519081527ff1383186e64e6ecd25e81caace741d4727378628ece811b6f5b80a9b7fcebb7b906020015b60405180910390a150565b6122b3612ec2565b6001600160a01b038216600081815260086020908152604091829020805460ff191685151590811790915591519182527f69e34a174b4a0cce59950c4c852317e9797bdcae125fbf8b5dd8b4311384412f91015b60405180910390a25050565b336000908152600a602052604081205460ff16612343576040516361968ebb60e11b815260040160405180910390fd5b61234b612ef4565b612353612f10565b6001600160a01b03851661237a5760405163e6c4247b60e01b815260040160405180910390fd5b6001600160a01b03841660009081526009602052604090205460ff166123b35760405163350b944160e11b815260040160405180910390fd5b826000036123d45760405163617ab12d60e11b815260040160405180910390fd5b60006006541180156123e7575060065483115b156124055760405163172bd6a160e31b815260040160405180910390fd5b6000600454426124159190613daa565b90506000612424878787612fd0565b60058054919250600061243683613dd3565b919050559250604051806101600160405280886001600160a01b03168152602001876001600160a01b03168152602001868152602001858152602001836001600160401b031681526020016000151581526020016000151581526020016000151581526020016000801b815260200160006001600160401b03168152602001600060ff16815250600c600085815260200190815260200160002060008201518160000160006101000a8154816001600160a01b0302191690836001600160a01b0316021790555060208201518160010160006101000a8154816001600160a01b0302191690836001600160a01b03160217905550604082015181600201556060820151816003015560808201518160040160006101000a8154816001600160401b0302191690836001600160401b0316021790555060a08201518160040160086101000a81548160ff02191690831515021790555060c08201518160040160096101000a81548160ff02191690831515021790555060e082015181600401600a6101000a81548160ff02191690831515021790555061010082015181600501556101208201518160060160006101000a8154816001600160401b0302191690836001600160401b031602179055506101408201518160060160086101000a81548160ff021916908360ff160217905550905050600d6000858152602001908152602001600020839080600181540180825580915050600190039060005260206000200160009091909190915055856001600160a01b0316876001600160a01b0316847f17c9e7375a9b150e63630537199ab5dcf734259f9cf8c51ef8c4ef00929664e6878986886040516126cc9493929190938452602084019290925260408301526001600160401b0316606082015260800190565b60405180910390a450506126ed6001600080516020613e9283398151915255565b949350505050565b6126fd612ec2565b6040516370a0823160e01b81523060048201526000906001600160a01b038416906370a0823190602401602060405180830381865afa158015612744573d6000803e3d6000fd5b505050506040513d601f19601f820116820180604052508101906127689190613dff565b6001600160a01b0384166000908152600b6020526040902054909150808210156127a5576040516310db3edf60e01b815260040160405180910390fd5b60006127b18284613dec565b9050808411156127d4576040516310db3edf60e01b815260040160405180910390fd5b6115f36127df612226565b6001600160a01b0387169086612f41565b600d602052816000526040600020818154811061280c57600080fd5b90600052602060002001600091509150505481565b612829612ef4565b612831612f10565b6000818152600c6020526040902080546001600160a01b03166128675760405163e6c4247b60e01b815260040160405180910390fd5b6004810154600160501b900460ff1661289357604051637b54608d60e11b815260040160405180910390fd5b6004810154600160401b900460ff16156128c05760405163704359db60e01b815260040160405180910390fd5b6004810154600160481b900460ff16156128ed5760405163a5e9827360e01b815260040160405180910390fd5b80546001600160a01b031633148015906129175750336000908152600a602052604090205460ff16155b156129355760405163b2c3aa6b60e01b815260040160405180910390fd5b6006810154600160401b900460ff166000198101156129e75760011960ff8216016129a55760068201546000906129799062093a80906001600160401b0316613daa565b90508042101561299f576040516399bda8ed60e01b8152600481018290526024016121ec565b506129e7565b60048201546001600160401b03164210156129e7576004828101546040516399bda8ed60e01b81526001600160401b03909116918101919091526024016121ec565b60048201805460ff60481b1916600160481b179055600282015460018301546001600160a01b03166000908152600b602052604081208054909190612a2d908490613dec565b9091555050815460028301546001840154612a56926001600160a01b0391821692911690612f41565b815460028301546040805191825260ff841660208301526001600160a01b039092169185917f674f00e09c3e1ef7be401bac0a3f6d8f66346029cc69e3c32c48ccb82003175d910160405180910390a350506121fe6001600080516020613e9283398151915255565b6000805460015460025460035460045460075486958695869586958695869586956001600160a01b0390811695169392916101f49160ff16612b10600080516020613e728339815191525460ff1690565b969f959e50939c50919a509850965094509092509050565b6000807f237e158222e3e6968b72b9db0d8043aacf074ad9f650f0d1606b4d82ee432c0061224b565b612b59612ec2565b6001600160a01b038216612b805760405163e6c4247b60e01b815260040160405180910390fd5b6001600160a01b038216600081815260096020908152604091829020805460ff191685151590811790915591519182527fbbe72b7d9dcb594ee398a4a617885aba53d833e2aad601c813ce9df99fdeb49b9101612307565b612be0612ec2565b6001600160a01b038116612c075760405163e6c4247b60e01b815260040160405180910390fd5b600180546001600160a01b0319166001600160a01b0392909216919091179055565b6000838152600d602052604081208054606092919085101580612c4a575083155b15612c68575050604080516000808252602082019092529150612e35565b8054600090612c778688613daa565b11612c8b57612c868587613daa565b612c8e565b81545b90506000612c9c8783613dec565b6001600160401b03811115612cb357612cb3613b23565b604051908082528060200260200182016040528015612cdc578160200160208202803683370190505b5090506000875b83811015612d9f576000600c6000878481548110612d0357612d03613dbd565b9060005260206000200154815260200190815260200160002090508060040160089054906101000a900460ff16158015612d4957506004810154600160481b900460ff16155b15612d9657858281548110612d6057612d60613dbd565b9060005260206000200154848480612d7790613dd3565b955081518110612d8957612d89613dbd565b6020026020010181815250505b50600101612ce3565b50806001600160401b03811115612db857612db8613b23565b604051908082528060200260200182016040528015612de1578160200160208202803683370190505b50955060005b81811015612e2e57828181518110612e0157612e01613dbd565b6020026020010151878281518110612e1b57612e1b613dbd565b6020908102919091010152600101612de7565b5093505050505b935093915050565b612e45612ec2565b7f237e158222e3e6968b72b9db0d8043aacf074ad9f650f0d1606b4d82ee432c0080546001600160a01b0319166001600160a01b0383169081178255612e89612226565b6001600160a01b03167f38d16b8cac22d99fc7c124b9cd0de2d3fa1faef420bfe791d8c362d765e2270060405160405180910390a35050565b33612ecb612226565b6001600160a01b03161461194c5760405163118cdaa760e01b81523360048201526024016121ec565b612efc613379565b6002600080516020613e9283398151915255565b600080516020613e728339815191525460ff161561194c5760405163d93c066560e01b815260040160405180910390fd5b612f4e83838360016133a9565b61106a57604051635274afe760e01b81526001600160a01b03841660048201526024016121ec565b612f7e61340f565b600080516020613e72833981519152805460ff191681557f5db9ee0a495bf2e6ff9c91a7834c1ba4fdd244a5e8aa4e537bd38aeae4b073aa335b6040516001600160a01b0390911681526020016122a0565b6000612fdc8483613309565b90506000612fea8284613daa565b90506130016001600160a01b03851686308461343f565b811561302157600154613021906001600160a01b03868116911684612f41565b6001600160a01b0384166000908152600b602052604081208054859290613049908490613daa565b909155509195945050505050565b306001600160a01b037f00000000000000000000000000000000000000000000000000000000000000001614806130de57507f00000000000000000000000000000000000000000000000000000000000000006001600160a01b03166130d2600080516020613e52833981519152546001600160a01b031690565b6001600160a01b031614155b1561194c5760405163703e46dd60e11b815260040160405180910390fd5b613104612ec2565b600e5415806131145750600e5442105b1561313857600e54604051633b77feff60e11b81526004016121ec91815260200190565b506000600e55565b816001600160a01b03166352d1902d6040518163ffffffff1660e01b8152600401602060405180830381865afa92505050801561319a575060408051601f3d908101601f1916820190925261319791810190613dff565b60015b6131c257604051634c9c8ce360e01b81526001600160a01b03831660048201526024016121ec565b600080516020613e5283398151915281146131f357604051632a87526960e21b8152600481018290526024016121ec565b61106a838361347b565b306001600160a01b037f0000000000000000000000000000000000000000000000000000000000000000161461194c5760405163703e46dd60e11b815260040160405180910390fd5b6000807ff0c57e16840df040f15088dc2f81fe391c3923bec73e23a9662efc9c229c6a00612220565b6132776134d1565b6121fe816134f6565b61194c6134d1565b7f237e158222e3e6968b72b9db0d8043aacf074ad9f650f0d1606b4d82ee432c0080546001600160a01b0319168155611d7982613528565b6132c8612f10565b600080516020613e72833981519152805460ff191660011781557f62e78cea01bee320cd4e420270b5ea74000d11b0c9f74754ebdbfc544b05a25833612fb8565b60075460009060ff168061333557506001600160a01b03831660009081526008602052604090205460ff165b1561334257506000612220565b6000612710600254846133559190613e18565b61335f9190613e2f565b90506003548111613372576003546126ed565b9392505050565b600080516020613e928339815191525460020361194c57604051633ee5aeb560e01b815260040160405180910390fd5b60405163a9059cbb60e01b60008181526001600160a01b038616600452602485905291602083604481808b5af1925060016000511483166134035783831516156133f6573d6000823e3d81fd5b6000873b113d1516831692505b60405250949350505050565b600080516020613e728339815191525460ff1661194c57604051638dfc202b60e01b815260040160405180910390fd5b61344d848484846001613599565b61347557604051635274afe760e01b81526001600160a01b03851660048201526024016121ec565b50505050565b6134848261360b565b6040516001600160a01b038316907fbc7cd75a20ee27fd9adebab32041f755214dbc6bffa90cc0225b39da2e5c2d3b90600090a28051156134c95761106a8282613670565b611d79613713565b6134d9613732565b61194c57604051631afcd79f60e31b815260040160405180910390fd5b6134fe6134d1565b6001600160a01b0381166121f557604051631e4fbdf760e01b8152600060048201526024016121ec565b7f9016d09d72d40fdae2fd8ceac6b6234c7706214fd39c1cd1e609a0528c19930080546001600160a01b031981166001600160a01b03848116918217845560405192169182907f8be0079c531659141344cd1fd0a4f28419497f9722a3daafe3b4186f6b6457e090600090a3505050565b6040516323b872dd60e01b60008181526001600160a01b038781166004528616602452604485905291602083606481808c5af1925060016000511483166135f95783831516156135ec573d6000823e3d81fd5b6000883b113d1516831692505b60405250600060605295945050505050565b806001600160a01b03163b60000361364157604051634c9c8ce360e01b81526001600160a01b03821660048201526024016121ec565b600080516020613e5283398151915280546001600160a01b0319166001600160a01b0392909216919091179055565b6060600061367e848461374c565b90508080156136a1575060003d11806136a157506000846001600160a01b03163b115b156136b6576136ae613761565b915050612220565b80156136e057604051639996b31560e01b81526001600160a01b03851660048201526024016121ec565b3d156136f3576136ee61377b565b61370c565b60405163d6bda27560e01b815260040160405180910390fd5b5092915050565b341561194c5760405163b398979f60e01b815260040160405180910390fd5b600061373c613246565b54600160401b900460ff16919050565b6000806000835160208501865af49392505050565b6040513d81523d6000602083013e3d602001810160405290565b6040513d6000823e3d81fd5b60006020828403121561379957600080fd5b5035919050565b600080604083850312156137b357600080fd5b50508035926020909101359150565b80356001600160a01b03811681146137d957600080fd5b919050565b6000602082840312156137f057600080fd5b61221d826137c2565b60008083601f84011261380b57600080fd5b5081356001600160401b0381111561382257600080fd5b6020830191508360208260051b850101111561383d57600080fd5b9250929050565b60008060006040848603121561385957600080fd5b83356001600160401b0381111561386f57600080fd5b61387b868287016137f9565b909450925061388e9050602085016137c2565b90509250925092565b803580151581146137d957600080fd5b600080604083850312156138ba57600080fd5b6138c3836137c2565b91506138d160208401613897565b90509250929050565b6000806000606084860312156138ef57600080fd5b833592506138ff602085016137c2565b929592945050506040919091013590565b81516001600160a01b031681526101608101602083015161393c60208401826001600160a01b03169052565b506040830151604083015260608301516060830152608083015161396b60808401826001600160401b03169052565b5060a083015161397f60a084018215159052565b5060c083015161399360c084018215159052565b5060e08301516139a760e084018215159052565b506101008301516101008301526101208301516139d06101208401826001600160401b03169052565b5061014083015161370c61014084018260ff169052565b6000806000806000608086880312156139ff57600080fd5b85356001600160401b03811115613a1557600080fd5b613a21888289016137f9565b9096509450613a349050602087016137c2565b925060408601359150613a49606087016137c2565b90509295509295909350565b6000815180845260005b81811015613a7b57602081850181015186830182015201613a5f565b506000602082860101526020601f19601f83011685010191505092915050565b8315158152826020820152606060408201526000613abc6060830184613a55565b95945050505050565b600080600080600080600060e0888a031215613ae057600080fd5b613ae9886137c2565b9650613af7602089016137c2565b96999698505050506040850135946060810135946080820135945060a0820135935060c0909101359150565b634e487b7160e01b600052604160045260246000fd5b60008060408385031215613b4c57600080fd5b613b55836137c2565b915060208301356001600160401b03811115613b7057600080fd5b8301601f81018513613b8157600080fd5b80356001600160401b03811115613b9a57613b9a613b23565b604051601f8201601f19908116603f011681016001600160401b0381118282101715613bc857613bc8613b23565b604052818152828201602001871015613be057600080fd5b816020840160208301376000602083830101528093505050509250929050565b600080600080600060a08688031215613c1857600080fd5b613c21866137c2565b9450613c2f602087016137c2565b93506040860135925060608601359150613a49608087016137c2565b60008060408385031215613c5e57600080fd5b82359150602083013560ff81168114613c7657600080fd5b809150509250929050565b60008060408385031215613c9457600080fd5b613c9d836137c2565b946020939093013593505050565b600060208284031215613cbd57600080fd5b61221d82613897565b60008060008060808587031215613cdc57600080fd5b613ce5856137c2565b9350613cf3602086016137c2565b93969395505050506040820135916060013590565b60208152600061221d6020830184613a55565b600080600060608486031215613d3057600080fd5b505081359360208301359350604090920135919050565b6040808252835190820181905260009060208501906060840190835b81811015613d81578351835260209384019390920191600101613d63565b5050602093909301939093525092915050565b634e487b7160e01b600052601160045260246000fd5b8082018082111561222057612220613d94565b634e487b7160e01b600052603260045260246000fd5b600060018201613de557613de5613d94565b5060010190565b8181038181111561222057612220613d94565b600060208284031215613e1157600080fd5b5051919050565b808202811582820484141761222057612220613d94565b600082613e4c57634e487b7160e01b600052601260045260246000fd5b50049056fe360894a13ba1a3210667c828492db98dca3e2076cc3735a920a3ca505d382bbccd5ed15c6e187e77e9aee88184c21f4f2182ab5827cb3b7e07fbedcd63f033009b779b17422d0df92223018b32b4d1fa46e071723d6817e2486d003becc55f00a2646970667358221220e8b3d0d35e04639fc2d3d049daac901faf4a805defa3bcf562410e0f6b3ab63e64736f6c634300081c0033","opcodes":"PUSH1 0xA0 PUSH1 0x40 MSTORE ADDRESS PUSH1 0x80 MSTORE CALLVALUE DUP1 ISZERO PUSH2 0x14 JUMPI PUSH1 0x0 DUP1 REVERT JUMPDEST POP PUSH1 0x1 PUSH32 0x9B779B17422D0DF92223018B32B4D1FA46E071723D6817E2486D003BECC55F00 SSTORE PUSH2 0x41 PUSH2 0x46 JUMP JUMPDEST PUSH2 0xF8 JUMP JUMPDEST PUSH32 0xF0C57E16840DF040F15088DC2F81FE391C3923BEC73E23A9662EFC9C229C6A00 DUP1 SLOAD PUSH9 0x10000000000000000 SWAP1 DIV PUSH1 0xFF AND ISZERO PUSH2 0x96 JUMPI PUSH1 0x40 MLOAD PUSH4 0xF92EE8A9 PUSH1 0xE0 SHL DUP2 MSTORE PUSH1 0x4 ADD PUSH1 0x40 MLOAD DUP1 SWAP2 SUB SWAP1 REVERT JUMPDEST DUP1 SLOAD PUSH1 0x1 PUSH1 0x1 PUSH1 0x40 SHL SUB SWAP1 DUP2 AND EQ PUSH2 0xF5 JUMPI DUP1 SLOAD PUSH1 0x1 PUSH1 0x1 PUSH1 0x40 SHL SUB NOT AND PUSH1 0x1 PUSH1 0x1 PUSH1 0x40 SHL SUB SWAP1 DUP2 OR DUP3 SSTORE PUSH1 0x40 MLOAD SWAP1 DUP2 MSTORE PUSH32 0xC7F505B2F371AE2175EE4913F4499E1F2633A7B5936321EED1CDAEB6115181D2 SWAP1 PUSH1 0x20 ADD PUSH1 0x40 MLOAD DUP1 SWAP2 SUB SWAP1 LOG1 JUMPDEST POP JUMP JUMPDEST PUSH1 0x80 MLOAD PUSH2 0x3EE7 PUSH2 0x121 PUSH1 0x0 CODECOPY PUSH1 0x0 DUP2 DUP2 PUSH2 0x3062 ADD MSTORE DUP2 DUP2 PUSH2 0x308B ADD MSTORE PUSH2 0x3208 ADD MSTORE PUSH2 0x3EE7 PUSH1 0x0 RETURN INVALID PUSH1 0x80 PUSH1 0x40 MSTORE PUSH1 0x4 CALLDATASIZE LT PUSH2 0x381 JUMPI PUSH1 0x0 CALLDATALOAD PUSH1 0xE0 SHR DUP1 PUSH4 0x61D027B3 GT PUSH2 0x1D1 JUMPI DUP1 PUSH4 0x9AC2A011 GT PUSH2 0x102 JUMPI DUP1 PUSH4 0xC7F417BA GT PUSH2 0xA0 JUMPI DUP1 PUSH4 0xF0F44260 GT PUSH2 0x6F JUMPI DUP1 PUSH4 0xF0F44260 EQ PUSH2 0xC4A JUMPI DUP1 PUSH4 0xF2121D41 EQ PUSH2 0xC6A JUMPI DUP1 PUSH4 0xF2FDE38B EQ PUSH2 0xC98 JUMPI DUP1 PUSH4 0xFBFA77CF EQ PUSH2 0xCB8 JUMPI PUSH1 0x0 DUP1 REVERT JUMPDEST DUP1 PUSH4 0xC7F417BA EQ PUSH2 0xBE5 JUMPI DUP1 PUSH4 0xD55BE8C6 EQ PUSH2 0xBFF JUMPI DUP1 PUSH4 0xE30C3978 EQ PUSH2 0xC15 JUMPI DUP1 PUSH4 0xE7986466 EQ PUSH2 0xC2A JUMPI PUSH1 0x0 DUP1 REVERT JUMPDEST DUP1 PUSH4 0xAD3CB1CC GT PUSH2 0xDC JUMPI DUP1 PUSH4 0xAD3CB1CC EQ PUSH2 0xB08 JUMPI DUP1 PUSH4 0xB3AB4C49 EQ PUSH2 0xB46 JUMPI DUP1 PUSH4 0xC137B7C2 EQ PUSH2 0xB66 JUMPI DUP1 PUSH4 0xC3F909D4 EQ PUSH2 0xB86 JUMPI PUSH1 0x0 DUP1 REVERT JUMPDEST DUP1 PUSH4 0x9AC2A011 EQ PUSH2 0xAA3 JUMPI DUP1 PUSH4 0xA4BDE0B5 EQ PUSH2 0xAD3 JUMPI DUP1 PUSH4 0xA4C3B091 EQ PUSH2 0xAE8 JUMPI PUSH1 0x0 DUP1 REVERT JUMPDEST DUP1 PUSH4 0x8456CB59 GT PUSH2 0x16F JUMPI DUP1 PUSH4 0x8E3DAFDD GT PUSH2 0x149 JUMPI DUP1 PUSH4 0x8E3DAFDD EQ PUSH2 0xA2E JUMPI DUP1 PUSH4 0x8EBFC796 EQ PUSH2 0xA4E JUMPI DUP1 PUSH4 0x94851BF8 EQ PUSH2 0xA6E JUMPI DUP1 PUSH4 0x950BFF9F EQ PUSH2 0xA8E JUMPI PUSH1 0x0 DUP1 REVERT JUMPDEST DUP1 PUSH4 0x8456CB59 EQ PUSH2 0x9E4 JUMPI DUP1 PUSH4 0x8B28AB1E EQ PUSH2 0x9F9 JUMPI DUP1 PUSH4 0x8DA5CB5B EQ PUSH2 0xA19 JUMPI PUSH1 0x0 DUP1 REVERT JUMPDEST DUP1 PUSH4 0x6A0C5038 GT PUSH2 0x1AB JUMPI DUP1 PUSH4 0x6A0C5038 EQ PUSH2 0x96D JUMPI DUP1 PUSH4 0x715018A6 EQ PUSH2 0x98D JUMPI DUP1 PUSH4 0x7475E466 EQ PUSH2 0x9A2 JUMPI DUP1 PUSH4 0x79BA5097 EQ PUSH2 0x9CF JUMPI PUSH1 0x0 DUP1 REVERT JUMPDEST DUP1 PUSH4 0x61D027B3 EQ PUSH2 0x8E5 JUMPI DUP1 PUSH4 0x6817031B EQ PUSH2 0x91D JUMPI DUP1 PUSH4 0x68C4AC26 EQ PUSH2 0x93D JUMPI PUSH1 0x0 DUP1 REVERT JUMPDEST DUP1 PUSH4 0x25ED32CA GT PUSH2 0x2B6 JUMPI DUP1 PUSH4 0x4F1EF286 GT PUSH2 0x254 JUMPI DUP1 PUSH4 0x5C975ABB GT PUSH2 0x223 JUMPI DUP1 PUSH4 0x5C975ABB EQ PUSH2 0x880 JUMPI DUP1 PUSH4 0x5CA48A7F EQ PUSH2 0x8A5 JUMPI DUP1 PUSH4 0x5F1AEEBF EQ PUSH2 0x8BA JUMPI DUP1 PUSH4 0x61B8CE8C EQ PUSH2 0x8CF JUMPI PUSH1 0x0 DUP1 REVERT JUMPDEST DUP1 PUSH4 0x4F1EF286 EQ PUSH2 0x822 JUMPI DUP1 PUSH4 0x52D1902D EQ PUSH2 0x835 JUMPI DUP1 PUSH4 0x57E4288A EQ PUSH2 0x84A JUMPI DUP1 PUSH4 0x57FB25CC EQ PUSH2 0x860 JUMPI PUSH1 0x0 DUP1 REVERT JUMPDEST DUP1 PUSH4 0x38385D00 GT PUSH2 0x290 JUMPI DUP1 PUSH4 0x38385D00 EQ PUSH2 0x77E JUMPI DUP1 PUSH4 0x3F4218E0 EQ PUSH2 0x7AD JUMPI DUP1 PUSH4 0x3F4BA83A EQ PUSH2 0x7ED JUMPI DUP1 PUSH4 0x41474052 EQ PUSH2 0x802 JUMPI PUSH1 0x0 DUP1 REVERT JUMPDEST DUP1 PUSH4 0x25ED32CA EQ PUSH2 0x727 JUMPI DUP1 PUSH4 0x2DD41899 EQ PUSH2 0x73E JUMPI DUP1 PUSH4 0x30EB4BA8 EQ PUSH2 0x75E JUMPI PUSH1 0x0 DUP1 REVERT JUMPDEST DUP1 PUSH4 0x1F8FB2A2 GT PUSH2 0x323 JUMPI DUP1 PUSH4 0x249D39E9 GT PUSH2 0x2FD JUMPI DUP1 PUSH4 0x249D39E9 EQ PUSH2 0x6CF JUMPI DUP1 PUSH4 0x24A9D853 EQ PUSH2 0x6E5 JUMPI DUP1 PUSH4 0x24C901C9 EQ PUSH2 0x6FB JUMPI DUP1 PUSH4 0x24EC7590 EQ PUSH2 0x711 JUMPI PUSH1 0x0 DUP1 REVERT JUMPDEST DUP1 PUSH4 0x1F8FB2A2 EQ PUSH2 0x550 JUMPI DUP1 PUSH4 0x200E6361 EQ PUSH2 0x570 JUMPI DUP1 PUSH4 0x2049F88F EQ PUSH2 0x590 JUMPI PUSH1 0x0 DUP1 REVERT JUMPDEST DUP1 PUSH4 0x1435756A GT PUSH2 0x35F JUMPI DUP1 PUSH4 0x1435756A EQ PUSH2 0x4D5 JUMPI DUP1 PUSH4 0x14937DEF EQ PUSH2 0x4FA JUMPI DUP1 PUSH4 0x17A28259 EQ PUSH2 0x51A JUMPI DUP1 PUSH4 0x1E1BFF3F EQ PUSH2 0x530 JUMPI PUSH1 0x0 DUP1 REVERT JUMPDEST DUP1 PUSH4 0x8F13F8F EQ PUSH2 0x386 JUMPI DUP1 PUSH4 0xB78F9C0 EQ PUSH2 0x493 JUMPI DUP1 PUSH4 0xC80447A EQ PUSH2 0x4B5 JUMPI JUMPDEST PUSH1 0x0 DUP1 REVERT JUMPDEST CALLVALUE DUP1 ISZERO PUSH2 0x392 JUMPI PUSH1 0x0 DUP1 REVERT JUMPDEST POP PUSH2 0x41D PUSH2 0x3A1 CALLDATASIZE PUSH1 0x4 PUSH2 0x3787 JUMP JUMPDEST PUSH1 0xC PUSH1 0x20 MSTORE PUSH1 0x0 SWAP1 DUP2 MSTORE PUSH1 0x40 SWAP1 KECCAK256 DUP1 SLOAD PUSH1 0x1 DUP3 ADD SLOAD PUSH1 0x2 DUP4 ADD SLOAD PUSH1 0x3 DUP5 ADD SLOAD PUSH1 0x4 DUP6 ADD SLOAD PUSH1 0x5 DUP7 ADD SLOAD PUSH1 0x6 SWAP1 SWAP7 ADD SLOAD PUSH1 0x1 PUSH1 0x1 PUSH1 0xA0 SHL SUB SWAP6 DUP7 AND SWAP7 SWAP5 SWAP1 SWAP6 AND SWAP5 SWAP3 SWAP4 SWAP2 SWAP3 PUSH1 0x1 PUSH1 0x1 PUSH1 0x40 SHL SUB DUP1 DUP4 AND SWAP4 PUSH1 0xFF PUSH1 0x1 PUSH1 0x40 SHL DUP1 DUP7 DIV DUP3 AND SWAP6 PUSH1 0x1 PUSH1 0x48 SHL DUP2 DIV DUP4 AND SWAP6 PUSH1 0x1 PUSH1 0x50 SHL SWAP1 SWAP2 DIV DUP4 AND SWAP5 DUP2 AND SWAP3 SWAP2 SWAP1 DIV AND DUP12 JUMP JUMPDEST PUSH1 0x40 DUP1 MLOAD PUSH1 0x1 PUSH1 0x1 PUSH1 0xA0 SHL SUB SWAP13 DUP14 AND DUP2 MSTORE SWAP12 SWAP1 SWAP11 AND PUSH1 0x20 DUP13 ADD MSTORE SWAP9 DUP11 ADD SWAP8 SWAP1 SWAP8 MSTORE PUSH1 0x60 DUP10 ADD SWAP6 SWAP1 SWAP6 MSTORE PUSH1 0x1 PUSH1 0x1 PUSH1 0x40 SHL SUB SWAP4 DUP5 AND PUSH1 0x80 DUP10 ADD MSTORE SWAP2 ISZERO ISZERO PUSH1 0xA0 DUP9 ADD MSTORE ISZERO ISZERO PUSH1 0xC0 DUP8 ADD MSTORE ISZERO ISZERO PUSH1 0xE0 DUP7 ADD MSTORE PUSH2 0x100 DUP6 ADD SWAP2 SWAP1 SWAP2 MSTORE AND PUSH2 0x120 DUP4 ADD MSTORE PUSH1 0xFF AND PUSH2 0x140 DUP3 ADD MSTORE PUSH2 0x160 ADD JUMPDEST PUSH1 0x40 MLOAD DUP1 SWAP2 SUB SWAP1 RETURN JUMPDEST CALLVALUE DUP1 ISZERO PUSH2 0x49F JUMPI PUSH1 0x0 DUP1 REVERT JUMPDEST POP PUSH2 0x4B3 PUSH2 0x4AE CALLDATASIZE PUSH1 0x4 PUSH2 0x37A0 JUMP JUMPDEST PUSH2 0xCD8 JUMP JUMPDEST STOP JUMPDEST CALLVALUE DUP1 ISZERO PUSH2 0x4C1 JUMPI PUSH1 0x0 DUP1 REVERT JUMPDEST POP PUSH2 0x4B3 PUSH2 0x4D0 CALLDATASIZE PUSH1 0x4 PUSH2 0x37DE JUMP JUMPDEST PUSH2 0xD0E JUMP JUMPDEST CALLVALUE DUP1 ISZERO PUSH2 0x4E1 JUMPI PUSH1 0x0 DUP1 REVERT JUMPDEST POP PUSH2 0x4EC PUSH3 0x93A80 DUP2 JUMP JUMPDEST PUSH1 0x40 MLOAD SWAP1 DUP2 MSTORE PUSH1 0x20 ADD PUSH2 0x48A JUMP JUMPDEST CALLVALUE DUP1 ISZERO PUSH2 0x506 JUMPI PUSH1 0x0 DUP1 REVERT JUMPDEST POP PUSH2 0x4B3 PUSH2 0x515 CALLDATASIZE PUSH1 0x4 PUSH2 0x3844 JUMP JUMPDEST PUSH2 0xD69 JUMP JUMPDEST CALLVALUE DUP1 ISZERO PUSH2 0x526 JUMPI PUSH1 0x0 DUP1 REVERT JUMPDEST POP PUSH2 0x4EC PUSH1 0x6 SLOAD DUP2 JUMP JUMPDEST CALLVALUE DUP1 ISZERO PUSH2 0x53C JUMPI PUSH1 0x0 DUP1 REVERT JUMPDEST POP PUSH2 0x4B3 PUSH2 0x54B CALLDATASIZE PUSH1 0x4 PUSH2 0x38A7 JUMP JUMPDEST PUSH2 0x106F JUMP JUMPDEST CALLVALUE DUP1 ISZERO PUSH2 0x55C JUMPI PUSH1 0x0 DUP1 REVERT JUMPDEST POP PUSH2 0x4B3 PUSH2 0x56B CALLDATASIZE PUSH1 0x4 PUSH2 0x3787 JUMP JUMPDEST PUSH2 0x10A2 JUMP JUMPDEST CALLVALUE DUP1 ISZERO PUSH2 0x57C JUMPI PUSH1 0x0 DUP1 REVERT JUMPDEST POP PUSH2 0x4B3 PUSH2 0x58B CALLDATASIZE PUSH1 0x4 PUSH2 0x38DA JUMP JUMPDEST PUSH2 0x10AF JUMP JUMPDEST CALLVALUE DUP1 ISZERO PUSH2 0x59C JUMPI PUSH1 0x0 DUP1 REVERT JUMPDEST POP PUSH2 0x6C2 PUSH2 0x5AB CALLDATASIZE PUSH1 0x4 PUSH2 0x3787 JUMP JUMPDEST PUSH1 0x40 DUP1 MLOAD PUSH2 0x160 DUP2 ADD DUP3 MSTORE PUSH1 0x0 DUP1 DUP3 MSTORE PUSH1 0x20 DUP3 ADD DUP2 SWAP1 MSTORE SWAP2 DUP2 ADD DUP3 SWAP1 MSTORE PUSH1 0x60 DUP2 ADD DUP3 SWAP1 MSTORE PUSH1 0x80 DUP2 ADD DUP3 SWAP1 MSTORE PUSH1 0xA0 DUP2 ADD DUP3 SWAP1 MSTORE PUSH1 0xC0 DUP2 ADD DUP3 SWAP1 MSTORE PUSH1 0xE0 DUP2 ADD DUP3 SWAP1 MSTORE PUSH2 0x100 DUP2 ADD DUP3 SWAP1 MSTORE PUSH2 0x120 DUP2 ADD DUP3 SWAP1 MSTORE PUSH2 0x140 DUP2 ADD SWAP2 SWAP1 SWAP2 MSTORE POP PUSH1 0x0 SWAP1 DUP2 MSTORE PUSH1 0xC PUSH1 0x20 SWAP1 DUP2 MSTORE PUSH1 0x40 SWAP2 DUP3 SWAP1 KECCAK256 DUP3 MLOAD PUSH2 0x160 DUP2 ADD DUP5 MSTORE DUP2 SLOAD PUSH1 0x1 PUSH1 0x1 PUSH1 0xA0 SHL SUB SWAP1 DUP2 AND DUP3 MSTORE PUSH1 0x1 DUP4 ADD SLOAD AND SWAP3 DUP2 ADD SWAP3 SWAP1 SWAP3 MSTORE PUSH1 0x2 DUP2 ADD SLOAD SWAP3 DUP3 ADD SWAP3 SWAP1 SWAP3 MSTORE PUSH1 0x3 DUP3 ADD SLOAD PUSH1 0x60 DUP3 ADD MSTORE PUSH1 0x4 DUP3 ADD SLOAD PUSH1 0x1 PUSH1 0x1 PUSH1 0x40 SHL SUB DUP1 DUP3 AND PUSH1 0x80 DUP5 ADD MSTORE PUSH1 0xFF PUSH1 0x1 PUSH1 0x40 SHL DUP1 DUP5 DIV DUP3 AND ISZERO ISZERO PUSH1 0xA0 DUP7 ADD MSTORE PUSH1 0x1 PUSH1 0x48 SHL DUP5 DIV DUP3 AND ISZERO ISZERO PUSH1 0xC0 DUP7 ADD MSTORE PUSH1 0x1 PUSH1 0x50 SHL SWAP1 SWAP4 DIV DUP2 AND ISZERO ISZERO PUSH1 0xE0 DUP6 ADD MSTORE PUSH1 0x5 DUP6 ADD SLOAD PUSH2 0x100 DUP6 ADD MSTORE PUSH1 0x6 SWAP1 SWAP5 ADD SLOAD SWAP1 DUP2 AND PUSH2 0x120 DUP5 ADD MSTORE DIV SWAP1 SWAP2 AND PUSH2 0x140 DUP3 ADD MSTORE SWAP1 JUMP JUMPDEST PUSH1 0x40 MLOAD PUSH2 0x48A SWAP2 SWAP1 PUSH2 0x3910 JUMP JUMPDEST CALLVALUE DUP1 ISZERO PUSH2 0x6DB JUMPI PUSH1 0x0 DUP1 REVERT JUMPDEST POP PUSH2 0x4EC PUSH2 0x2710 DUP2 JUMP JUMPDEST CALLVALUE DUP1 ISZERO PUSH2 0x6F1 JUMPI PUSH1 0x0 DUP1 REVERT JUMPDEST POP PUSH2 0x4EC PUSH1 0x2 SLOAD DUP2 JUMP JUMPDEST CALLVALUE DUP1 ISZERO PUSH2 0x707 JUMPI PUSH1 0x0 DUP1 REVERT JUMPDEST POP PUSH2 0x4EC PUSH1 0xE SLOAD DUP2 JUMP JUMPDEST CALLVALUE DUP1 ISZERO PUSH2 0x71D JUMPI PUSH1 0x0 DUP1 REVERT JUMPDEST POP PUSH2 0x4EC PUSH1 0x3 SLOAD DUP2 JUMP JUMPDEST CALLVALUE DUP1 ISZERO PUSH2 0x733 JUMPI PUSH1 0x0 DUP1 REVERT JUMPDEST POP PUSH2 0x4EC PUSH3 0x2A300 DUP2 JUMP JUMPDEST CALLVALUE DUP1 ISZERO PUSH2 0x74A JUMPI PUSH1 0x0 DUP1 REVERT JUMPDEST POP PUSH2 0x4B3 PUSH2 0x759 CALLDATASIZE PUSH1 0x4 PUSH2 0x39E7 JUMP JUMPDEST PUSH2 0x131B JUMP JUMPDEST CALLVALUE DUP1 ISZERO PUSH2 0x76A JUMPI PUSH1 0x0 DUP1 REVERT JUMPDEST POP PUSH2 0x4B3 PUSH2 0x779 CALLDATASIZE PUSH1 0x4 PUSH2 0x3787 JUMP JUMPDEST PUSH2 0x15FA JUMP JUMPDEST CALLVALUE DUP1 ISZERO PUSH2 0x78A JUMPI PUSH1 0x0 DUP1 REVERT JUMPDEST POP PUSH2 0x79E PUSH2 0x799 CALLDATASIZE PUSH1 0x4 PUSH2 0x3787 JUMP JUMPDEST PUSH2 0x1674 JUMP JUMPDEST PUSH1 0x40 MLOAD PUSH2 0x48A SWAP4 SWAP3 SWAP2 SWAP1 PUSH2 0x3A9B JUMP JUMPDEST CALLVALUE DUP1 ISZERO PUSH2 0x7B9 JUMPI PUSH1 0x0 DUP1 REVERT JUMPDEST POP PUSH2 0x7DD PUSH2 0x7C8 CALLDATASIZE PUSH1 0x4 PUSH2 0x37DE JUMP JUMPDEST PUSH1 0x8 PUSH1 0x20 MSTORE PUSH1 0x0 SWAP1 DUP2 MSTORE PUSH1 0x40 SWAP1 KECCAK256 SLOAD PUSH1 0xFF AND DUP2 JUMP JUMPDEST PUSH1 0x40 MLOAD SWAP1 ISZERO ISZERO DUP2 MSTORE PUSH1 0x20 ADD PUSH2 0x48A JUMP JUMPDEST CALLVALUE DUP1 ISZERO PUSH2 0x7F9 JUMPI PUSH1 0x0 DUP1 REVERT JUMPDEST POP PUSH2 0x4B3 PUSH2 0x193C JUMP JUMPDEST CALLVALUE DUP1 ISZERO PUSH2 0x80E JUMPI PUSH1 0x0 DUP1 REVERT JUMPDEST POP PUSH2 0x4EC PUSH2 0x81D CALLDATASIZE PUSH1 0x4 PUSH2 0x3AC5 JUMP JUMPDEST PUSH2 0x194E JUMP JUMPDEST PUSH2 0x4B3 PUSH2 0x830 CALLDATASIZE PUSH1 0x4 PUSH2 0x3B39 JUMP JUMPDEST PUSH2 0x1D5E JUMP JUMPDEST CALLVALUE DUP1 ISZERO PUSH2 0x841 JUMPI PUSH1 0x0 DUP1 REVERT JUMPDEST POP PUSH2 0x4EC PUSH2 0x1D7D JUMP JUMPDEST CALLVALUE DUP1 ISZERO PUSH2 0x856 JUMPI PUSH1 0x0 DUP1 REVERT JUMPDEST POP PUSH2 0x4EC PUSH1 0x4 SLOAD DUP2 JUMP JUMPDEST CALLVALUE DUP1 ISZERO PUSH2 0x86C JUMPI PUSH1 0x0 DUP1 REVERT JUMPDEST POP PUSH2 0x4B3 PUSH2 0x87B CALLDATASIZE PUSH1 0x4 PUSH2 0x3C00 JUMP JUMPDEST PUSH2 0x1D9A JUMP JUMPDEST CALLVALUE DUP1 ISZERO PUSH2 0x88C JUMPI PUSH1 0x0 DUP1 REVERT JUMPDEST POP PUSH1 0x0 DUP1 MLOAD PUSH1 0x20 PUSH2 0x3E72 DUP4 CODECOPY DUP2 MLOAD SWAP2 MSTORE SLOAD PUSH1 0xFF AND PUSH2 0x7DD JUMP JUMPDEST CALLVALUE DUP1 ISZERO PUSH2 0x8B1 JUMPI PUSH1 0x0 DUP1 REVERT JUMPDEST POP PUSH2 0x4EC PUSH1 0x2 DUP2 JUMP JUMPDEST CALLVALUE DUP1 ISZERO PUSH2 0x8C6 JUMPI PUSH1 0x0 DUP1 REVERT JUMPDEST POP PUSH2 0x4EC PUSH1 0x0 DUP2 JUMP JUMPDEST CALLVALUE DUP1 ISZERO PUSH2 0x8DB JUMPI PUSH1 0x0 DUP1 REVERT JUMPDEST POP PUSH2 0x4EC PUSH1 0x5 SLOAD DUP2 JUMP JUMPDEST CALLVALUE DUP1 ISZERO PUSH2 0x8F1 JUMPI PUSH1 0x0 DUP1 REVERT JUMPDEST POP PUSH1 0x1 SLOAD PUSH2 0x905 SWAP1 PUSH1 0x1 PUSH1 0x1 PUSH1 0xA0 SHL SUB AND DUP2 JUMP JUMPDEST PUSH1 0x40 MLOAD PUSH1 0x1 PUSH1 0x1 PUSH1 0xA0 SHL SUB SWAP1 SWAP2 AND DUP2 MSTORE PUSH1 0x20 ADD PUSH2 0x48A JUMP JUMPDEST CALLVALUE DUP1 ISZERO PUSH2 0x929 JUMPI PUSH1 0x0 DUP1 REVERT JUMPDEST POP PUSH2 0x4B3 PUSH2 0x938 CALLDATASIZE PUSH1 0x4 PUSH2 0x37DE JUMP JUMPDEST PUSH2 0x1F8A JUMP JUMPDEST CALLVALUE DUP1 ISZERO PUSH2 0x949 JUMPI PUSH1 0x0 DUP1 REVERT JUMPDEST POP PUSH2 0x7DD PUSH2 0x958 CALLDATASIZE PUSH1 0x4 PUSH2 0x37DE JUMP JUMPDEST PUSH1 0x9 PUSH1 0x20 MSTORE PUSH1 0x0 SWAP1 DUP2 MSTORE PUSH1 0x40 SWAP1 KECCAK256 SLOAD PUSH1 0xFF AND DUP2 JUMP JUMPDEST CALLVALUE DUP1 ISZERO PUSH2 0x979 JUMPI PUSH1 0x0 DUP1 REVERT JUMPDEST POP PUSH2 0x4B3 PUSH2 0x988 CALLDATASIZE PUSH1 0x4 PUSH2 0x3C4B JUMP JUMPDEST PUSH2 0x1FDB JUMP JUMPDEST CALLVALUE DUP1 ISZERO PUSH2 0x999 JUMPI PUSH1 0x0 DUP1 REVERT JUMPDEST POP PUSH2 0x4B3 PUSH2 0x21A2 JUMP JUMPDEST CALLVALUE DUP1 ISZERO PUSH2 0x9AE JUMPI PUSH1 0x0 DUP1 REVERT JUMPDEST POP PUSH2 0x4EC PUSH2 0x9BD CALLDATASIZE PUSH1 0x4 PUSH2 0x37DE JUMP JUMPDEST PUSH1 0xB PUSH1 0x20 MSTORE PUSH1 0x0 SWAP1 DUP2 MSTORE PUSH1 0x40 SWAP1 KECCAK256 SLOAD DUP2 JUMP JUMPDEST CALLVALUE DUP1 ISZERO PUSH2 0x9DB JUMPI PUSH1 0x0 DUP1 REVERT JUMPDEST POP PUSH2 0x4B3 PUSH2 0x21B4 JUMP JUMPDEST CALLVALUE DUP1 ISZERO PUSH2 0x9F0 JUMPI PUSH1 0x0 DUP1 REVERT JUMPDEST POP PUSH2 0x4B3 PUSH2 0x2201 JUMP JUMPDEST CALLVALUE DUP1 ISZERO PUSH2 0xA05 JUMPI PUSH1 0x0 DUP1 REVERT JUMPDEST POP PUSH2 0x4EC PUSH2 0xA14 CALLDATASIZE PUSH1 0x4 PUSH2 0x3C81 JUMP JUMPDEST PUSH2 0x2211 JUMP JUMPDEST CALLVALUE DUP1 ISZERO PUSH2 0xA25 JUMPI PUSH1 0x0 DUP1 REVERT JUMPDEST POP PUSH2 0x905 PUSH2 0x2226 JUMP JUMPDEST CALLVALUE DUP1 ISZERO PUSH2 0xA3A JUMPI PUSH1 0x0 DUP1 REVERT JUMPDEST POP PUSH2 0x4B3 PUSH2 0xA49 CALLDATASIZE PUSH1 0x4 PUSH2 0x3CAB JUMP JUMPDEST PUSH2 0x225B JUMP JUMPDEST CALLVALUE DUP1 ISZERO PUSH2 0xA5A JUMPI PUSH1 0x0 DUP1 REVERT JUMPDEST POP PUSH2 0x4B3 PUSH2 0xA69 CALLDATASIZE PUSH1 0x4 PUSH2 0x38A7 JUMP JUMPDEST PUSH2 0x22AB JUMP JUMPDEST CALLVALUE DUP1 ISZERO PUSH2 0xA7A JUMPI PUSH1 0x0 DUP1 REVERT JUMPDEST POP PUSH2 0x4EC PUSH2 0xA89 CALLDATASIZE PUSH1 0x4 PUSH2 0x3CC6 JUMP JUMPDEST PUSH2 0x2313 JUMP JUMPDEST CALLVALUE DUP1 ISZERO PUSH2 0xA9A JUMPI PUSH1 0x0 DUP1 REVERT JUMPDEST POP PUSH2 0x4EC PUSH1 0x64 DUP2 JUMP JUMPDEST CALLVALUE DUP1 ISZERO PUSH2 0xAAF JUMPI PUSH1 0x0 DUP1 REVERT JUMPDEST POP PUSH2 0x7DD PUSH2 0xABE CALLDATASIZE PUSH1 0x4 PUSH2 0x37DE JUMP JUMPDEST PUSH1 0xA PUSH1 0x20 MSTORE PUSH1 0x0 SWAP1 DUP2 MSTORE PUSH1 0x40 SWAP1 KECCAK256 SLOAD PUSH1 0xFF AND DUP2 JUMP JUMPDEST CALLVALUE DUP1 ISZERO PUSH2 0xADF JUMPI PUSH1 0x0 DUP1 REVERT JUMPDEST POP PUSH2 0x4EC PUSH1 0x1 DUP2 JUMP JUMPDEST CALLVALUE DUP1 ISZERO PUSH2 0xAF4 JUMPI PUSH1 0x0 DUP1 REVERT JUMPDEST POP PUSH2 0x4B3 PUSH2 0xB03 CALLDATASIZE PUSH1 0x4 PUSH2 0x3C81 JUMP JUMPDEST PUSH2 0x26F5 JUMP JUMPDEST CALLVALUE DUP1 ISZERO PUSH2 0xB14 JUMPI PUSH1 0x0 DUP1 REVERT JUMPDEST POP PUSH2 0xB39 PUSH1 0x40 MLOAD DUP1 PUSH1 0x40 ADD PUSH1 0x40 MSTORE DUP1 PUSH1 0x5 DUP2 MSTORE PUSH1 0x20 ADD PUSH5 0x352E302E3 PUSH1 0xDC SHL DUP2 MSTORE POP DUP2 JUMP JUMPDEST PUSH1 0x40 MLOAD PUSH2 0x48A SWAP2 SWAP1 PUSH2 0x3D08 JUMP JUMPDEST CALLVALUE DUP1 ISZERO PUSH2 0xB52 JUMPI PUSH1 0x0 DUP1 REVERT JUMPDEST POP PUSH2 0x4EC PUSH2 0xB61 CALLDATASIZE PUSH1 0x4 PUSH2 0x37A0 JUMP JUMPDEST PUSH2 0x27F0 JUMP JUMPDEST CALLVALUE DUP1 ISZERO PUSH2 0xB72 JUMPI PUSH1 0x0 DUP1 REVERT JUMPDEST POP PUSH2 0x4B3 PUSH2 0xB81 CALLDATASIZE PUSH1 0x4 PUSH2 0x3787 JUMP JUMPDEST PUSH2 0x2821 JUMP JUMPDEST CALLVALUE DUP1 ISZERO PUSH2 0xB92 JUMPI PUSH1 0x0 DUP1 REVERT JUMPDEST POP PUSH2 0xB9B PUSH2 0x2ABF JUMP JUMPDEST PUSH1 0x40 DUP1 MLOAD PUSH1 0x1 PUSH1 0x1 PUSH1 0xA0 SHL SUB SWAP10 DUP11 AND DUP2 MSTORE SWAP9 SWAP1 SWAP8 AND PUSH1 0x20 DUP10 ADD MSTORE SWAP6 DUP8 ADD SWAP5 SWAP1 SWAP5 MSTORE PUSH1 0x60 DUP7 ADD SWAP3 SWAP1 SWAP3 MSTORE PUSH1 0x80 DUP6 ADD MSTORE PUSH1 0xA0 DUP5 ADD MSTORE ISZERO ISZERO PUSH1 0xC0 DUP4 ADD MSTORE ISZERO ISZERO PUSH1 0xE0 DUP3 ADD MSTORE PUSH2 0x100 ADD PUSH2 0x48A JUMP JUMPDEST CALLVALUE DUP1 ISZERO PUSH2 0xBF1 JUMPI PUSH1 0x0 DUP1 REVERT JUMPDEST POP PUSH1 0x7 SLOAD PUSH2 0x7DD SWAP1 PUSH1 0xFF AND DUP2 JUMP JUMPDEST CALLVALUE DUP1 ISZERO PUSH2 0xC0B JUMPI PUSH1 0x0 DUP1 REVERT JUMPDEST POP PUSH2 0x4EC PUSH2 0x1F4 DUP2 JUMP JUMPDEST CALLVALUE DUP1 ISZERO PUSH2 0xC21 JUMPI PUSH1 0x0 DUP1 REVERT JUMPDEST POP PUSH2 0x905 PUSH2 0x2B28 JUMP JUMPDEST CALLVALUE DUP1 ISZERO PUSH2 0xC36 JUMPI PUSH1 0x0 DUP1 REVERT JUMPDEST POP PUSH2 0x4B3 PUSH2 0xC45 CALLDATASIZE PUSH1 0x4 PUSH2 0x38A7 JUMP JUMPDEST PUSH2 0x2B51 JUMP JUMPDEST CALLVALUE DUP1 ISZERO PUSH2 0xC56 JUMPI PUSH1 0x0 DUP1 REVERT JUMPDEST POP PUSH2 0x4B3 PUSH2 0xC65 CALLDATASIZE PUSH1 0x4 PUSH2 0x37DE JUMP JUMPDEST PUSH2 0x2BD8 JUMP JUMPDEST CALLVALUE DUP1 ISZERO PUSH2 0xC76 JUMPI PUSH1 0x0 DUP1 REVERT JUMPDEST POP PUSH2 0xC8A PUSH2 0xC85 CALLDATASIZE PUSH1 0x4 PUSH2 0x3D1B JUMP JUMPDEST PUSH2 0x2C29 JUMP JUMPDEST PUSH1 0x40 MLOAD PUSH2 0x48A SWAP3 SWAP2 SWAP1 PUSH2 0x3D47 JUMP JUMPDEST CALLVALUE DUP1 ISZERO PUSH2 0xCA4 JUMPI PUSH1 0x0 DUP1 REVERT JUMPDEST POP PUSH2 0x4B3 PUSH2 0xCB3 CALLDATASIZE PUSH1 0x4 PUSH2 0x37DE JUMP JUMPDEST PUSH2 0x2E3D JUMP JUMPDEST CALLVALUE DUP1 ISZERO PUSH2 0xCC4 JUMPI PUSH1 0x0 DUP1 REVERT JUMPDEST POP PUSH1 0x0 SLOAD PUSH2 0x905 SWAP1 PUSH1 0x1 PUSH1 0x1 PUSH1 0xA0 SHL SUB AND DUP2 JUMP JUMPDEST PUSH2 0xCE0 PUSH2 0x2EC2 JUMP JUMPDEST PUSH2 0x1F4 DUP3 GT ISZERO PUSH2 0xD03 JUMPI PUSH1 0x40 MLOAD PUSH4 0x2BE70877 PUSH1 0xE2 SHL DUP2 MSTORE PUSH1 0x4 ADD PUSH1 0x40 MLOAD DUP1 SWAP2 SUB SWAP1 REVERT JUMPDEST PUSH1 0x2 SWAP2 SWAP1 SWAP2 SSTORE PUSH1 0x3 SSTORE JUMP JUMPDEST PUSH2 0xD16 PUSH2 0x2EC2 JUMP JUMPDEST PUSH2 0xD23 PUSH3 0x2A300 TIMESTAMP PUSH2 0x3DAA JUMP JUMPDEST PUSH1 0xE DUP2 SWAP1 SSTORE PUSH1 0x40 MLOAD SWAP1 DUP2 MSTORE PUSH1 0x1 PUSH1 0x1 PUSH1 0xA0 SHL SUB DUP3 AND SWAP1 PUSH32 0xE1009627653EB47F7D0F3B4435749F7984A803C21F84A076CC4DCB0412CF066F SWAP1 PUSH1 0x20 ADD PUSH1 0x40 MLOAD DUP1 SWAP2 SUB SWAP1 LOG2 POP JUMP JUMPDEST PUSH2 0xD71 PUSH2 0x2EF4 JUMP JUMPDEST PUSH2 0xD79 PUSH2 0x2F10 JUMP JUMPDEST DUP2 ISZERO DUP1 PUSH2 0xD86 JUMPI POP PUSH1 0x64 DUP3 GT JUMPDEST ISZERO PUSH2 0xDA4 JUMPI PUSH1 0x40 MLOAD PUSH4 0x7862E959 PUSH1 0xE0 SHL DUP2 MSTORE PUSH1 0x4 ADD PUSH1 0x40 MLOAD DUP1 SWAP2 SUB SWAP1 REVERT JUMPDEST PUSH1 0x0 DUP1 PUSH1 0x0 DUP1 JUMPDEST DUP6 DUP2 LT ISZERO PUSH2 0xFB0 JUMPI PUSH1 0x0 PUSH1 0xC PUSH1 0x0 DUP10 DUP10 DUP6 DUP2 DUP2 LT PUSH2 0xDCB JUMPI PUSH2 0xDCB PUSH2 0x3DBD JUMP JUMPDEST PUSH1 0x20 SWAP1 DUP2 MUL SWAP3 SWAP1 SWAP3 ADD CALLDATALOAD DUP4 MSTORE POP DUP2 ADD SWAP2 SWAP1 SWAP2 MSTORE PUSH1 0x40 ADD PUSH1 0x0 KECCAK256 DUP1 SLOAD SWAP1 SWAP2 POP PUSH1 0x1 PUSH1 0x1 PUSH1 0xA0 SHL SUB AND PUSH2 0xDFC JUMPI POP PUSH2 0xFA8 JUMP JUMPDEST PUSH1 0x1 DUP2 ADD SLOAD PUSH1 0x1 PUSH1 0x1 PUSH1 0xA0 SHL SUB DUP8 DUP2 AND SWAP2 AND EQ PUSH2 0xE2C JUMPI PUSH1 0x40 MLOAD PUSH4 0x7664DED PUSH1 0xE0 SHL DUP2 MSTORE PUSH1 0x4 ADD PUSH1 0x40 MLOAD DUP1 SWAP2 SUB SWAP1 REVERT JUMPDEST PUSH1 0x4 DUP2 ADD SLOAD PUSH1 0x1 PUSH1 0x50 SHL SWAP1 DIV PUSH1 0xFF AND ISZERO PUSH2 0xE46 JUMPI POP PUSH2 0xFA8 JUMP JUMPDEST PUSH1 0x1 PUSH1 0x1 PUSH1 0xA0 SHL SUB DUP4 AND PUSH2 0xE66 JUMPI DUP1 SLOAD PUSH1 0x1 PUSH1 0x1 PUSH1 0xA0 SHL SUB AND SWAP3 POP PUSH2 0xE93 JUMP JUMPDEST DUP1 SLOAD PUSH1 0x1 PUSH1 0x1 PUSH1 0xA0 SHL SUB DUP5 DUP2 AND SWAP2 AND EQ PUSH2 0xE93 JUMPI PUSH1 0x40 MLOAD PUSH4 0x2E8DA26F PUSH1 0xE1 SHL DUP2 MSTORE PUSH1 0x4 ADD PUSH1 0x40 MLOAD DUP1 SWAP2 SUB SWAP1 REVERT JUMPDEST DUP1 SLOAD PUSH1 0x0 SWAP1 PUSH1 0x1 PUSH1 0x1 PUSH1 0xA0 SHL SUB AND CALLER EQ DUP1 PUSH2 0xEBD JUMPI POP CALLER PUSH1 0x0 SWAP1 DUP2 MSTORE PUSH1 0xA PUSH1 0x20 MSTORE PUSH1 0x40 SWAP1 KECCAK256 SLOAD PUSH1 0xFF AND JUMPDEST SWAP1 POP DUP1 DUP1 ISZERO PUSH2 0xED8 JUMPI POP PUSH1 0x4 DUP3 ADD SLOAD PUSH1 0x1 PUSH1 0x40 SHL SWAP1 DIV PUSH1 0xFF AND ISZERO JUMPDEST DUP1 ISZERO PUSH2 0xEF0 JUMPI POP PUSH1 0x4 DUP3 ADD SLOAD PUSH1 0x1 PUSH1 0x48 SHL SWAP1 DIV PUSH1 0xFF AND ISZERO JUMPDEST DUP1 ISZERO PUSH2 0xF09 JUMPI POP PUSH1 0x4 DUP3 ADD SLOAD PUSH1 0x1 PUSH1 0x1 PUSH1 0x40 SHL SUB AND TIMESTAMP LT ISZERO JUMPDEST ISZERO PUSH2 0xFA5 JUMPI PUSH1 0x4 DUP3 ADD DUP1 SLOAD PUSH1 0xFF PUSH1 0x48 SHL NOT AND PUSH1 0x1 PUSH1 0x48 SHL OR SWAP1 SSTORE PUSH1 0x2 DUP3 ADD SLOAD PUSH2 0xF32 SWAP1 DUP8 PUSH2 0x3DAA JUMP JUMPDEST SWAP6 POP DUP5 PUSH2 0xF3E DUP2 PUSH2 0x3DD3 JUMP JUMPDEST DUP4 SLOAD SWAP1 SWAP7 POP PUSH1 0x1 PUSH1 0x1 PUSH1 0xA0 SHL SUB AND SWAP1 POP DUP10 DUP10 DUP6 DUP2 DUP2 LT PUSH2 0xF60 JUMPI PUSH2 0xF60 PUSH2 0x3DBD JUMP JUMPDEST SWAP1 POP PUSH1 0x20 MUL ADD CALLDATALOAD PUSH32 0xAB53D85930559DE8F4F7B2C56D6C6A5471DAFF559B2EAA2CEC6C38CD3A327BF1 DUP5 PUSH1 0x2 ADD SLOAD PUSH1 0x40 MLOAD PUSH2 0xF9C SWAP2 DUP2 MSTORE PUSH1 0x20 ADD SWAP1 JUMP JUMPDEST PUSH1 0x40 MLOAD DUP1 SWAP2 SUB SWAP1 LOG3 JUMPDEST POP POP JUMPDEST PUSH1 0x1 ADD PUSH2 0xDAB JUMP JUMPDEST POP DUP3 ISZERO PUSH2 0x1050 JUMPI PUSH1 0x1 PUSH1 0x1 PUSH1 0xA0 SHL SUB DUP5 AND PUSH1 0x0 SWAP1 DUP2 MSTORE PUSH1 0xB PUSH1 0x20 MSTORE PUSH1 0x40 DUP2 KECCAK256 DUP1 SLOAD DUP6 SWAP3 SWAP1 PUSH2 0xFDF SWAP1 DUP5 SWAP1 PUSH2 0x3DEC JUMP JUMPDEST SWAP1 SWAP2 SSTORE POP PUSH2 0xFF9 SWAP1 POP PUSH1 0x1 PUSH1 0x1 PUSH1 0xA0 SHL SUB DUP6 AND DUP3 DUP6 PUSH2 0x2F41 JUMP JUMPDEST DUP4 PUSH1 0x1 PUSH1 0x1 PUSH1 0xA0 SHL SUB AND DUP2 PUSH1 0x1 PUSH1 0x1 PUSH1 0xA0 SHL SUB AND PUSH32 0xAB4240075E216B0CE0F7EDC354AA12A7145572AEF73412E987452015A9D0C8F4 DUP6 DUP6 PUSH1 0x40 MLOAD PUSH2 0x1047 SWAP3 SWAP2 SWAP1 SWAP2 DUP3 MSTORE PUSH1 0x20 DUP3 ADD MSTORE PUSH1 0x40 ADD SWAP1 JUMP JUMPDEST PUSH1 0x40 MLOAD DUP1 SWAP2 SUB SWAP1 LOG3 JUMPDEST POP POP POP PUSH2 0x106A PUSH1 0x1 PUSH1 0x0 DUP1 MLOAD PUSH1 0x20 PUSH2 0x3E92 DUP4 CODECOPY DUP2 MLOAD SWAP2 MSTORE SSTORE JUMP JUMPDEST POP POP POP JUMP JUMPDEST PUSH2 0x1077 PUSH2 0x2EC2 JUMP JUMPDEST PUSH1 0x1 PUSH1 0x1 PUSH1 0xA0 SHL SUB SWAP2 SWAP1 SWAP2 AND PUSH1 0x0 SWAP1 DUP2 MSTORE PUSH1 0xA PUSH1 0x20 MSTORE PUSH1 0x40 SWAP1 KECCAK256 DUP1 SLOAD PUSH1 0xFF NOT AND SWAP2 ISZERO ISZERO SWAP2 SWAP1 SWAP2 OR SWAP1 SSTORE JUMP JUMPDEST PUSH2 0x10AA PUSH2 0x2EC2 JUMP JUMPDEST PUSH1 0x6 SSTORE JUMP JUMPDEST PUSH1 0x0 SLOAD PUSH1 0x1 PUSH1 0x1 PUSH1 0xA0 SHL SUB AND CALLER EQ PUSH2 0x10DA JUMPI PUSH1 0x40 MLOAD PUSH4 0x62DF0545 PUSH1 0xE0 SHL DUP2 MSTORE PUSH1 0x4 ADD PUSH1 0x40 MLOAD DUP1 SWAP2 SUB SWAP1 REVERT JUMPDEST PUSH2 0x10E2 PUSH2 0x2EF4 JUMP JUMPDEST PUSH2 0x10EA PUSH2 0x2F10 JUMP JUMPDEST PUSH1 0x1 PUSH1 0x1 PUSH1 0xA0 SHL SUB DUP3 AND PUSH2 0x1111 JUMPI PUSH1 0x40 MLOAD PUSH4 0xE6C4247B PUSH1 0xE0 SHL DUP2 MSTORE PUSH1 0x4 ADD PUSH1 0x40 MLOAD DUP1 SWAP2 SUB SWAP1 REVERT JUMPDEST PUSH1 0x0 DUP4 DUP2 MSTORE PUSH1 0xC PUSH1 0x20 MSTORE PUSH1 0x40 SWAP1 KECCAK256 DUP1 SLOAD PUSH1 0x1 PUSH1 0x1 PUSH1 0xA0 SHL SUB AND PUSH2 0x1147 JUMPI PUSH1 0x40 MLOAD PUSH4 0xE6C4247B PUSH1 0xE0 SHL DUP2 MSTORE PUSH1 0x4 ADD PUSH1 0x40 MLOAD DUP1 SWAP2 SUB SWAP1 REVERT JUMPDEST PUSH1 0x4 DUP2 ADD SLOAD PUSH1 0x1 PUSH1 0x50 SHL SWAP1 DIV PUSH1 0xFF AND PUSH2 0x1173 JUMPI PUSH1 0x40 MLOAD PUSH4 0x7B54608D PUSH1 0xE1 SHL DUP2 MSTORE PUSH1 0x4 ADD PUSH1 0x40 MLOAD DUP1 SWAP2 SUB SWAP1 REVERT JUMPDEST DUP2 DUP2 PUSH1 0x3 ADD SLOAD EQ PUSH2 0x1197 JUMPI PUSH1 0x40 MLOAD PUSH4 0x2DE056E5 PUSH1 0xE0 SHL DUP2 MSTORE PUSH1 0x4 ADD PUSH1 0x40 MLOAD DUP1 SWAP2 SUB SWAP1 REVERT JUMPDEST PUSH1 0x4 DUP2 ADD SLOAD PUSH1 0x1 PUSH1 0x40 SHL SWAP1 DIV PUSH1 0xFF AND ISZERO PUSH2 0x11C4 JUMPI PUSH1 0x40 MLOAD PUSH4 0x704359DB PUSH1 0xE0 SHL DUP2 MSTORE PUSH1 0x4 ADD PUSH1 0x40 MLOAD DUP1 SWAP2 SUB SWAP1 REVERT JUMPDEST PUSH1 0x4 DUP2 ADD SLOAD PUSH1 0x1 PUSH1 0x48 SHL SWAP1 DIV PUSH1 0xFF AND ISZERO PUSH2 0x11F1 JUMPI PUSH1 0x40 MLOAD PUSH4 0xA5E98273 PUSH1 0xE0 SHL DUP2 MSTORE PUSH1 0x4 ADD PUSH1 0x40 MLOAD DUP1 SWAP2 SUB SWAP1 REVERT JUMPDEST PUSH1 0x6 DUP2 ADD SLOAD PUSH1 0x1 PUSH1 0x1 PUSH1 0x40 SHL SUB AND PUSH1 0x0 SUB PUSH2 0x121F JUMPI PUSH1 0x40 MLOAD PUSH4 0x14566B5F PUSH1 0xE1 SHL DUP2 MSTORE PUSH1 0x4 ADD PUSH1 0x40 MLOAD DUP1 SWAP2 SUB SWAP1 REVERT JUMPDEST PUSH1 0x6 DUP2 ADD SLOAD PUSH1 0x1 PUSH1 0x40 SHL SWAP1 DIV PUSH1 0xFF AND PUSH1 0x2 EQ PUSH2 0x124E JUMPI PUSH1 0x40 MLOAD PUSH4 0x3F0C8CB PUSH1 0xE3 SHL DUP2 MSTORE PUSH1 0x4 ADD PUSH1 0x40 MLOAD DUP1 SWAP2 SUB SWAP1 REVERT JUMPDEST PUSH1 0x4 DUP2 ADD DUP1 SLOAD PUSH1 0xFF PUSH1 0x40 SHL NOT AND PUSH1 0x1 PUSH1 0x40 SHL OR SWAP1 SSTORE PUSH1 0x2 DUP2 ADD SLOAD PUSH1 0x1 DUP3 ADD SLOAD PUSH1 0x1 PUSH1 0x1 PUSH1 0xA0 SHL SUB AND PUSH1 0x0 SWAP1 DUP2 MSTORE PUSH1 0xB PUSH1 0x20 MSTORE PUSH1 0x40 DUP2 KECCAK256 DUP1 SLOAD SWAP1 SWAP2 SWAP1 PUSH2 0x1294 SWAP1 DUP5 SWAP1 PUSH2 0x3DEC JUMP JUMPDEST SWAP1 SWAP2 SSTORE POP POP PUSH1 0x2 DUP2 ADD SLOAD PUSH1 0x1 DUP3 ADD SLOAD PUSH2 0x12BA SWAP2 PUSH1 0x1 PUSH1 0x1 PUSH1 0xA0 SHL SUB SWAP1 SWAP2 AND SWAP1 DUP6 SWAP1 PUSH2 0x2F41 JUMP JUMPDEST DUP3 PUSH1 0x1 PUSH1 0x1 PUSH1 0xA0 SHL SUB AND DUP3 DUP6 PUSH32 0x790520C0AD9786243D1BD36A7FB565F2E621BB821C43C42440D35170BACBF877 DUP5 PUSH1 0x2 ADD SLOAD PUSH1 0x40 MLOAD PUSH2 0x12FB SWAP2 DUP2 MSTORE PUSH1 0x20 ADD SWAP1 JUMP JUMPDEST PUSH1 0x40 MLOAD DUP1 SWAP2 SUB SWAP1 LOG4 POP PUSH2 0x106A PUSH1 0x1 PUSH1 0x0 DUP1 MLOAD PUSH1 0x20 PUSH2 0x3E92 DUP4 CODECOPY DUP2 MLOAD SWAP2 MSTORE SSTORE JUMP JUMPDEST PUSH1 0x0 SLOAD PUSH1 0x1 PUSH1 0x1 PUSH1 0xA0 SHL SUB AND CALLER EQ PUSH2 0x1346 JUMPI PUSH1 0x40 MLOAD PUSH4 0x62DF0545 PUSH1 0xE0 SHL DUP2 MSTORE PUSH1 0x4 ADD PUSH1 0x40 MLOAD DUP1 SWAP2 SUB SWAP1 REVERT JUMPDEST PUSH2 0x134E PUSH2 0x2EF4 JUMP JUMPDEST PUSH2 0x1356 PUSH2 0x2F10 JUMP JUMPDEST PUSH1 0x1 PUSH1 0x1 PUSH1 0xA0 SHL SUB DUP4 AND PUSH2 0x137D JUMPI PUSH1 0x40 MLOAD PUSH4 0xE6C4247B PUSH1 0xE0 SHL DUP2 MSTORE PUSH1 0x4 ADD PUSH1 0x40 MLOAD DUP1 SWAP2 SUB SWAP1 REVERT JUMPDEST DUP4 ISZERO DUP1 PUSH2 0x138A JUMPI POP PUSH1 0x64 DUP5 GT JUMPDEST ISZERO PUSH2 0x13A8 JUMPI PUSH1 0x40 MLOAD PUSH4 0x7862E959 PUSH1 0xE0 SHL DUP2 MSTORE PUSH1 0x4 ADD PUSH1 0x40 MLOAD DUP1 SWAP2 SUB SWAP1 REVERT JUMPDEST PUSH1 0x0 DUP1 PUSH1 0x0 JUMPDEST DUP7 DUP2 LT ISZERO PUSH2 0x1539 JUMPI PUSH1 0x0 PUSH1 0xC PUSH1 0x0 DUP11 DUP11 DUP6 DUP2 DUP2 LT PUSH2 0x13CE JUMPI PUSH2 0x13CE PUSH2 0x3DBD JUMP JUMPDEST PUSH1 0x20 SWAP1 DUP2 MUL SWAP3 SWAP1 SWAP3 ADD CALLDATALOAD DUP4 MSTORE POP DUP2 ADD SWAP2 SWAP1 SWAP2 MSTORE PUSH1 0x40 ADD PUSH1 0x0 KECCAK256 DUP1 SLOAD SWAP1 SWAP2 POP PUSH1 0x1 PUSH1 0x1 PUSH1 0xA0 SHL SUB AND PUSH2 0x13FF JUMPI POP PUSH2 0x1531 JUMP JUMPDEST DUP6 DUP2 PUSH1 0x3 ADD SLOAD EQ PUSH2 0x1423 JUMPI PUSH1 0x40 MLOAD PUSH4 0x2DE056E5 PUSH1 0xE0 SHL DUP2 MSTORE PUSH1 0x4 ADD PUSH1 0x40 MLOAD DUP1 SWAP2 SUB SWAP1 REVERT JUMPDEST PUSH1 0x1 DUP2 ADD SLOAD PUSH1 0x1 PUSH1 0x1 PUSH1 0xA0 SHL SUB DUP7 DUP2 AND SWAP2 AND EQ PUSH2 0x1453 JUMPI PUSH1 0x40 MLOAD PUSH4 0x7664DED PUSH1 0xE0 SHL DUP2 MSTORE PUSH1 0x4 ADD PUSH1 0x40 MLOAD DUP1 SWAP2 SUB SWAP1 REVERT JUMPDEST PUSH1 0x4 DUP2 ADD SLOAD PUSH1 0x1 PUSH1 0x50 SHL SWAP1 DIV PUSH1 0xFF AND ISZERO PUSH2 0x146D JUMPI POP PUSH2 0x1531 JUMP JUMPDEST PUSH1 0x4 DUP2 ADD SLOAD PUSH1 0x1 PUSH1 0x40 SHL SWAP1 DIV PUSH1 0xFF AND ISZERO DUP1 ISZERO PUSH2 0x1495 JUMPI POP PUSH1 0x4 DUP2 ADD SLOAD PUSH1 0x1 PUSH1 0x48 SHL SWAP1 DIV PUSH1 0xFF AND ISZERO JUMPDEST ISZERO PUSH2 0x152F JUMPI PUSH1 0x4 DUP2 ADD DUP1 SLOAD PUSH1 0xFF PUSH1 0x40 SHL NOT AND PUSH1 0x1 PUSH1 0x40 SHL OR SWAP1 SSTORE PUSH1 0x2 DUP2 ADD SLOAD PUSH2 0x14BE SWAP1 DUP6 PUSH2 0x3DAA JUMP JUMPDEST SWAP4 POP DUP3 PUSH2 0x14CA DUP2 PUSH2 0x3DD3 JUMP JUMPDEST SWAP4 POP POP DUP7 PUSH1 0x1 PUSH1 0x1 PUSH1 0xA0 SHL SUB AND DUP7 DUP11 DUP11 DUP6 DUP2 DUP2 LT PUSH2 0x14EA JUMPI PUSH2 0x14EA PUSH2 0x3DBD JUMP JUMPDEST SWAP1 POP PUSH1 0x20 MUL ADD CALLDATALOAD PUSH32 0x388B13DE303B6025C48E0E60D6A961F9FFA52CAED98C10256749CF1B8BEC322F DUP5 PUSH1 0x2 ADD SLOAD PUSH1 0x40 MLOAD PUSH2 0x1526 SWAP2 DUP2 MSTORE PUSH1 0x20 ADD SWAP1 JUMP JUMPDEST PUSH1 0x40 MLOAD DUP1 SWAP2 SUB SWAP1 LOG4 JUMPDEST POP JUMPDEST PUSH1 0x1 ADD PUSH2 0x13AE JUMP JUMPDEST POP DUP2 ISZERO PUSH2 0x15DA JUMPI PUSH1 0x1 PUSH1 0x1 PUSH1 0xA0 SHL SUB DUP4 AND PUSH1 0x0 SWAP1 DUP2 MSTORE PUSH1 0xB PUSH1 0x20 MSTORE PUSH1 0x40 DUP2 KECCAK256 DUP1 SLOAD DUP5 SWAP3 SWAP1 PUSH2 0x1568 SWAP1 DUP5 SWAP1 PUSH2 0x3DEC JUMP JUMPDEST SWAP1 SWAP2 SSTORE POP PUSH2 0x1582 SWAP1 POP PUSH1 0x1 PUSH1 0x1 PUSH1 0xA0 SHL SUB DUP5 AND DUP7 DUP5 PUSH2 0x2F41 JUMP JUMPDEST DUP3 PUSH1 0x1 PUSH1 0x1 PUSH1 0xA0 SHL SUB AND DUP6 PUSH1 0x1 PUSH1 0x1 PUSH1 0xA0 SHL SUB AND DUP6 PUSH32 0x6A6ED0C1E3BF4A67EA2A192EE2AC0366401F82CF64216A5D7964B320251D5E13 DUP6 DUP6 PUSH1 0x40 MLOAD PUSH2 0x15D1 SWAP3 SWAP2 SWAP1 SWAP2 DUP3 MSTORE PUSH1 0x20 DUP3 ADD MSTORE PUSH1 0x40 ADD SWAP1 JUMP JUMPDEST PUSH1 0x40 MLOAD DUP1 SWAP2 SUB SWAP1 LOG4 JUMPDEST POP POP PUSH2 0x15F3 PUSH1 0x1 PUSH1 0x0 DUP1 MLOAD PUSH1 0x20 PUSH2 0x3E92 DUP4 CODECOPY DUP2 MLOAD SWAP2 MSTORE SSTORE JUMP JUMPDEST POP POP POP POP POP JUMP JUMPDEST PUSH2 0x1602 PUSH2 0x2EC2 JUMP JUMPDEST PUSH3 0x15180 DUP2 LT DUP1 PUSH2 0x1615 JUMPI POP PUSH3 0x278D00 DUP2 GT JUMPDEST ISZERO PUSH2 0x1633 JUMPI PUSH1 0x40 MLOAD PUSH4 0x76166401 PUSH1 0xE0 SHL DUP2 MSTORE PUSH1 0x4 ADD PUSH1 0x40 MLOAD DUP1 SWAP2 SUB SWAP1 REVERT JUMPDEST PUSH1 0x4 SLOAD PUSH1 0x40 DUP1 MLOAD SWAP2 DUP3 MSTORE PUSH1 0x20 DUP3 ADD DUP4 SWAP1 MSTORE PUSH32 0x9D1FC3AE74C682433AE187B635D6C0CCA95F3C19C088F56133C2FEF16E0514A1 SWAP2 ADD PUSH1 0x40 MLOAD DUP1 SWAP2 SUB SWAP1 LOG1 PUSH1 0x4 SSTORE JUMP JUMPDEST PUSH1 0x0 DUP2 DUP2 MSTORE PUSH1 0xC PUSH1 0x20 MSTORE PUSH1 0x40 DUP2 KECCAK256 DUP1 SLOAD DUP3 SWAP2 PUSH1 0x60 SWAP2 PUSH1 0x1 PUSH1 0x1 PUSH1 0xA0 SHL SUB AND PUSH2 0x16C8 JUMPI POP POP PUSH1 0x40 DUP1 MLOAD DUP1 DUP3 ADD SWAP1 SWAP2 MSTORE PUSH1 0xD DUP2 MSTORE PUSH13 0x1253D557D393D517D193D55391 PUSH1 0x9A SHL PUSH1 0x20 DUP3 ADD MSTORE PUSH1 0x0 SWAP3 POP DUP3 SWAP2 POP PUSH2 0x1935 JUMP JUMPDEST PUSH1 0x4 DUP2 ADD SLOAD PUSH1 0x1 PUSH1 0x50 SHL SWAP1 DIV PUSH1 0xFF AND PUSH2 0x170F JUMPI POP POP PUSH1 0x40 DUP1 MLOAD DUP1 DUP3 ADD SWAP1 SWAP2 MSTORE PUSH1 0xF DUP2 MSTORE PUSH15 0x1393D517D0D3D39112551253D39053 PUSH1 0x8A SHL PUSH1 0x20 DUP3 ADD MSTORE PUSH1 0x0 SWAP3 POP DUP3 SWAP2 POP PUSH2 0x1935 JUMP JUMPDEST PUSH1 0x4 DUP2 ADD SLOAD PUSH1 0x1 PUSH1 0x40 SHL SWAP1 DIV PUSH1 0xFF AND ISZERO PUSH2 0x1757 JUMPI POP POP PUSH1 0x40 DUP1 MLOAD DUP1 DUP3 ADD SWAP1 SWAP2 MSTORE PUSH1 0xF DUP2 MSTORE PUSH15 0x1053149150511657D0D31052535151 PUSH1 0x8A SHL PUSH1 0x20 DUP3 ADD MSTORE PUSH1 0x0 SWAP3 POP DUP3 SWAP2 POP PUSH2 0x1935 JUMP JUMPDEST PUSH1 0x4 DUP2 ADD SLOAD PUSH1 0x1 PUSH1 0x48 SHL SWAP1 DIV PUSH1 0xFF AND ISZERO PUSH2 0x17A0 JUMPI POP POP PUSH1 0x40 DUP1 MLOAD DUP1 DUP3 ADD SWAP1 SWAP2 MSTORE PUSH1 0x10 DUP2 MSTORE PUSH16 0x1053149150511657D491519553911151 PUSH1 0x82 SHL PUSH1 0x20 DUP3 ADD MSTORE PUSH1 0x0 SWAP3 POP DUP3 SWAP2 POP PUSH2 0x1935 JUMP JUMPDEST PUSH1 0x6 DUP2 ADD SLOAD PUSH1 0x1 PUSH1 0x40 SHL SWAP1 DIV PUSH1 0xFF AND PUSH1 0x0 NOT DUP2 ADD PUSH2 0x17EC JUMPI PUSH1 0x1 PUSH1 0x0 PUSH1 0x40 MLOAD DUP1 PUSH1 0x40 ADD PUSH1 0x40 MSTORE DUP1 PUSH1 0xA DUP2 MSTORE PUSH1 0x20 ADD PUSH10 0x29A2A72222A92FABA7A7 PUSH1 0xB1 SHL DUP2 MSTORE POP SWAP5 POP SWAP5 POP SWAP5 POP POP POP PUSH2 0x1935 JUMP JUMPDEST PUSH1 0x1 NOT PUSH1 0xFF DUP3 AND ADD PUSH2 0x18A6 JUMPI PUSH1 0x6 DUP3 ADD SLOAD PUSH1 0x0 SWAP1 PUSH2 0x1817 SWAP1 PUSH3 0x93A80 SWAP1 PUSH1 0x1 PUSH1 0x1 PUSH1 0x40 SHL SUB AND PUSH2 0x3DAA JUMP JUMPDEST SWAP1 POP DUP1 TIMESTAMP LT PUSH2 0x1868 JUMPI PUSH1 0x1 PUSH1 0x0 PUSH1 0x40 MLOAD DUP1 PUSH1 0x40 ADD PUSH1 0x40 MSTORE DUP1 PUSH1 0x1B DUP2 MSTORE PUSH1 0x20 ADD PUSH32 0x524543495049454E545F57494E5F44454C41595F454C41505345440000000000 DUP2 MSTORE POP SWAP6 POP SWAP6 POP SWAP6 POP POP POP POP PUSH2 0x1935 JUMP JUMPDEST PUSH1 0x0 DUP2 PUSH1 0x40 MLOAD DUP1 PUSH1 0x40 ADD PUSH1 0x40 MSTORE DUP1 PUSH1 0x14 DUP2 MSTORE PUSH1 0x20 ADD PUSH20 0x149150D2541251539517D5D25397D313D0D2D151 PUSH1 0x62 SHL DUP2 MSTORE POP SWAP6 POP SWAP6 POP SWAP6 POP POP POP POP PUSH2 0x1935 JUMP JUMPDEST PUSH1 0x4 DUP3 ADD SLOAD PUSH1 0x1 PUSH1 0x1 PUSH1 0x40 SHL SUB AND TIMESTAMP LT PUSH2 0x18F6 JUMPI PUSH1 0x1 PUSH1 0x0 PUSH1 0x40 MLOAD DUP1 PUSH1 0x40 ADD PUSH1 0x40 MSTORE DUP1 PUSH1 0x12 DUP2 MSTORE PUSH1 0x20 ADD PUSH18 0x1156141254915117D553949154D3D3159151 PUSH1 0x72 SHL DUP2 MSTORE POP SWAP5 POP SWAP5 POP SWAP5 POP POP POP PUSH2 0x1935 JUMP JUMPDEST POP PUSH1 0x4 ADD SLOAD PUSH1 0x40 DUP1 MLOAD DUP1 DUP3 ADD SWAP1 SWAP2 MSTORE PUSH1 0xF DUP2 MSTORE PUSH15 0x1393D517D6515517D1561412549151 PUSH1 0x8A SHL PUSH1 0x20 DUP3 ADD MSTORE PUSH1 0x0 SWAP5 POP PUSH1 0x1 PUSH1 0x1 PUSH1 0x40 SHL SUB SWAP1 SWAP2 AND SWAP3 POP SWAP1 POP JUMPDEST SWAP2 SWAP4 SWAP1 SWAP3 POP JUMP JUMPDEST PUSH2 0x1944 PUSH2 0x2EC2 JUMP JUMPDEST PUSH2 0x194C PUSH2 0x2F76 JUMP JUMPDEST JUMP JUMPDEST CALLER PUSH1 0x0 SWAP1 DUP2 MSTORE PUSH1 0xA PUSH1 0x20 MSTORE PUSH1 0x40 DUP2 KECCAK256 SLOAD PUSH1 0xFF AND PUSH2 0x197E JUMPI PUSH1 0x40 MLOAD PUSH4 0x61968EBB PUSH1 0xE1 SHL DUP2 MSTORE PUSH1 0x4 ADD PUSH1 0x40 MLOAD DUP1 SWAP2 SUB SWAP1 REVERT JUMPDEST PUSH2 0x1986 PUSH2 0x2EF4 JUMP JUMPDEST PUSH2 0x198E PUSH2 0x2F10 JUMP JUMPDEST PUSH1 0x1 PUSH1 0x1 PUSH1 0xA0 SHL SUB DUP9 AND PUSH2 0x19B5 JUMPI PUSH1 0x40 MLOAD PUSH4 0xE6C4247B PUSH1 0xE0 SHL DUP2 MSTORE PUSH1 0x4 ADD PUSH1 0x40 MLOAD DUP1 SWAP2 SUB SWAP1 REVERT JUMPDEST PUSH1 0x1 PUSH1 0x1 PUSH1 0xA0 SHL SUB DUP8 AND PUSH1 0x0 SWAP1 DUP2 MSTORE PUSH1 0x9 PUSH1 0x20 MSTORE PUSH1 0x40 SWAP1 KECCAK256 SLOAD PUSH1 0xFF AND PUSH2 0x19EE JUMPI PUSH1 0x40 MLOAD PUSH4 0x350B9441 PUSH1 0xE1 SHL DUP2 MSTORE PUSH1 0x4 ADD PUSH1 0x40 MLOAD DUP1 SWAP2 SUB SWAP1 REVERT JUMPDEST DUP6 PUSH1 0x0 SUB PUSH2 0x1A0F JUMPI PUSH1 0x40 MLOAD PUSH4 0x617AB12D PUSH1 0xE1 SHL DUP2 MSTORE PUSH1 0x4 ADD PUSH1 0x40 MLOAD DUP1 SWAP2 SUB SWAP1 REVERT JUMPDEST PUSH1 0x0 PUSH1 0x6 SLOAD GT DUP1 ISZERO PUSH2 0x1A22 JUMPI POP PUSH1 0x6 SLOAD DUP7 GT JUMPDEST ISZERO PUSH2 0x1A40 JUMPI PUSH1 0x40 MLOAD PUSH4 0x172BD6A1 PUSH1 0xE3 SHL DUP2 MSTORE PUSH1 0x4 ADD PUSH1 0x40 MLOAD DUP1 SWAP2 SUB SWAP1 REVERT JUMPDEST PUSH3 0x15180 DUP3 LT DUP1 PUSH2 0x1A53 JUMPI POP PUSH3 0x76A700 DUP3 GT JUMPDEST ISZERO PUSH2 0x1A71 JUMPI PUSH1 0x40 MLOAD PUSH4 0x76166401 PUSH1 0xE0 SHL DUP2 MSTORE PUSH1 0x4 ADD PUSH1 0x40 MLOAD DUP1 SWAP2 SUB SWAP1 REVERT JUMPDEST PUSH1 0x0 PUSH2 0x1A7D DUP4 TIMESTAMP PUSH2 0x3DAA JUMP JUMPDEST SWAP1 POP PUSH1 0x0 PUSH2 0x1A8C DUP11 DUP11 DUP11 PUSH2 0x2FD0 JUMP JUMPDEST PUSH1 0x5 DUP1 SLOAD SWAP2 SWAP3 POP PUSH1 0x0 PUSH2 0x1A9E DUP4 PUSH2 0x3DD3 JUMP JUMPDEST SWAP2 SWAP1 POP SSTORE SWAP3 POP PUSH1 0x40 MLOAD DUP1 PUSH2 0x160 ADD PUSH1 0x40 MSTORE DUP1 DUP12 PUSH1 0x1 PUSH1 0x1 PUSH1 0xA0 SHL SUB AND DUP2 MSTORE PUSH1 0x20 ADD DUP11 PUSH1 0x1 PUSH1 0x1 PUSH1 0xA0 SHL SUB AND DUP2 MSTORE PUSH1 0x20 ADD DUP10 DUP2 MSTORE PUSH1 0x20 ADD DUP9 DUP2 MSTORE PUSH1 0x20 ADD DUP4 PUSH1 0x1 PUSH1 0x1 PUSH1 0x40 SHL SUB AND DUP2 MSTORE PUSH1 0x20 ADD PUSH1 0x0 ISZERO ISZERO DUP2 MSTORE PUSH1 0x20 ADD PUSH1 0x0 ISZERO ISZERO DUP2 MSTORE PUSH1 0x20 ADD PUSH1 0x1 ISZERO ISZERO DUP2 MSTORE PUSH1 0x20 ADD DUP8 DUP2 MSTORE PUSH1 0x20 ADD PUSH1 0x0 PUSH1 0x1 PUSH1 0x1 PUSH1 0x40 SHL SUB AND DUP2 MSTORE PUSH1 0x20 ADD PUSH1 0x0 PUSH1 0xFF AND DUP2 MSTORE POP PUSH1 0xC PUSH1 0x0 DUP6 DUP2 MSTORE PUSH1 0x20 ADD SWAP1 DUP2 MSTORE PUSH1 0x20 ADD PUSH1 0x0 KECCAK256 PUSH1 0x0 DUP3 ADD MLOAD DUP2 PUSH1 0x0 ADD PUSH1 0x0 PUSH2 0x100 EXP DUP2 SLOAD DUP2 PUSH1 0x1 PUSH1 0x1 PUSH1 0xA0 SHL SUB MUL NOT AND SWAP1 DUP4 PUSH1 0x1 PUSH1 0x1 PUSH1 0xA0 SHL SUB AND MUL OR SWAP1 SSTORE POP PUSH1 0x20 DUP3 ADD MLOAD DUP2 PUSH1 0x1 ADD PUSH1 0x0 PUSH2 0x100 EXP DUP2 SLOAD DUP2 PUSH1 0x1 PUSH1 0x1 PUSH1 0xA0 SHL SUB MUL NOT AND SWAP1 DUP4 PUSH1 0x1 PUSH1 0x1 PUSH1 0xA0 SHL SUB AND MUL OR SWAP1 SSTORE POP PUSH1 0x40 DUP3 ADD MLOAD DUP2 PUSH1 0x2 ADD SSTORE PUSH1 0x60 DUP3 ADD MLOAD DUP2 PUSH1 0x3 ADD SSTORE PUSH1 0x80 DUP3 ADD MLOAD DUP2 PUSH1 0x4 ADD PUSH1 0x0 PUSH2 0x100 EXP DUP2 SLOAD DUP2 PUSH1 0x1 PUSH1 0x1 PUSH1 0x40 SHL SUB MUL NOT AND SWAP1 DUP4 PUSH1 0x1 PUSH1 0x1 PUSH1 0x40 SHL SUB AND MUL OR SWAP1 SSTORE POP PUSH1 0xA0 DUP3 ADD MLOAD DUP2 PUSH1 0x4 ADD PUSH1 0x8 PUSH2 0x100 EXP DUP2 SLOAD DUP2 PUSH1 0xFF MUL NOT AND SWAP1 DUP4 ISZERO ISZERO MUL OR SWAP1 SSTORE POP PUSH1 0xC0 DUP3 ADD MLOAD DUP2 PUSH1 0x4 ADD PUSH1 0x9 PUSH2 0x100 EXP DUP2 SLOAD DUP2 PUSH1 0xFF MUL NOT AND SWAP1 DUP4 ISZERO ISZERO MUL OR SWAP1 SSTORE POP PUSH1 0xE0 DUP3 ADD MLOAD DUP2 PUSH1 0x4 ADD PUSH1 0xA PUSH2 0x100 EXP DUP2 SLOAD DUP2 PUSH1 0xFF MUL NOT AND SWAP1 DUP4 ISZERO ISZERO MUL OR SWAP1 SSTORE POP PUSH2 0x100 DUP3 ADD MLOAD DUP2 PUSH1 0x5 ADD SSTORE PUSH2 0x120 DUP3 ADD MLOAD DUP2 PUSH1 0x6 ADD PUSH1 0x0 PUSH2 0x100 EXP DUP2 SLOAD DUP2 PUSH1 0x1 PUSH1 0x1 PUSH1 0x40 SHL SUB MUL NOT AND SWAP1 DUP4 PUSH1 0x1 PUSH1 0x1 PUSH1 0x40 SHL SUB AND MUL OR SWAP1 SSTORE POP PUSH2 0x140 DUP3 ADD MLOAD DUP2 PUSH1 0x6 ADD PUSH1 0x8 PUSH2 0x100 EXP DUP2 SLOAD DUP2 PUSH1 0xFF MUL NOT AND SWAP1 DUP4 PUSH1 0xFF AND MUL OR SWAP1 SSTORE POP SWAP1 POP POP PUSH1 0xD PUSH1 0x0 DUP9 DUP2 MSTORE PUSH1 0x20 ADD SWAP1 DUP2 MSTORE PUSH1 0x20 ADD PUSH1 0x0 KECCAK256 DUP4 SWAP1 DUP1 PUSH1 0x1 DUP2 SLOAD ADD DUP1 DUP3 SSTORE DUP1 SWAP2 POP POP PUSH1 0x1 SWAP1 SUB SWAP1 PUSH1 0x0 MSTORE PUSH1 0x20 PUSH1 0x0 KECCAK256 ADD PUSH1 0x0 SWAP1 SWAP2 SWAP1 SWAP2 SWAP1 SWAP2 POP SSTORE DUP9 PUSH1 0x1 PUSH1 0x1 PUSH1 0xA0 SHL SUB AND DUP11 PUSH1 0x1 PUSH1 0x1 PUSH1 0xA0 SHL SUB AND DUP5 PUSH32 0x3775B77BBA38D015BB2DFD1073B2BB6BEEAD98572E12F92E2BE7BE999FB249EE DUP11 DUP13 DUP7 DUP13 DUP13 PUSH1 0x40 MLOAD PUSH2 0x1D32 SWAP6 SWAP5 SWAP4 SWAP3 SWAP2 SWAP1 SWAP5 DUP6 MSTORE PUSH1 0x20 DUP6 ADD SWAP4 SWAP1 SWAP4 MSTORE PUSH1 0x40 DUP5 ADD SWAP2 SWAP1 SWAP2 MSTORE PUSH1 0x60 DUP4 ADD MSTORE PUSH1 0x80 DUP3 ADD MSTORE PUSH1 0xA0 ADD SWAP1 JUMP JUMPDEST PUSH1 0x40 MLOAD DUP1 SWAP2 SUB SWAP1 LOG4 POP POP PUSH2 0x1D53 PUSH1 0x1 PUSH1 0x0 DUP1 MLOAD PUSH1 0x20 PUSH2 0x3E92 DUP4 CODECOPY DUP2 MLOAD SWAP2 MSTORE SSTORE JUMP JUMPDEST SWAP8 SWAP7 POP POP POP POP POP POP POP JUMP JUMPDEST PUSH2 0x1D66 PUSH2 0x3057 JUMP JUMPDEST PUSH2 0x1D6F DUP3 PUSH2 0x30FC JUMP JUMPDEST PUSH2 0x1D79 DUP3 DUP3 PUSH2 0x3140 JUMP JUMPDEST POP POP JUMP JUMPDEST PUSH1 0x0 PUSH2 0x1D87 PUSH2 0x31FD JUMP JUMPDEST POP PUSH1 0x0 DUP1 MLOAD PUSH1 0x20 PUSH2 0x3E52 DUP4 CODECOPY DUP2 MLOAD SWAP2 MSTORE SWAP1 JUMP JUMPDEST PUSH1 0x0 PUSH2 0x1DA4 PUSH2 0x3246 JUMP JUMPDEST DUP1 SLOAD SWAP1 SWAP2 POP PUSH1 0xFF PUSH1 0x1 PUSH1 0x40 SHL DUP3 DIV AND ISZERO SWAP1 PUSH1 0x1 PUSH1 0x1 PUSH1 0x40 SHL SUB AND PUSH1 0x0 DUP2 ISZERO DUP1 ISZERO PUSH2 0x1DCB JUMPI POP DUP3 JUMPDEST SWAP1 POP PUSH1 0x0 DUP3 PUSH1 0x1 PUSH1 0x1 PUSH1 0x40 SHL SUB AND PUSH1 0x1 EQ DUP1 ISZERO PUSH2 0x1DE7 JUMPI POP ADDRESS EXTCODESIZE ISZERO JUMPDEST SWAP1 POP DUP2 ISZERO DUP1 ISZERO PUSH2 0x1DF5 JUMPI POP DUP1 ISZERO JUMPDEST ISZERO PUSH2 0x1E13 JUMPI PUSH1 0x40 MLOAD PUSH4 0xF92EE8A9 PUSH1 0xE0 SHL DUP2 MSTORE PUSH1 0x4 ADD PUSH1 0x40 MLOAD DUP1 SWAP2 SUB SWAP1 REVERT JUMPDEST DUP5 SLOAD PUSH8 0xFFFFFFFFFFFFFFFF NOT AND PUSH1 0x1 OR DUP6 SSTORE DUP4 ISZERO PUSH2 0x1E3D JUMPI DUP5 SLOAD PUSH1 0xFF PUSH1 0x40 SHL NOT AND PUSH1 0x1 PUSH1 0x40 SHL OR DUP6 SSTORE JUMPDEST PUSH2 0x1E46 CALLER PUSH2 0x326F JUMP JUMPDEST PUSH2 0x1E4E PUSH2 0x3280 JUMP JUMPDEST PUSH2 0x1E56 PUSH2 0x3280 JUMP JUMPDEST PUSH1 0x1 PUSH1 0x1 PUSH1 0xA0 SHL SUB DUP11 AND ISZERO DUP1 PUSH2 0x1E73 JUMPI POP PUSH1 0x1 PUSH1 0x1 PUSH1 0xA0 SHL SUB DUP10 AND ISZERO JUMPDEST ISZERO PUSH2 0x1E91 JUMPI PUSH1 0x40 MLOAD PUSH4 0xE6C4247B PUSH1 0xE0 SHL DUP2 MSTORE PUSH1 0x4 ADD PUSH1 0x40 MLOAD DUP1 SWAP2 SUB SWAP1 REVERT JUMPDEST PUSH2 0x1F4 DUP9 GT ISZERO PUSH2 0x1EB4 JUMPI PUSH1 0x40 MLOAD PUSH4 0x2BE70877 PUSH1 0xE2 SHL DUP2 MSTORE PUSH1 0x4 ADD PUSH1 0x40 MLOAD DUP1 SWAP2 SUB SWAP1 REVERT JUMPDEST PUSH1 0x0 DUP1 SLOAD PUSH1 0x1 PUSH1 0x1 PUSH1 0xA0 SHL SUB DUP1 DUP14 AND PUSH1 0x1 PUSH1 0x1 PUSH1 0xA0 SHL SUB NOT SWAP3 DUP4 AND OR SWAP1 SWAP3 SSTORE PUSH1 0x1 DUP1 SLOAD DUP13 DUP5 AND SWAP3 AND SWAP2 SWAP1 SWAP2 OR SWAP1 SSTORE PUSH1 0x2 DUP10 SWAP1 SSTORE PUSH1 0x3 DUP9 SWAP1 SSTORE PUSH3 0x3F480 PUSH1 0x4 SSTORE DUP7 AND ISZERO PUSH2 0x1F1E JUMPI PUSH1 0x1 PUSH1 0x1 PUSH1 0xA0 SHL SUB DUP7 AND PUSH1 0x0 SWAP1 DUP2 MSTORE PUSH1 0xA PUSH1 0x20 MSTORE PUSH1 0x40 SWAP1 KECCAK256 DUP1 SLOAD PUSH1 0xFF NOT AND PUSH1 0x1 OR SWAP1 SSTORE JUMPDEST CALLER PUSH1 0x0 SWAP1 DUP2 MSTORE PUSH1 0xA PUSH1 0x20 MSTORE PUSH1 0x40 SWAP1 KECCAK256 DUP1 SLOAD PUSH1 0xFF NOT AND PUSH1 0x1 OR SWAP1 SSTORE DUP4 ISZERO PUSH2 0x1F7E JUMPI DUP5 SLOAD PUSH1 0xFF PUSH1 0x40 SHL NOT AND DUP6 SSTORE PUSH1 0x40 MLOAD PUSH1 0x1 DUP2 MSTORE PUSH32 0xC7F505B2F371AE2175EE4913F4499E1F2633A7B5936321EED1CDAEB6115181D2 SWAP1 PUSH1 0x20 ADD PUSH1 0x40 MLOAD DUP1 SWAP2 SUB SWAP1 LOG1 JUMPDEST POP POP POP POP POP POP POP POP POP POP JUMP JUMPDEST PUSH2 0x1F92 PUSH2 0x2EC2 JUMP JUMPDEST PUSH1 0x1 PUSH1 0x1 PUSH1 0xA0 SHL SUB DUP2 AND PUSH2 0x1FB9 JUMPI PUSH1 0x40 MLOAD PUSH4 0xE6C4247B PUSH1 0xE0 SHL DUP2 MSTORE PUSH1 0x4 ADD PUSH1 0x40 MLOAD DUP1 SWAP2 SUB SWAP1 REVERT JUMPDEST PUSH1 0x0 DUP1 SLOAD PUSH1 0x1 PUSH1 0x1 PUSH1 0xA0 SHL SUB NOT AND PUSH1 0x1 PUSH1 0x1 PUSH1 0xA0 SHL SUB SWAP3 SWAP1 SWAP3 AND SWAP2 SWAP1 SWAP2 OR SWAP1 SSTORE JUMP JUMPDEST PUSH1 0x0 SLOAD PUSH1 0x1 PUSH1 0x1 PUSH1 0xA0 SHL SUB AND CALLER EQ PUSH2 0x2006 JUMPI PUSH1 0x40 MLOAD PUSH4 0x62DF0545 PUSH1 0xE0 SHL DUP2 MSTORE PUSH1 0x4 ADD PUSH1 0x40 MLOAD DUP1 SWAP2 SUB SWAP1 REVERT JUMPDEST PUSH2 0x200E PUSH2 0x2EF4 JUMP JUMPDEST PUSH2 0x2016 PUSH2 0x2F10 JUMP JUMPDEST PUSH1 0x0 DUP3 DUP2 MSTORE PUSH1 0xC PUSH1 0x20 MSTORE PUSH1 0x40 SWAP1 KECCAK256 DUP1 SLOAD PUSH1 0x1 PUSH1 0x1 PUSH1 0xA0 SHL SUB AND PUSH2 0x204C JUMPI PUSH1 0x40 MLOAD PUSH4 0xE6C4247B PUSH1 0xE0 SHL DUP2 MSTORE PUSH1 0x4 ADD PUSH1 0x40 MLOAD DUP1 SWAP2 SUB SWAP1 REVERT JUMPDEST PUSH1 0x4 DUP2 ADD SLOAD PUSH1 0x1 PUSH1 0x50 SHL SWAP1 DIV PUSH1 0xFF AND PUSH2 0x2078 JUMPI PUSH1 0x40 MLOAD PUSH4 0x7B54608D PUSH1 0xE1 SHL DUP2 MSTORE PUSH1 0x4 ADD PUSH1 0x40 MLOAD DUP1 SWAP2 SUB SWAP1 REVERT JUMPDEST PUSH1 0x4 DUP2 ADD SLOAD PUSH1 0x1 PUSH1 0x40 SHL SWAP1 DIV PUSH1 0xFF AND DUP1 PUSH2 0x209D JUMPI POP PUSH1 0x4 DUP2 ADD SLOAD PUSH1 0x1 PUSH1 0x48 SHL SWAP1 DIV PUSH1 0xFF AND JUMPDEST ISZERO PUSH2 0x20BA JUMPI PUSH1 0x40 MLOAD PUSH3 0x560FF9 PUSH1 0xE8 SHL DUP2 MSTORE PUSH1 0x4 ADD PUSH1 0x40 MLOAD DUP1 SWAP2 SUB SWAP1 REVERT JUMPDEST PUSH1 0x6 DUP2 ADD SLOAD PUSH1 0x1 PUSH1 0x1 PUSH1 0x40 SHL SUB AND ISZERO PUSH2 0x20E5 JUMPI PUSH1 0x40 MLOAD PUSH3 0x560FF9 PUSH1 0xE8 SHL DUP2 MSTORE PUSH1 0x4 ADD PUSH1 0x40 MLOAD DUP1 SWAP2 SUB SWAP1 REVERT JUMPDEST PUSH1 0xFF DUP3 AND PUSH1 0x1 EQ DUP1 ISZERO SWAP1 PUSH2 0x20FD JUMPI POP PUSH1 0xFF DUP3 AND PUSH1 0x2 EQ ISZERO JUMPDEST ISZERO PUSH2 0x211B JUMPI PUSH1 0x40 MLOAD PUSH4 0x11216739 PUSH1 0xE2 SHL DUP2 MSTORE PUSH1 0x4 ADD PUSH1 0x40 MLOAD DUP1 SWAP2 SUB SWAP1 REVERT JUMPDEST PUSH1 0x6 DUP2 ADD DUP1 SLOAD TIMESTAMP PUSH1 0x1 PUSH1 0x1 PUSH1 0x40 SHL SUB AND PUSH9 0xFFFFFFFFFFFFFFFFFF NOT SWAP1 SWAP2 AND DUP2 OR PUSH1 0x1 PUSH1 0x40 SHL PUSH1 0xFF DUP7 AND SWAP1 DUP2 MUL SWAP2 SWAP1 SWAP2 OR SWAP1 SWAP3 SSTORE PUSH1 0x40 DUP1 MLOAD SWAP3 DUP4 MSTORE PUSH1 0x20 DUP4 ADD SWAP2 SWAP1 SWAP2 MSTORE DUP5 SWAP2 PUSH32 0x47B7214D9C9105ED84391E7089C2E9F971C474CA3038F6B985704703800EF8BB SWAP2 ADD PUSH1 0x40 MLOAD DUP1 SWAP2 SUB SWAP1 LOG2 POP PUSH2 0x1D79 PUSH1 0x1 PUSH1 0x0 DUP1 MLOAD PUSH1 0x20 PUSH2 0x3E92 DUP4 CODECOPY DUP2 MLOAD SWAP2 MSTORE SSTORE JUMP JUMPDEST PUSH2 0x21AA PUSH2 0x2EC2 JUMP JUMPDEST PUSH2 0x194C PUSH1 0x0 PUSH2 0x3288 JUMP JUMPDEST CALLER DUP1 PUSH2 0x21BE PUSH2 0x2B28 JUMP JUMPDEST PUSH1 0x1 PUSH1 0x1 PUSH1 0xA0 SHL SUB AND EQ PUSH2 0x21F5 JUMPI PUSH1 0x40 MLOAD PUSH4 0x118CDAA7 PUSH1 0xE0 SHL DUP2 MSTORE PUSH1 0x1 PUSH1 0x1 PUSH1 0xA0 SHL SUB DUP3 AND PUSH1 0x4 DUP3 ADD MSTORE PUSH1 0x24 ADD JUMPDEST PUSH1 0x40 MLOAD DUP1 SWAP2 SUB SWAP1 REVERT JUMPDEST PUSH2 0x21FE DUP2 PUSH2 0x3288 JUMP JUMPDEST POP JUMP JUMPDEST PUSH2 0x2209 PUSH2 0x2EC2 JUMP JUMPDEST PUSH2 0x194C PUSH2 0x32C0 JUMP JUMPDEST PUSH1 0x0 PUSH2 0x221D DUP4 DUP4 PUSH2 0x3309 JUMP JUMPDEST SWAP1 POP JUMPDEST SWAP3 SWAP2 POP POP JUMP JUMPDEST PUSH1 0x0 DUP1 PUSH32 0x9016D09D72D40FDAE2FD8CEAC6B6234C7706214FD39C1CD1E609A0528C199300 JUMPDEST SLOAD PUSH1 0x1 PUSH1 0x1 PUSH1 0xA0 SHL SUB AND SWAP3 SWAP2 POP POP JUMP JUMPDEST PUSH2 0x2263 PUSH2 0x2EC2 JUMP JUMPDEST PUSH1 0x7 DUP1 SLOAD PUSH1 0xFF NOT AND DUP3 ISZERO ISZERO SWAP1 DUP2 OR SWAP1 SWAP2 SSTORE PUSH1 0x40 MLOAD SWAP1 DUP2 MSTORE PUSH32 0xF1383186E64E6ECD25E81CAACE741D4727378628ECE811B6F5B80A9B7FCEBB7B SWAP1 PUSH1 0x20 ADD JUMPDEST PUSH1 0x40 MLOAD DUP1 SWAP2 SUB SWAP1 LOG1 POP JUMP JUMPDEST PUSH2 0x22B3 PUSH2 0x2EC2 JUMP JUMPDEST PUSH1 0x1 PUSH1 0x1 PUSH1 0xA0 SHL SUB DUP3 AND PUSH1 0x0 DUP2 DUP2 MSTORE PUSH1 0x8 PUSH1 0x20 SWAP1 DUP2 MSTORE PUSH1 0x40 SWAP2 DUP3 SWAP1 KECCAK256 DUP1 SLOAD PUSH1 0xFF NOT AND DUP6 ISZERO ISZERO SWAP1 DUP2 OR SWAP1 SWAP2 SSTORE SWAP2 MLOAD SWAP2 DUP3 MSTORE PUSH32 0x69E34A174B4A0CCE59950C4C852317E9797BDCAE125FBF8B5DD8B4311384412F SWAP2 ADD JUMPDEST PUSH1 0x40 MLOAD DUP1 SWAP2 SUB SWAP1 LOG2 POP POP JUMP JUMPDEST CALLER PUSH1 0x0 SWAP1 DUP2 MSTORE PUSH1 0xA PUSH1 0x20 MSTORE PUSH1 0x40 DUP2 KECCAK256 SLOAD PUSH1 0xFF AND PUSH2 0x2343 JUMPI PUSH1 0x40 MLOAD PUSH4 0x61968EBB PUSH1 0xE1 SHL DUP2 MSTORE PUSH1 0x4 ADD PUSH1 0x40 MLOAD DUP1 SWAP2 SUB SWAP1 REVERT JUMPDEST PUSH2 0x234B PUSH2 0x2EF4 JUMP JUMPDEST PUSH2 0x2353 PUSH2 0x2F10 JUMP JUMPDEST PUSH1 0x1 PUSH1 0x1 PUSH1 0xA0 SHL SUB DUP6 AND PUSH2 0x237A JUMPI PUSH1 0x40 MLOAD PUSH4 0xE6C4247B PUSH1 0xE0 SHL DUP2 MSTORE PUSH1 0x4 ADD PUSH1 0x40 MLOAD DUP1 SWAP2 SUB SWAP1 REVERT JUMPDEST PUSH1 0x1 PUSH1 0x1 PUSH1 0xA0 SHL SUB DUP5 AND PUSH1 0x0 SWAP1 DUP2 MSTORE PUSH1 0x9 PUSH1 0x20 MSTORE PUSH1 0x40 SWAP1 KECCAK256 SLOAD PUSH1 0xFF AND PUSH2 0x23B3 JUMPI PUSH1 0x40 MLOAD PUSH4 0x350B9441 PUSH1 0xE1 SHL DUP2 MSTORE PUSH1 0x4 ADD PUSH1 0x40 MLOAD DUP1 SWAP2 SUB SWAP1 REVERT JUMPDEST DUP3 PUSH1 0x0 SUB PUSH2 0x23D4 JUMPI PUSH1 0x40 MLOAD PUSH4 0x617AB12D PUSH1 0xE1 SHL DUP2 MSTORE PUSH1 0x4 ADD PUSH1 0x40 MLOAD DUP1 SWAP2 SUB SWAP1 REVERT JUMPDEST PUSH1 0x0 PUSH1 0x6 SLOAD GT DUP1 ISZERO PUSH2 0x23E7 JUMPI POP PUSH1 0x6 SLOAD DUP4 GT JUMPDEST ISZERO PUSH2 0x2405 JUMPI PUSH1 0x40 MLOAD PUSH4 0x172BD6A1 PUSH1 0xE3 SHL DUP2 MSTORE PUSH1 0x4 ADD PUSH1 0x40 MLOAD DUP1 SWAP2 SUB SWAP1 REVERT JUMPDEST PUSH1 0x0 PUSH1 0x4 SLOAD TIMESTAMP PUSH2 0x2415 SWAP2 SWAP1 PUSH2 0x3DAA JUMP JUMPDEST SWAP1 POP PUSH1 0x0 PUSH2 0x2424 DUP8 DUP8 DUP8 PUSH2 0x2FD0 JUMP JUMPDEST PUSH1 0x5 DUP1 SLOAD SWAP2 SWAP3 POP PUSH1 0x0 PUSH2 0x2436 DUP4 PUSH2 0x3DD3 JUMP JUMPDEST SWAP2 SWAP1 POP SSTORE SWAP3 POP PUSH1 0x40 MLOAD DUP1 PUSH2 0x160 ADD PUSH1 0x40 MSTORE DUP1 DUP9 PUSH1 0x1 PUSH1 0x1 PUSH1 0xA0 SHL SUB AND DUP2 MSTORE PUSH1 0x20 ADD DUP8 PUSH1 0x1 PUSH1 0x1 PUSH1 0xA0 SHL SUB AND DUP2 MSTORE PUSH1 0x20 ADD DUP7 DUP2 MSTORE PUSH1 0x20 ADD DUP6 DUP2 MSTORE PUSH1 0x20 ADD DUP4 PUSH1 0x1 PUSH1 0x1 PUSH1 0x40 SHL SUB AND DUP2 MSTORE PUSH1 0x20 ADD PUSH1 0x0 ISZERO ISZERO DUP2 MSTORE PUSH1 0x20 ADD PUSH1 0x0 ISZERO ISZERO DUP2 MSTORE PUSH1 0x20 ADD PUSH1 0x0 ISZERO ISZERO DUP2 MSTORE PUSH1 0x20 ADD PUSH1 0x0 DUP1 SHL DUP2 MSTORE PUSH1 0x20 ADD PUSH1 0x0 PUSH1 0x1 PUSH1 0x1 PUSH1 0x40 SHL SUB AND DUP2 MSTORE PUSH1 0x20 ADD PUSH1 0x0 PUSH1 0xFF AND DUP2 MSTORE POP PUSH1 0xC PUSH1 0x0 DUP6 DUP2 MSTORE PUSH1 0x20 ADD SWAP1 DUP2 MSTORE PUSH1 0x20 ADD PUSH1 0x0 KECCAK256 PUSH1 0x0 DUP3 ADD MLOAD DUP2 PUSH1 0x0 ADD PUSH1 0x0 PUSH2 0x100 EXP DUP2 SLOAD DUP2 PUSH1 0x1 PUSH1 0x1 PUSH1 0xA0 SHL SUB MUL NOT AND SWAP1 DUP4 PUSH1 0x1 PUSH1 0x1 PUSH1 0xA0 SHL SUB AND MUL OR SWAP1 SSTORE POP PUSH1 0x20 DUP3 ADD MLOAD DUP2 PUSH1 0x1 ADD PUSH1 0x0 PUSH2 0x100 EXP DUP2 SLOAD DUP2 PUSH1 0x1 PUSH1 0x1 PUSH1 0xA0 SHL SUB MUL NOT AND SWAP1 DUP4 PUSH1 0x1 PUSH1 0x1 PUSH1 0xA0 SHL SUB AND MUL OR SWAP1 SSTORE POP PUSH1 0x40 DUP3 ADD MLOAD DUP2 PUSH1 0x2 ADD SSTORE PUSH1 0x60 DUP3 ADD MLOAD DUP2 PUSH1 0x3 ADD SSTORE PUSH1 0x80 DUP3 ADD MLOAD DUP2 PUSH1 0x4 ADD PUSH1 0x0 PUSH2 0x100 EXP DUP2 SLOAD DUP2 PUSH1 0x1 PUSH1 0x1 PUSH1 0x40 SHL SUB MUL NOT AND SWAP1 DUP4 PUSH1 0x1 PUSH1 0x1 PUSH1 0x40 SHL SUB AND MUL OR SWAP1 SSTORE POP PUSH1 0xA0 DUP3 ADD MLOAD DUP2 PUSH1 0x4 ADD PUSH1 0x8 PUSH2 0x100 EXP DUP2 SLOAD DUP2 PUSH1 0xFF MUL NOT AND SWAP1 DUP4 ISZERO ISZERO MUL OR SWAP1 SSTORE POP PUSH1 0xC0 DUP3 ADD MLOAD DUP2 PUSH1 0x4 ADD PUSH1 0x9 PUSH2 0x100 EXP DUP2 SLOAD DUP2 PUSH1 0xFF MUL NOT AND SWAP1 DUP4 ISZERO ISZERO MUL OR SWAP1 SSTORE POP PUSH1 0xE0 DUP3 ADD MLOAD DUP2 PUSH1 0x4 ADD PUSH1 0xA PUSH2 0x100 EXP DUP2 SLOAD DUP2 PUSH1 0xFF MUL NOT AND SWAP1 DUP4 ISZERO ISZERO MUL OR SWAP1 SSTORE POP PUSH2 0x100 DUP3 ADD MLOAD DUP2 PUSH1 0x5 ADD SSTORE PUSH2 0x120 DUP3 ADD MLOAD DUP2 PUSH1 0x6 ADD PUSH1 0x0 PUSH2 0x100 EXP DUP2 SLOAD DUP2 PUSH1 0x1 PUSH1 0x1 PUSH1 0x40 SHL SUB MUL NOT AND SWAP1 DUP4 PUSH1 0x1 PUSH1 0x1 PUSH1 0x40 SHL SUB AND MUL OR SWAP1 SSTORE POP PUSH2 0x140 DUP3 ADD MLOAD DUP2 PUSH1 0x6 ADD PUSH1 0x8 PUSH2 0x100 EXP DUP2 SLOAD DUP2 PUSH1 0xFF MUL NOT AND SWAP1 DUP4 PUSH1 0xFF AND MUL OR SWAP1 SSTORE POP SWAP1 POP POP PUSH1 0xD PUSH1 0x0 DUP6 DUP2 MSTORE PUSH1 0x20 ADD SWAP1 DUP2 MSTORE PUSH1 0x20 ADD PUSH1 0x0 KECCAK256 DUP4 SWAP1 DUP1 PUSH1 0x1 DUP2 SLOAD ADD DUP1 DUP3 SSTORE DUP1 SWAP2 POP POP PUSH1 0x1 SWAP1 SUB SWAP1 PUSH1 0x0 MSTORE PUSH1 0x20 PUSH1 0x0 KECCAK256 ADD PUSH1 0x0 SWAP1 SWAP2 SWAP1 SWAP2 SWAP1 SWAP2 POP SSTORE DUP6 PUSH1 0x1 PUSH1 0x1 PUSH1 0xA0 SHL SUB AND DUP8 PUSH1 0x1 PUSH1 0x1 PUSH1 0xA0 SHL SUB AND DUP5 PUSH32 0x17C9E7375A9B150E63630537199AB5DCF734259F9CF8C51EF8C4EF00929664E6 DUP8 DUP10 DUP7 DUP9 PUSH1 0x40 MLOAD PUSH2 0x26CC SWAP5 SWAP4 SWAP3 SWAP2 SWAP1 SWAP4 DUP5 MSTORE PUSH1 0x20 DUP5 ADD SWAP3 SWAP1 SWAP3 MSTORE PUSH1 0x40 DUP4 ADD MSTORE PUSH1 0x1 PUSH1 0x1 PUSH1 0x40 SHL SUB AND PUSH1 0x60 DUP3 ADD MSTORE PUSH1 0x80 ADD SWAP1 JUMP JUMPDEST PUSH1 0x40 MLOAD DUP1 SWAP2 SUB SWAP1 LOG4 POP POP PUSH2 0x26ED PUSH1 0x1 PUSH1 0x0 DUP1 MLOAD PUSH1 0x20 PUSH2 0x3E92 DUP4 CODECOPY DUP2 MLOAD SWAP2 MSTORE SSTORE JUMP JUMPDEST SWAP5 SWAP4 POP POP POP POP JUMP JUMPDEST PUSH2 0x26FD PUSH2 0x2EC2 JUMP JUMPDEST PUSH1 0x40 MLOAD PUSH4 0x70A08231 PUSH1 0xE0 SHL DUP2 MSTORE ADDRESS PUSH1 0x4 DUP3 ADD MSTORE PUSH1 0x0 SWAP1 PUSH1 0x1 PUSH1 0x1 PUSH1 0xA0 SHL SUB DUP5 AND SWAP1 PUSH4 0x70A08231 SWAP1 PUSH1 0x24 ADD PUSH1 0x20 PUSH1 0x40 MLOAD DUP1 DUP4 SUB DUP2 DUP7 GAS STATICCALL ISZERO DUP1 ISZERO PUSH2 0x2744 JUMPI RETURNDATASIZE PUSH1 0x0 DUP1 RETURNDATACOPY RETURNDATASIZE PUSH1 0x0 REVERT JUMPDEST POP POP POP POP PUSH1 0x40 MLOAD RETURNDATASIZE PUSH1 0x1F NOT PUSH1 0x1F DUP3 ADD AND DUP3 ADD DUP1 PUSH1 0x40 MSTORE POP DUP2 ADD SWAP1 PUSH2 0x2768 SWAP2 SWAP1 PUSH2 0x3DFF JUMP JUMPDEST PUSH1 0x1 PUSH1 0x1 PUSH1 0xA0 SHL SUB DUP5 AND PUSH1 0x0 SWAP1 DUP2 MSTORE PUSH1 0xB PUSH1 0x20 MSTORE PUSH1 0x40 SWAP1 KECCAK256 SLOAD SWAP1 SWAP2 POP DUP1 DUP3 LT ISZERO PUSH2 0x27A5 JUMPI PUSH1 0x40 MLOAD PUSH4 0x10DB3EDF PUSH1 0xE0 SHL DUP2 MSTORE PUSH1 0x4 ADD PUSH1 0x40 MLOAD DUP1 SWAP2 SUB SWAP1 REVERT JUMPDEST PUSH1 0x0 PUSH2 0x27B1 DUP3 DUP5 PUSH2 0x3DEC JUMP JUMPDEST SWAP1 POP DUP1 DUP5 GT ISZERO PUSH2 0x27D4 JUMPI PUSH1 0x40 MLOAD PUSH4 0x10DB3EDF PUSH1 0xE0 SHL DUP2 MSTORE PUSH1 0x4 ADD PUSH1 0x40 MLOAD DUP1 SWAP2 SUB SWAP1 REVERT JUMPDEST PUSH2 0x15F3 PUSH2 0x27DF PUSH2 0x2226 JUMP JUMPDEST PUSH1 0x1 PUSH1 0x1 PUSH1 0xA0 SHL SUB DUP8 AND SWAP1 DUP7 PUSH2 0x2F41 JUMP JUMPDEST PUSH1 0xD PUSH1 0x20 MSTORE DUP2 PUSH1 0x0 MSTORE PUSH1 0x40 PUSH1 0x0 KECCAK256 DUP2 DUP2 SLOAD DUP2 LT PUSH2 0x280C JUMPI PUSH1 0x0 DUP1 REVERT JUMPDEST SWAP1 PUSH1 0x0 MSTORE PUSH1 0x20 PUSH1 0x0 KECCAK256 ADD PUSH1 0x0 SWAP2 POP SWAP2 POP POP SLOAD DUP2 JUMP JUMPDEST PUSH2 0x2829 PUSH2 0x2EF4 JUMP JUMPDEST PUSH2 0x2831 PUSH2 0x2F10 JUMP JUMPDEST PUSH1 0x0 DUP2 DUP2 MSTORE PUSH1 0xC PUSH1 0x20 MSTORE PUSH1 0x40 SWAP1 KECCAK256 DUP1 SLOAD PUSH1 0x1 PUSH1 0x1 PUSH1 0xA0 SHL SUB AND PUSH2 0x2867 JUMPI PUSH1 0x40 MLOAD PUSH4 0xE6C4247B PUSH1 0xE0 SHL DUP2 MSTORE PUSH1 0x4 ADD PUSH1 0x40 MLOAD DUP1 SWAP2 SUB SWAP1 REVERT JUMPDEST PUSH1 0x4 DUP2 ADD SLOAD PUSH1 0x1 PUSH1 0x50 SHL SWAP1 DIV PUSH1 0xFF AND PUSH2 0x2893 JUMPI PUSH1 0x40 MLOAD PUSH4 0x7B54608D PUSH1 0xE1 SHL DUP2 MSTORE PUSH1 0x4 ADD PUSH1 0x40 MLOAD DUP1 SWAP2 SUB SWAP1 REVERT JUMPDEST PUSH1 0x4 DUP2 ADD SLOAD PUSH1 0x1 PUSH1 0x40 SHL SWAP1 DIV PUSH1 0xFF AND ISZERO PUSH2 0x28C0 JUMPI PUSH1 0x40 MLOAD PUSH4 0x704359DB PUSH1 0xE0 SHL DUP2 MSTORE PUSH1 0x4 ADD PUSH1 0x40 MLOAD DUP1 SWAP2 SUB SWAP1 REVERT JUMPDEST PUSH1 0x4 DUP2 ADD SLOAD PUSH1 0x1 PUSH1 0x48 SHL SWAP1 DIV PUSH1 0xFF AND ISZERO PUSH2 0x28ED JUMPI PUSH1 0x40 MLOAD PUSH4 0xA5E98273 PUSH1 0xE0 SHL DUP2 MSTORE PUSH1 0x4 ADD PUSH1 0x40 MLOAD DUP1 SWAP2 SUB SWAP1 REVERT JUMPDEST DUP1 SLOAD PUSH1 0x1 PUSH1 0x1 PUSH1 0xA0 SHL SUB AND CALLER EQ DUP1 ISZERO SWAP1 PUSH2 0x2917 JUMPI POP CALLER PUSH1 0x0 SWAP1 DUP2 MSTORE PUSH1 0xA PUSH1 0x20 MSTORE PUSH1 0x40 SWAP1 KECCAK256 SLOAD PUSH1 0xFF AND ISZERO JUMPDEST ISZERO PUSH2 0x2935 JUMPI PUSH1 0x40 MLOAD PUSH4 0xB2C3AA6B PUSH1 0xE0 SHL DUP2 MSTORE PUSH1 0x4 ADD PUSH1 0x40 MLOAD DUP1 SWAP2 SUB SWAP1 REVERT JUMPDEST PUSH1 0x6 DUP2 ADD SLOAD PUSH1 0x1 PUSH1 0x40 SHL SWAP1 DIV PUSH1 0xFF AND PUSH1 0x0 NOT DUP2 ADD ISZERO PUSH2 0x29E7 JUMPI PUSH1 0x1 NOT PUSH1 0xFF DUP3 AND ADD PUSH2 0x29A5 JUMPI PUSH1 0x6 DUP3 ADD SLOAD PUSH1 0x0 SWAP1 PUSH2 0x2979 SWAP1 PUSH3 0x93A80 SWAP1 PUSH1 0x1 PUSH1 0x1 PUSH1 0x40 SHL SUB AND PUSH2 0x3DAA JUMP JUMPDEST SWAP1 POP DUP1 TIMESTAMP LT ISZERO PUSH2 0x299F JUMPI PUSH1 0x40 MLOAD PUSH4 0x99BDA8ED PUSH1 0xE0 SHL DUP2 MSTORE PUSH1 0x4 DUP2 ADD DUP3 SWAP1 MSTORE PUSH1 0x24 ADD PUSH2 0x21EC JUMP JUMPDEST POP PUSH2 0x29E7 JUMP JUMPDEST PUSH1 0x4 DUP3 ADD SLOAD PUSH1 0x1 PUSH1 0x1 PUSH1 0x40 SHL SUB AND TIMESTAMP LT ISZERO PUSH2 0x29E7 JUMPI PUSH1 0x4 DUP3 DUP2 ADD SLOAD PUSH1 0x40 MLOAD PUSH4 0x99BDA8ED PUSH1 0xE0 SHL DUP2 MSTORE PUSH1 0x1 PUSH1 0x1 PUSH1 0x40 SHL SUB SWAP1 SWAP2 AND SWAP2 DUP2 ADD SWAP2 SWAP1 SWAP2 MSTORE PUSH1 0x24 ADD PUSH2 0x21EC JUMP JUMPDEST PUSH1 0x4 DUP3 ADD DUP1 SLOAD PUSH1 0xFF PUSH1 0x48 SHL NOT AND PUSH1 0x1 PUSH1 0x48 SHL OR SWAP1 SSTORE PUSH1 0x2 DUP3 ADD SLOAD PUSH1 0x1 DUP4 ADD SLOAD PUSH1 0x1 PUSH1 0x1 PUSH1 0xA0 SHL SUB AND PUSH1 0x0 SWAP1 DUP2 MSTORE PUSH1 0xB PUSH1 0x20 MSTORE PUSH1 0x40 DUP2 KECCAK256 DUP1 SLOAD SWAP1 SWAP2 SWAP1 PUSH2 0x2A2D SWAP1 DUP5 SWAP1 PUSH2 0x3DEC JUMP JUMPDEST SWAP1 SWAP2 SSTORE POP POP DUP2 SLOAD PUSH1 0x2 DUP4 ADD SLOAD PUSH1 0x1 DUP5 ADD SLOAD PUSH2 0x2A56 SWAP3 PUSH1 0x1 PUSH1 0x1 PUSH1 0xA0 SHL SUB SWAP2 DUP3 AND SWAP3 SWAP2 AND SWAP1 PUSH2 0x2F41 JUMP JUMPDEST DUP2 SLOAD PUSH1 0x2 DUP4 ADD SLOAD PUSH1 0x40 DUP1 MLOAD SWAP2 DUP3 MSTORE PUSH1 0xFF DUP5 AND PUSH1 0x20 DUP4 ADD MSTORE PUSH1 0x1 PUSH1 0x1 PUSH1 0xA0 SHL SUB SWAP1 SWAP3 AND SWAP2 DUP6 SWAP2 PUSH32 0x674F00E09C3E1EF7BE401BAC0A3F6D8F66346029CC69E3C32C48CCB82003175D SWAP2 ADD PUSH1 0x40 MLOAD DUP1 SWAP2 SUB SWAP1 LOG3 POP POP PUSH2 0x21FE PUSH1 0x1 PUSH1 0x0 DUP1 MLOAD PUSH1 0x20 PUSH2 0x3E92 DUP4 CODECOPY DUP2 MLOAD SWAP2 MSTORE SSTORE JUMP JUMPDEST PUSH1 0x0 DUP1 SLOAD PUSH1 0x1 SLOAD PUSH1 0x2 SLOAD PUSH1 0x3 SLOAD PUSH1 0x4 SLOAD PUSH1 0x7 SLOAD DUP7 SWAP6 DUP7 SWAP6 DUP7 SWAP6 DUP7 SWAP6 DUP7 SWAP6 DUP7 SWAP6 DUP7 SWAP6 PUSH1 0x1 PUSH1 0x1 PUSH1 0xA0 SHL SUB SWAP1 DUP2 AND SWAP6 AND SWAP4 SWAP3 SWAP2 PUSH2 0x1F4 SWAP2 PUSH1 0xFF AND PUSH2 0x2B10 PUSH1 0x0 DUP1 MLOAD PUSH1 0x20 PUSH2 0x3E72 DUP4 CODECOPY DUP2 MLOAD SWAP2 MSTORE SLOAD PUSH1 0xFF AND SWAP1 JUMP JUMPDEST SWAP7 SWAP16 SWAP6 SWAP15 POP SWAP4 SWAP13 POP SWAP2 SWAP11 POP SWAP9 POP SWAP7 POP SWAP5 POP SWAP1 SWAP3 POP SWAP1 POP JUMP JUMPDEST PUSH1 0x0 DUP1 PUSH32 0x237E158222E3E6968B72B9DB0D8043AACF074AD9F650F0D1606B4D82EE432C00 PUSH2 0x224B JUMP JUMPDEST PUSH2 0x2B59 PUSH2 0x2EC2 JUMP JUMPDEST PUSH1 0x1 PUSH1 0x1 PUSH1 0xA0 SHL SUB DUP3 AND PUSH2 0x2B80 JUMPI PUSH1 0x40 MLOAD PUSH4 0xE6C4247B PUSH1 0xE0 SHL DUP2 MSTORE PUSH1 0x4 ADD PUSH1 0x40 MLOAD DUP1 SWAP2 SUB SWAP1 REVERT JUMPDEST PUSH1 0x1 PUSH1 0x1 PUSH1 0xA0 SHL SUB DUP3 AND PUSH1 0x0 DUP2 DUP2 MSTORE PUSH1 0x9 PUSH1 0x20 SWAP1 DUP2 MSTORE PUSH1 0x40 SWAP2 DUP3 SWAP1 KECCAK256 DUP1 SLOAD PUSH1 0xFF NOT AND DUP6 ISZERO ISZERO SWAP1 DUP2 OR SWAP1 SWAP2 SSTORE SWAP2 MLOAD SWAP2 DUP3 MSTORE PUSH32 0xBBE72B7D9DCB594EE398A4A617885ABA53D833E2AAD601C813CE9DF99FDEB49B SWAP2 ADD PUSH2 0x2307 JUMP JUMPDEST PUSH2 0x2BE0 PUSH2 0x2EC2 JUMP JUMPDEST PUSH1 0x1 PUSH1 0x1 PUSH1 0xA0 SHL SUB DUP2 AND PUSH2 0x2C07 JUMPI PUSH1 0x40 MLOAD PUSH4 0xE6C4247B PUSH1 0xE0 SHL DUP2 MSTORE PUSH1 0x4 ADD PUSH1 0x40 MLOAD DUP1 SWAP2 SUB SWAP1 REVERT JUMPDEST PUSH1 0x1 DUP1 SLOAD PUSH1 0x1 PUSH1 0x1 PUSH1 0xA0 SHL SUB NOT AND PUSH1 0x1 PUSH1 0x1 PUSH1 0xA0 SHL SUB SWAP3 SWAP1 SWAP3 AND SWAP2 SWAP1 SWAP2 OR SWAP1 SSTORE JUMP JUMPDEST PUSH1 0x0 DUP4 DUP2 MSTORE PUSH1 0xD PUSH1 0x20 MSTORE PUSH1 0x40 DUP2 KECCAK256 DUP1 SLOAD PUSH1 0x60 SWAP3 SWAP2 SWAP1 DUP6 LT ISZERO DUP1 PUSH2 0x2C4A JUMPI POP DUP4 ISZERO JUMPDEST ISZERO PUSH2 0x2C68 JUMPI POP POP PUSH1 0x40 DUP1 MLOAD PUSH1 0x0 DUP1 DUP3 MSTORE PUSH1 0x20 DUP3 ADD SWAP1 SWAP3 MSTORE SWAP2 POP PUSH2 0x2E35 JUMP JUMPDEST DUP1 SLOAD PUSH1 0x0 SWAP1 PUSH2 0x2C77 DUP7 DUP9 PUSH2 0x3DAA JUMP JUMPDEST GT PUSH2 0x2C8B JUMPI PUSH2 0x2C86 DUP6 DUP8 PUSH2 0x3DAA JUMP JUMPDEST PUSH2 0x2C8E JUMP JUMPDEST DUP2 SLOAD JUMPDEST SWAP1 POP PUSH1 0x0 PUSH2 0x2C9C DUP8 DUP4 PUSH2 0x3DEC JUMP JUMPDEST PUSH1 0x1 PUSH1 0x1 PUSH1 0x40 SHL SUB DUP2 GT ISZERO PUSH2 0x2CB3 JUMPI PUSH2 0x2CB3 PUSH2 0x3B23 JUMP JUMPDEST PUSH1 0x40 MLOAD SWAP1 DUP1 DUP3 MSTORE DUP1 PUSH1 0x20 MUL PUSH1 0x20 ADD DUP3 ADD PUSH1 0x40 MSTORE DUP1 ISZERO PUSH2 0x2CDC JUMPI DUP2 PUSH1 0x20 ADD PUSH1 0x20 DUP3 MUL DUP1 CALLDATASIZE DUP4 CALLDATACOPY ADD SWAP1 POP JUMPDEST POP SWAP1 POP PUSH1 0x0 DUP8 JUMPDEST DUP4 DUP2 LT ISZERO PUSH2 0x2D9F JUMPI PUSH1 0x0 PUSH1 0xC PUSH1 0x0 DUP8 DUP5 DUP2 SLOAD DUP2 LT PUSH2 0x2D03 JUMPI PUSH2 0x2D03 PUSH2 0x3DBD JUMP JUMPDEST SWAP1 PUSH1 0x0 MSTORE PUSH1 0x20 PUSH1 0x0 KECCAK256 ADD SLOAD DUP2 MSTORE PUSH1 0x20 ADD SWAP1 DUP2 MSTORE PUSH1 0x20 ADD PUSH1 0x0 KECCAK256 SWAP1 POP DUP1 PUSH1 0x4 ADD PUSH1 0x8 SWAP1 SLOAD SWAP1 PUSH2 0x100 EXP SWAP1 DIV PUSH1 0xFF AND ISZERO DUP1 ISZERO PUSH2 0x2D49 JUMPI POP PUSH1 0x4 DUP2 ADD SLOAD PUSH1 0x1 PUSH1 0x48 SHL SWAP1 DIV PUSH1 0xFF AND ISZERO JUMPDEST ISZERO PUSH2 0x2D96 JUMPI DUP6 DUP3 DUP2 SLOAD DUP2 LT PUSH2 0x2D60 JUMPI PUSH2 0x2D60 PUSH2 0x3DBD JUMP JUMPDEST SWAP1 PUSH1 0x0 MSTORE PUSH1 0x20 PUSH1 0x0 KECCAK256 ADD SLOAD DUP5 DUP5 DUP1 PUSH2 0x2D77 SWAP1 PUSH2 0x3DD3 JUMP JUMPDEST SWAP6 POP DUP2 MLOAD DUP2 LT PUSH2 0x2D89 JUMPI PUSH2 0x2D89 PUSH2 0x3DBD JUMP JUMPDEST PUSH1 0x20 MUL PUSH1 0x20 ADD ADD DUP2 DUP2 MSTORE POP POP JUMPDEST POP PUSH1 0x1 ADD PUSH2 0x2CE3 JUMP JUMPDEST POP DUP1 PUSH1 0x1 PUSH1 0x1 PUSH1 0x40 SHL SUB DUP2 GT ISZERO PUSH2 0x2DB8 JUMPI PUSH2 0x2DB8 PUSH2 0x3B23 JUMP JUMPDEST PUSH1 0x40 MLOAD SWAP1 DUP1 DUP3 MSTORE DUP1 PUSH1 0x20 MUL PUSH1 0x20 ADD DUP3 ADD PUSH1 0x40 MSTORE DUP1 ISZERO PUSH2 0x2DE1 JUMPI DUP2 PUSH1 0x20 ADD PUSH1 0x20 DUP3 MUL DUP1 CALLDATASIZE DUP4 CALLDATACOPY ADD SWAP1 POP JUMPDEST POP SWAP6 POP PUSH1 0x0 JUMPDEST DUP2 DUP2 LT ISZERO PUSH2 0x2E2E JUMPI DUP3 DUP2 DUP2 MLOAD DUP2 LT PUSH2 0x2E01 JUMPI PUSH2 0x2E01 PUSH2 0x3DBD JUMP JUMPDEST PUSH1 0x20 MUL PUSH1 0x20 ADD ADD MLOAD DUP8 DUP3 DUP2 MLOAD DUP2 LT PUSH2 0x2E1B JUMPI PUSH2 0x2E1B PUSH2 0x3DBD JUMP JUMPDEST PUSH1 0x20 SWAP1 DUP2 MUL SWAP2 SWAP1 SWAP2 ADD ADD MSTORE PUSH1 0x1 ADD PUSH2 0x2DE7 JUMP JUMPDEST POP SWAP4 POP POP POP POP JUMPDEST SWAP4 POP SWAP4 SWAP2 POP POP JUMP JUMPDEST PUSH2 0x2E45 PUSH2 0x2EC2 JUMP JUMPDEST PUSH32 0x237E158222E3E6968B72B9DB0D8043AACF074AD9F650F0D1606B4D82EE432C00 DUP1 SLOAD PUSH1 0x1 PUSH1 0x1 PUSH1 0xA0 SHL SUB NOT AND PUSH1 0x1 PUSH1 0x1 PUSH1 0xA0 SHL SUB DUP4 AND SWAP1 DUP2 OR DUP3 SSTORE PUSH2 0x2E89 PUSH2 0x2226 JUMP JUMPDEST PUSH1 0x1 PUSH1 0x1 PUSH1 0xA0 SHL SUB AND PUSH32 0x38D16B8CAC22D99FC7C124B9CD0DE2D3FA1FAEF420BFE791D8C362D765E22700 PUSH1 0x40 MLOAD PUSH1 0x40 MLOAD DUP1 SWAP2 SUB SWAP1 LOG3 POP POP JUMP JUMPDEST CALLER PUSH2 0x2ECB PUSH2 0x2226 JUMP JUMPDEST PUSH1 0x1 PUSH1 0x1 PUSH1 0xA0 SHL SUB AND EQ PUSH2 0x194C JUMPI PUSH1 0x40 MLOAD PUSH4 0x118CDAA7 PUSH1 0xE0 SHL DUP2 MSTORE CALLER PUSH1 0x4 DUP3 ADD MSTORE PUSH1 0x24 ADD PUSH2 0x21EC JUMP JUMPDEST PUSH2 0x2EFC PUSH2 0x3379 JUMP JUMPDEST PUSH1 0x2 PUSH1 0x0 DUP1 MLOAD PUSH1 0x20 PUSH2 0x3E92 DUP4 CODECOPY DUP2 MLOAD SWAP2 MSTORE SSTORE JUMP JUMPDEST PUSH1 0x0 DUP1 MLOAD PUSH1 0x20 PUSH2 0x3E72 DUP4 CODECOPY DUP2 MLOAD SWAP2 MSTORE SLOAD PUSH1 0xFF AND ISZERO PUSH2 0x194C JUMPI PUSH1 0x40 MLOAD PUSH4 0xD93C0665 PUSH1 0xE0 SHL DUP2 MSTORE PUSH1 0x4 ADD PUSH1 0x40 MLOAD DUP1 SWAP2 SUB SWAP1 REVERT JUMPDEST PUSH2 0x2F4E DUP4 DUP4 DUP4 PUSH1 0x1 PUSH2 0x33A9 JUMP JUMPDEST PUSH2 0x106A JUMPI PUSH1 0x40 MLOAD PUSH4 0x5274AFE7 PUSH1 0xE0 SHL DUP2 MSTORE PUSH1 0x1 PUSH1 0x1 PUSH1 0xA0 SHL SUB DUP5 AND PUSH1 0x4 DUP3 ADD MSTORE PUSH1 0x24 ADD PUSH2 0x21EC JUMP JUMPDEST PUSH2 0x2F7E PUSH2 0x340F JUMP JUMPDEST PUSH1 0x0 DUP1 MLOAD PUSH1 0x20 PUSH2 0x3E72 DUP4 CODECOPY DUP2 MLOAD SWAP2 MSTORE DUP1 SLOAD PUSH1 0xFF NOT AND DUP2 SSTORE PUSH32 0x5DB9EE0A495BF2E6FF9C91A7834C1BA4FDD244A5E8AA4E537BD38AEAE4B073AA CALLER JUMPDEST PUSH1 0x40 MLOAD PUSH1 0x1 PUSH1 0x1 PUSH1 0xA0 SHL SUB SWAP1 SWAP2 AND DUP2 MSTORE PUSH1 0x20 ADD PUSH2 0x22A0 JUMP JUMPDEST PUSH1 0x0 PUSH2 0x2FDC DUP5 DUP4 PUSH2 0x3309 JUMP JUMPDEST SWAP1 POP PUSH1 0x0 PUSH2 0x2FEA DUP3 DUP5 PUSH2 0x3DAA JUMP JUMPDEST SWAP1 POP PUSH2 0x3001 PUSH1 0x1 PUSH1 0x1 PUSH1 0xA0 SHL SUB DUP6 AND DUP7 ADDRESS DUP5 PUSH2 0x343F JUMP JUMPDEST DUP2 ISZERO PUSH2 0x3021 JUMPI PUSH1 0x1 SLOAD PUSH2 0x3021 SWAP1 PUSH1 0x1 PUSH1 0x1 PUSH1 0xA0 SHL SUB DUP7 DUP2 AND SWAP2 AND DUP5 PUSH2 0x2F41 JUMP JUMPDEST PUSH1 0x1 PUSH1 0x1 PUSH1 0xA0 SHL SUB DUP5 AND PUSH1 0x0 SWAP1 DUP2 MSTORE PUSH1 0xB PUSH1 0x20 MSTORE PUSH1 0x40 DUP2 KECCAK256 DUP1 SLOAD DUP6 SWAP3 SWAP1 PUSH2 0x3049 SWAP1 DUP5 SWAP1 PUSH2 0x3DAA JUMP JUMPDEST SWAP1 SWAP2 SSTORE POP SWAP2 SWAP6 SWAP5 POP POP POP POP POP JUMP JUMPDEST ADDRESS PUSH1 0x1 PUSH1 0x1 PUSH1 0xA0 SHL SUB PUSH32 0x0 AND EQ DUP1 PUSH2 0x30DE JUMPI POP PUSH32 0x0 PUSH1 0x1 PUSH1 0x1 PUSH1 0xA0 SHL SUB AND PUSH2 0x30D2 PUSH1 0x0 DUP1 MLOAD PUSH1 0x20 PUSH2 0x3E52 DUP4 CODECOPY DUP2 MLOAD SWAP2 MSTORE SLOAD PUSH1 0x1 PUSH1 0x1 PUSH1 0xA0 SHL SUB AND SWAP1 JUMP JUMPDEST PUSH1 0x1 PUSH1 0x1 PUSH1 0xA0 SHL SUB AND EQ ISZERO JUMPDEST ISZERO PUSH2 0x194C JUMPI PUSH1 0x40 MLOAD PUSH4 0x703E46DD PUSH1 0xE1 SHL DUP2 MSTORE PUSH1 0x4 ADD PUSH1 0x40 MLOAD DUP1 SWAP2 SUB SWAP1 REVERT JUMPDEST PUSH2 0x3104 PUSH2 0x2EC2 JUMP JUMPDEST PUSH1 0xE SLOAD ISZERO DUP1 PUSH2 0x3114 JUMPI POP PUSH1 0xE SLOAD TIMESTAMP LT JUMPDEST ISZERO PUSH2 0x3138 JUMPI PUSH1 0xE SLOAD PUSH1 0x40 MLOAD PUSH4 0x3B77FEFF PUSH1 0xE1 SHL DUP2 MSTORE PUSH1 0x4 ADD PUSH2 0x21EC SWAP2 DUP2 MSTORE PUSH1 0x20 ADD SWAP1 JUMP JUMPDEST POP PUSH1 0x0 PUSH1 0xE SSTORE JUMP JUMPDEST DUP2 PUSH1 0x1 PUSH1 0x1 PUSH1 0xA0 SHL SUB AND PUSH4 0x52D1902D PUSH1 0x40 MLOAD DUP2 PUSH4 0xFFFFFFFF AND PUSH1 0xE0 SHL DUP2 MSTORE PUSH1 0x4 ADD PUSH1 0x20 PUSH1 0x40 MLOAD DUP1 DUP4 SUB DUP2 DUP7 GAS STATICCALL SWAP3 POP POP POP DUP1 ISZERO PUSH2 0x319A JUMPI POP PUSH1 0x40 DUP1 MLOAD PUSH1 0x1F RETURNDATASIZE SWAP1 DUP2 ADD PUSH1 0x1F NOT AND DUP3 ADD SWAP1 SWAP3 MSTORE PUSH2 0x3197 SWAP2 DUP2 ADD SWAP1 PUSH2 0x3DFF JUMP JUMPDEST PUSH1 0x1 JUMPDEST PUSH2 0x31C2 JUMPI PUSH1 0x40 MLOAD PUSH4 0x4C9C8CE3 PUSH1 0xE0 SHL DUP2 MSTORE PUSH1 0x1 PUSH1 0x1 PUSH1 0xA0 SHL SUB DUP4 AND PUSH1 0x4 DUP3 ADD MSTORE PUSH1 0x24 ADD PUSH2 0x21EC JUMP JUMPDEST PUSH1 0x0 DUP1 MLOAD PUSH1 0x20 PUSH2 0x3E52 DUP4 CODECOPY DUP2 MLOAD SWAP2 MSTORE DUP2 EQ PUSH2 0x31F3 JUMPI PUSH1 0x40 MLOAD PUSH4 0x2A875269 PUSH1 0xE2 SHL DUP2 MSTORE PUSH1 0x4 DUP2 ADD DUP3 SWAP1 MSTORE PUSH1 0x24 ADD PUSH2 0x21EC JUMP JUMPDEST PUSH2 0x106A DUP4 DUP4 PUSH2 0x347B JUMP JUMPDEST ADDRESS PUSH1 0x1 PUSH1 0x1 PUSH1 0xA0 SHL SUB PUSH32 0x0 AND EQ PUSH2 0x194C JUMPI PUSH1 0x40 MLOAD PUSH4 0x703E46DD PUSH1 0xE1 SHL DUP2 MSTORE PUSH1 0x4 ADD PUSH1 0x40 MLOAD DUP1 SWAP2 SUB SWAP1 REVERT JUMPDEST PUSH1 0x0 DUP1 PUSH32 0xF0C57E16840DF040F15088DC2F81FE391C3923BEC73E23A9662EFC9C229C6A00 PUSH2 0x2220 JUMP JUMPDEST PUSH2 0x3277 PUSH2 0x34D1 JUMP JUMPDEST PUSH2 0x21FE DUP2 PUSH2 0x34F6 JUMP JUMPDEST PUSH2 0x194C PUSH2 0x34D1 JUMP JUMPDEST PUSH32 0x237E158222E3E6968B72B9DB0D8043AACF074AD9F650F0D1606B4D82EE432C00 DUP1 SLOAD PUSH1 0x1 PUSH1 0x1 PUSH1 0xA0 SHL SUB NOT AND DUP2 SSTORE PUSH2 0x1D79 DUP3 PUSH2 0x3528 JUMP JUMPDEST PUSH2 0x32C8 PUSH2 0x2F10 JUMP JUMPDEST PUSH1 0x0 DUP1 MLOAD PUSH1 0x20 PUSH2 0x3E72 DUP4 CODECOPY DUP2 MLOAD SWAP2 MSTORE DUP1 SLOAD PUSH1 0xFF NOT AND PUSH1 0x1 OR DUP2 SSTORE PUSH32 0x62E78CEA01BEE320CD4E420270B5EA74000D11B0C9F74754EBDBFC544B05A258 CALLER PUSH2 0x2FB8 JUMP JUMPDEST PUSH1 0x7 SLOAD PUSH1 0x0 SWAP1 PUSH1 0xFF AND DUP1 PUSH2 0x3335 JUMPI POP PUSH1 0x1 PUSH1 0x1 PUSH1 0xA0 SHL SUB DUP4 AND PUSH1 0x0 SWAP1 DUP2 MSTORE PUSH1 0x8 PUSH1 0x20 MSTORE PUSH1 0x40 SWAP1 KECCAK256 SLOAD PUSH1 0xFF AND JUMPDEST ISZERO PUSH2 0x3342 JUMPI POP PUSH1 0x0 PUSH2 0x2220 JUMP JUMPDEST PUSH1 0x0 PUSH2 0x2710 PUSH1 0x2 SLOAD DUP5 PUSH2 0x3355 SWAP2 SWAP1 PUSH2 0x3E18 JUMP JUMPDEST PUSH2 0x335F SWAP2 SWAP1 PUSH2 0x3E2F JUMP JUMPDEST SWAP1 POP PUSH1 0x3 SLOAD DUP2 GT PUSH2 0x3372 JUMPI PUSH1 0x3 SLOAD PUSH2 0x26ED JUMP JUMPDEST SWAP4 SWAP3 POP POP POP JUMP JUMPDEST PUSH1 0x0 DUP1 MLOAD PUSH1 0x20 PUSH2 0x3E92 DUP4 CODECOPY DUP2 MLOAD SWAP2 MSTORE SLOAD PUSH1 0x2 SUB PUSH2 0x194C JUMPI PUSH1 0x40 MLOAD PUSH4 0x3EE5AEB5 PUSH1 0xE0 SHL DUP2 MSTORE PUSH1 0x4 ADD PUSH1 0x40 MLOAD DUP1 SWAP2 SUB SWAP1 REVERT JUMPDEST PUSH1 0x40 MLOAD PUSH4 0xA9059CBB PUSH1 0xE0 SHL PUSH1 0x0 DUP2 DUP2 MSTORE PUSH1 0x1 PUSH1 0x1 PUSH1 0xA0 SHL SUB DUP7 AND PUSH1 0x4 MSTORE PUSH1 0x24 DUP6 SWAP1 MSTORE SWAP2 PUSH1 0x20 DUP4 PUSH1 0x44 DUP2 DUP1 DUP12 GAS CALL SWAP3 POP PUSH1 0x1 PUSH1 0x0 MLOAD EQ DUP4 AND PUSH2 0x3403 JUMPI DUP4 DUP4 ISZERO AND ISZERO PUSH2 0x33F6 JUMPI RETURNDATASIZE PUSH1 0x0 DUP3 RETURNDATACOPY RETURNDATASIZE DUP2 REVERT JUMPDEST PUSH1 0x0 DUP8 EXTCODESIZE GT RETURNDATASIZE ISZERO AND DUP4 AND SWAP3 POP JUMPDEST PUSH1 0x40 MSTORE POP SWAP5 SWAP4 POP POP POP POP JUMP JUMPDEST PUSH1 0x0 DUP1 MLOAD PUSH1 0x20 PUSH2 0x3E72 DUP4 CODECOPY DUP2 MLOAD SWAP2 MSTORE SLOAD PUSH1 0xFF AND PUSH2 0x194C JUMPI PUSH1 0x40 MLOAD PUSH4 0x8DFC202B PUSH1 0xE0 SHL DUP2 MSTORE PUSH1 0x4 ADD PUSH1 0x40 MLOAD DUP1 SWAP2 SUB SWAP1 REVERT JUMPDEST PUSH2 0x344D DUP5 DUP5 DUP5 DUP5 PUSH1 0x1 PUSH2 0x3599 JUMP JUMPDEST PUSH2 0x3475 JUMPI PUSH1 0x40 MLOAD PUSH4 0x5274AFE7 PUSH1 0xE0 SHL DUP2 MSTORE PUSH1 0x1 PUSH1 0x1 PUSH1 0xA0 SHL SUB DUP6 AND PUSH1 0x4 DUP3 ADD MSTORE PUSH1 0x24 ADD PUSH2 0x21EC JUMP JUMPDEST POP POP POP POP JUMP JUMPDEST PUSH2 0x3484 DUP3 PUSH2 0x360B JUMP JUMPDEST PUSH1 0x40 MLOAD PUSH1 0x1 PUSH1 0x1 PUSH1 0xA0 SHL SUB DUP4 AND SWAP1 PUSH32 0xBC7CD75A20EE27FD9ADEBAB32041F755214DBC6BFFA90CC0225B39DA2E5C2D3B SWAP1 PUSH1 0x0 SWAP1 LOG2 DUP1 MLOAD ISZERO PUSH2 0x34C9 JUMPI PUSH2 0x106A DUP3 DUP3 PUSH2 0x3670 JUMP JUMPDEST PUSH2 0x1D79 PUSH2 0x3713 JUMP JUMPDEST PUSH2 0x34D9 PUSH2 0x3732 JUMP JUMPDEST PUSH2 0x194C JUMPI PUSH1 0x40 MLOAD PUSH4 0x1AFCD79F PUSH1 0xE3 SHL DUP2 MSTORE PUSH1 0x4 ADD PUSH1 0x40 MLOAD DUP1 SWAP2 SUB SWAP1 REVERT JUMPDEST PUSH2 0x34FE PUSH2 0x34D1 JUMP JUMPDEST PUSH1 0x1 PUSH1 0x1 PUSH1 0xA0 SHL SUB DUP2 AND PUSH2 0x21F5 JUMPI PUSH1 0x40 MLOAD PUSH4 0x1E4FBDF7 PUSH1 0xE0 SHL DUP2 MSTORE PUSH1 0x0 PUSH1 0x4 DUP3 ADD MSTORE PUSH1 0x24 ADD PUSH2 0x21EC JUMP JUMPDEST PUSH32 0x9016D09D72D40FDAE2FD8CEAC6B6234C7706214FD39C1CD1E609A0528C199300 DUP1 SLOAD PUSH1 0x1 PUSH1 0x1 PUSH1 0xA0 SHL SUB NOT DUP2 AND PUSH1 0x1 PUSH1 0x1 PUSH1 0xA0 SHL SUB DUP5 DUP2 AND SWAP2 DUP3 OR DUP5 SSTORE PUSH1 0x40 MLOAD SWAP3 AND SWAP2 DUP3 SWAP1 PUSH32 0x8BE0079C531659141344CD1FD0A4F28419497F9722A3DAAFE3B4186F6B6457E0 SWAP1 PUSH1 0x0 SWAP1 LOG3 POP POP POP JUMP JUMPDEST PUSH1 0x40 MLOAD PUSH4 0x23B872DD PUSH1 0xE0 SHL PUSH1 0x0 DUP2 DUP2 MSTORE PUSH1 0x1 PUSH1 0x1 PUSH1 0xA0 SHL SUB DUP8 DUP2 AND PUSH1 0x4 MSTORE DUP7 AND PUSH1 0x24 MSTORE PUSH1 0x44 DUP6 SWAP1 MSTORE SWAP2 PUSH1 0x20 DUP4 PUSH1 0x64 DUP2 DUP1 DUP13 GAS CALL SWAP3 POP PUSH1 0x1 PUSH1 0x0 MLOAD EQ DUP4 AND PUSH2 0x35F9 JUMPI DUP4 DUP4 ISZERO AND ISZERO PUSH2 0x35EC JUMPI RETURNDATASIZE PUSH1 0x0 DUP3 RETURNDATACOPY RETURNDATASIZE DUP2 REVERT JUMPDEST PUSH1 0x0 DUP9 EXTCODESIZE GT RETURNDATASIZE ISZERO AND DUP4 AND SWAP3 POP JUMPDEST PUSH1 0x40 MSTORE POP PUSH1 0x0 PUSH1 0x60 MSTORE SWAP6 SWAP5 POP POP POP POP POP JUMP JUMPDEST DUP1 PUSH1 0x1 PUSH1 0x1 PUSH1 0xA0 SHL SUB AND EXTCODESIZE PUSH1 0x0 SUB PUSH2 0x3641 JUMPI PUSH1 0x40 MLOAD PUSH4 0x4C9C8CE3 PUSH1 0xE0 SHL DUP2 MSTORE PUSH1 0x1 PUSH1 0x1 PUSH1 0xA0 SHL SUB DUP3 AND PUSH1 0x4 DUP3 ADD MSTORE PUSH1 0x24 ADD PUSH2 0x21EC JUMP JUMPDEST PUSH1 0x0 DUP1 MLOAD PUSH1 0x20 PUSH2 0x3E52 DUP4 CODECOPY DUP2 MLOAD SWAP2 MSTORE DUP1 SLOAD PUSH1 0x1 PUSH1 0x1 PUSH1 0xA0 SHL SUB NOT AND PUSH1 0x1 PUSH1 0x1 PUSH1 0xA0 SHL SUB SWAP3 SWAP1 SWAP3 AND SWAP2 SWAP1 SWAP2 OR SWAP1 SSTORE JUMP JUMPDEST PUSH1 0x60 PUSH1 0x0 PUSH2 0x367E DUP5 DUP5 PUSH2 0x374C JUMP JUMPDEST SWAP1 POP DUP1 DUP1 ISZERO PUSH2 0x36A1 JUMPI POP PUSH1 0x0 RETURNDATASIZE GT DUP1 PUSH2 0x36A1 JUMPI POP PUSH1 0x0 DUP5 PUSH1 0x1 PUSH1 0x1 PUSH1 0xA0 SHL SUB AND EXTCODESIZE GT JUMPDEST ISZERO PUSH2 0x36B6 JUMPI PUSH2 0x36AE PUSH2 0x3761 JUMP JUMPDEST SWAP2 POP POP PUSH2 0x2220 JUMP JUMPDEST DUP1 ISZERO PUSH2 0x36E0 JUMPI PUSH1 0x40 MLOAD PUSH4 0x9996B315 PUSH1 0xE0 SHL DUP2 MSTORE PUSH1 0x1 PUSH1 0x1 PUSH1 0xA0 SHL SUB DUP6 AND PUSH1 0x4 DUP3 ADD MSTORE PUSH1 0x24 ADD PUSH2 0x21EC JUMP JUMPDEST RETURNDATASIZE ISZERO PUSH2 0x36F3 JUMPI PUSH2 0x36EE PUSH2 0x377B JUMP JUMPDEST PUSH2 0x370C JUMP JUMPDEST PUSH1 0x40 MLOAD PUSH4 0xD6BDA275 PUSH1 0xE0 SHL DUP2 MSTORE PUSH1 0x4 ADD PUSH1 0x40 MLOAD DUP1 SWAP2 SUB SWAP1 REVERT JUMPDEST POP SWAP3 SWAP2 POP POP JUMP JUMPDEST CALLVALUE ISZERO PUSH2 0x194C JUMPI PUSH1 0x40 MLOAD PUSH4 0xB398979F PUSH1 0xE0 SHL DUP2 MSTORE PUSH1 0x4 ADD PUSH1 0x40 MLOAD DUP1 SWAP2 SUB SWAP1 REVERT JUMPDEST PUSH1 0x0 PUSH2 0x373C PUSH2 0x3246 JUMP JUMPDEST SLOAD PUSH1 0x1 PUSH1 0x40 SHL SWAP1 DIV PUSH1 0xFF AND SWAP2 SWAP1 POP JUMP JUMPDEST PUSH1 0x0 DUP1 PUSH1 0x0 DUP4 MLOAD PUSH1 0x20 DUP6 ADD DUP7 GAS DELEGATECALL SWAP4 SWAP3 POP POP POP JUMP JUMPDEST PUSH1 0x40 MLOAD RETURNDATASIZE DUP2 MSTORE RETURNDATASIZE PUSH1 0x0 PUSH1 0x20 DUP4 ADD RETURNDATACOPY RETURNDATASIZE PUSH1 0x20 ADD DUP2 ADD PUSH1 0x40 MSTORE SWAP1 JUMP JUMPDEST PUSH1 0x40 MLOAD RETURNDATASIZE PUSH1 0x0 DUP3 RETURNDATACOPY RETURNDATASIZE DUP2 REVERT JUMPDEST PUSH1 0x0 PUSH1 0x20 DUP3 DUP5 SUB SLT ISZERO PUSH2 0x3799 JUMPI PUSH1 0x0 DUP1 REVERT JUMPDEST POP CALLDATALOAD SWAP2 SWAP1 POP JUMP JUMPDEST PUSH1 0x0 DUP1 PUSH1 0x40 DUP4 DUP6 SUB SLT ISZERO PUSH2 0x37B3 JUMPI PUSH1 0x0 DUP1 REVERT JUMPDEST POP POP DUP1 CALLDATALOAD SWAP3 PUSH1 0x20 SWAP1 SWAP2 ADD CALLDATALOAD SWAP2 POP JUMP JUMPDEST DUP1 CALLDATALOAD PUSH1 0x1 PUSH1 0x1 PUSH1 0xA0 SHL SUB DUP2 AND DUP2 EQ PUSH2 0x37D9 JUMPI PUSH1 0x0 DUP1 REVERT JUMPDEST SWAP2 SWAP1 POP JUMP JUMPDEST PUSH1 0x0 PUSH1 0x20 DUP3 DUP5 SUB SLT ISZERO PUSH2 0x37F0 JUMPI PUSH1 0x0 DUP1 REVERT JUMPDEST PUSH2 0x221D DUP3 PUSH2 0x37C2 JUMP JUMPDEST PUSH1 0x0 DUP1 DUP4 PUSH1 0x1F DUP5 ADD SLT PUSH2 0x380B JUMPI PUSH1 0x0 DUP1 REVERT JUMPDEST POP DUP2 CALLDATALOAD PUSH1 0x1 PUSH1 0x1 PUSH1 0x40 SHL SUB DUP2 GT ISZERO PUSH2 0x3822 JUMPI PUSH1 0x0 DUP1 REVERT JUMPDEST PUSH1 0x20 DUP4 ADD SWAP2 POP DUP4 PUSH1 0x20 DUP3 PUSH1 0x5 SHL DUP6 ADD ADD GT ISZERO PUSH2 0x383D JUMPI PUSH1 0x0 DUP1 REVERT JUMPDEST SWAP3 POP SWAP3 SWAP1 POP JUMP JUMPDEST PUSH1 0x0 DUP1 PUSH1 0x0 PUSH1 0x40 DUP5 DUP7 SUB SLT ISZERO PUSH2 0x3859 JUMPI PUSH1 0x0 DUP1 REVERT JUMPDEST DUP4 CALLDATALOAD PUSH1 0x1 PUSH1 0x1 PUSH1 0x40 SHL SUB DUP2 GT ISZERO PUSH2 0x386F JUMPI PUSH1 0x0 DUP1 REVERT JUMPDEST PUSH2 0x387B DUP7 DUP3 DUP8 ADD PUSH2 0x37F9 JUMP JUMPDEST SWAP1 SWAP5 POP SWAP3 POP PUSH2 0x388E SWAP1 POP PUSH1 0x20 DUP6 ADD PUSH2 0x37C2 JUMP JUMPDEST SWAP1 POP SWAP3 POP SWAP3 POP SWAP3 JUMP JUMPDEST DUP1 CALLDATALOAD DUP1 ISZERO ISZERO DUP2 EQ PUSH2 0x37D9 JUMPI PUSH1 0x0 DUP1 REVERT JUMPDEST PUSH1 0x0 DUP1 PUSH1 0x40 DUP4 DUP6 SUB SLT ISZERO PUSH2 0x38BA JUMPI PUSH1 0x0 DUP1 REVERT JUMPDEST PUSH2 0x38C3 DUP4 PUSH2 0x37C2 JUMP JUMPDEST SWAP2 POP PUSH2 0x38D1 PUSH1 0x20 DUP5 ADD PUSH2 0x3897 JUMP JUMPDEST SWAP1 POP SWAP3 POP SWAP3 SWAP1 POP JUMP JUMPDEST PUSH1 0x0 DUP1 PUSH1 0x0 PUSH1 0x60 DUP5 DUP7 SUB SLT ISZERO PUSH2 0x38EF JUMPI PUSH1 0x0 DUP1 REVERT JUMPDEST DUP4 CALLDATALOAD SWAP3 POP PUSH2 0x38FF PUSH1 0x20 DUP6 ADD PUSH2 0x37C2 JUMP JUMPDEST SWAP3 SWAP6 SWAP3 SWAP5 POP POP POP PUSH1 0x40 SWAP2 SWAP1 SWAP2 ADD CALLDATALOAD SWAP1 JUMP JUMPDEST DUP2 MLOAD PUSH1 0x1 PUSH1 0x1 PUSH1 0xA0 SHL SUB AND DUP2 MSTORE PUSH2 0x160 DUP2 ADD PUSH1 0x20 DUP4 ADD MLOAD PUSH2 0x393C PUSH1 0x20 DUP5 ADD DUP3 PUSH1 0x1 PUSH1 0x1 PUSH1 0xA0 SHL SUB AND SWAP1 MSTORE JUMP JUMPDEST POP PUSH1 0x40 DUP4 ADD MLOAD PUSH1 0x40 DUP4 ADD MSTORE PUSH1 0x60 DUP4 ADD MLOAD PUSH1 0x60 DUP4 ADD MSTORE PUSH1 0x80 DUP4 ADD MLOAD PUSH2 0x396B PUSH1 0x80 DUP5 ADD DUP3 PUSH1 0x1 PUSH1 0x1 PUSH1 0x40 SHL SUB AND SWAP1 MSTORE JUMP JUMPDEST POP PUSH1 0xA0 DUP4 ADD MLOAD PUSH2 0x397F PUSH1 0xA0 DUP5 ADD DUP3 ISZERO ISZERO SWAP1 MSTORE JUMP JUMPDEST POP PUSH1 0xC0 DUP4 ADD MLOAD PUSH2 0x3993 PUSH1 0xC0 DUP5 ADD DUP3 ISZERO ISZERO SWAP1 MSTORE JUMP JUMPDEST POP PUSH1 0xE0 DUP4 ADD MLOAD PUSH2 0x39A7 PUSH1 0xE0 DUP5 ADD DUP3 ISZERO ISZERO SWAP1 MSTORE JUMP JUMPDEST POP PUSH2 0x100 DUP4 ADD MLOAD PUSH2 0x100 DUP4 ADD MSTORE PUSH2 0x120 DUP4 ADD MLOAD PUSH2 0x39D0 PUSH2 0x120 DUP5 ADD DUP3 PUSH1 0x1 PUSH1 0x1 PUSH1 0x40 SHL SUB AND SWAP1 MSTORE JUMP JUMPDEST POP PUSH2 0x140 DUP4 ADD MLOAD PUSH2 0x370C PUSH2 0x140 DUP5 ADD DUP3 PUSH1 0xFF AND SWAP1 MSTORE JUMP JUMPDEST PUSH1 0x0 DUP1 PUSH1 0x0 DUP1 PUSH1 0x0 PUSH1 0x80 DUP7 DUP9 SUB SLT ISZERO PUSH2 0x39FF JUMPI PUSH1 0x0 DUP1 REVERT JUMPDEST DUP6 CALLDATALOAD PUSH1 0x1 PUSH1 0x1 PUSH1 0x40 SHL SUB DUP2 GT ISZERO PUSH2 0x3A15 JUMPI PUSH1 0x0 DUP1 REVERT JUMPDEST PUSH2 0x3A21 DUP9 DUP3 DUP10 ADD PUSH2 0x37F9 JUMP JUMPDEST SWAP1 SWAP7 POP SWAP5 POP PUSH2 0x3A34 SWAP1 POP PUSH1 0x20 DUP8 ADD PUSH2 0x37C2 JUMP JUMPDEST SWAP3 POP PUSH1 0x40 DUP7 ADD CALLDATALOAD SWAP2 POP PUSH2 0x3A49 PUSH1 0x60 DUP8 ADD PUSH2 0x37C2 JUMP JUMPDEST SWAP1 POP SWAP3 SWAP6 POP SWAP3 SWAP6 SWAP1 SWAP4 POP JUMP JUMPDEST PUSH1 0x0 DUP2 MLOAD DUP1 DUP5 MSTORE PUSH1 0x0 JUMPDEST DUP2 DUP2 LT ISZERO PUSH2 0x3A7B JUMPI PUSH1 0x20 DUP2 DUP6 ADD DUP2 ADD MLOAD DUP7 DUP4 ADD DUP3 ADD MSTORE ADD PUSH2 0x3A5F JUMP JUMPDEST POP PUSH1 0x0 PUSH1 0x20 DUP3 DUP7 ADD ADD MSTORE PUSH1 0x20 PUSH1 0x1F NOT PUSH1 0x1F DUP4 ADD AND DUP6 ADD ADD SWAP2 POP POP SWAP3 SWAP2 POP POP JUMP JUMPDEST DUP4 ISZERO ISZERO DUP2 MSTORE DUP3 PUSH1 0x20 DUP3 ADD MSTORE PUSH1 0x60 PUSH1 0x40 DUP3 ADD MSTORE PUSH1 0x0 PUSH2 0x3ABC PUSH1 0x60 DUP4 ADD DUP5 PUSH2 0x3A55 JUMP JUMPDEST SWAP6 SWAP5 POP POP POP POP POP JUMP JUMPDEST PUSH1 0x0 DUP1 PUSH1 0x0 DUP1 PUSH1 0x0 DUP1 PUSH1 0x0 PUSH1 0xE0 DUP9 DUP11 SUB SLT ISZERO PUSH2 0x3AE0 JUMPI PUSH1 0x0 DUP1 REVERT JUMPDEST PUSH2 0x3AE9 DUP9 PUSH2 0x37C2 JUMP JUMPDEST SWAP7 POP PUSH2 0x3AF7 PUSH1 0x20 DUP10 ADD PUSH2 0x37C2 JUMP JUMPDEST SWAP7 SWAP10 SWAP7 SWAP9 POP POP POP POP PUSH1 0x40 DUP6 ADD CALLDATALOAD SWAP5 PUSH1 0x60 DUP2 ADD CALLDATALOAD SWAP5 PUSH1 0x80 DUP3 ADD CALLDATALOAD SWAP5 POP PUSH1 0xA0 DUP3 ADD CALLDATALOAD SWAP4 POP PUSH1 0xC0 SWAP1 SWAP2 ADD CALLDATALOAD SWAP2 POP JUMP JUMPDEST PUSH4 0x4E487B71 PUSH1 0xE0 SHL PUSH1 0x0 MSTORE PUSH1 0x41 PUSH1 0x4 MSTORE PUSH1 0x24 PUSH1 0x0 REVERT JUMPDEST PUSH1 0x0 DUP1 PUSH1 0x40 DUP4 DUP6 SUB SLT ISZERO PUSH2 0x3B4C JUMPI PUSH1 0x0 DUP1 REVERT JUMPDEST PUSH2 0x3B55 DUP4 PUSH2 0x37C2 JUMP JUMPDEST SWAP2 POP PUSH1 0x20 DUP4 ADD CALLDATALOAD PUSH1 0x1 PUSH1 0x1 PUSH1 0x40 SHL SUB DUP2 GT ISZERO PUSH2 0x3B70 JUMPI PUSH1 0x0 DUP1 REVERT JUMPDEST DUP4 ADD PUSH1 0x1F DUP2 ADD DUP6 SGT PUSH2 0x3B81 JUMPI PUSH1 0x0 DUP1 REVERT JUMPDEST DUP1 CALLDATALOAD PUSH1 0x1 PUSH1 0x1 PUSH1 0x40 SHL SUB DUP2 GT ISZERO PUSH2 0x3B9A JUMPI PUSH2 0x3B9A PUSH2 0x3B23 JUMP JUMPDEST PUSH1 0x40 MLOAD PUSH1 0x1F DUP3 ADD PUSH1 0x1F NOT SWAP1 DUP2 AND PUSH1 0x3F ADD AND DUP2 ADD PUSH1 0x1 PUSH1 0x1 PUSH1 0x40 SHL SUB DUP2 GT DUP3 DUP3 LT OR ISZERO PUSH2 0x3BC8 JUMPI PUSH2 0x3BC8 PUSH2 0x3B23 JUMP JUMPDEST PUSH1 0x40 MSTORE DUP2 DUP2 MSTORE DUP3 DUP3 ADD PUSH1 0x20 ADD DUP8 LT ISZERO PUSH2 0x3BE0 JUMPI PUSH1 0x0 DUP1 REVERT JUMPDEST DUP2 PUSH1 0x20 DUP5 ADD PUSH1 0x20 DUP4 ADD CALLDATACOPY PUSH1 0x0 PUSH1 0x20 DUP4 DUP4 ADD ADD MSTORE DUP1 SWAP4 POP POP POP POP SWAP3 POP SWAP3 SWAP1 POP JUMP JUMPDEST PUSH1 0x0 DUP1 PUSH1 0x0 DUP1 PUSH1 0x0 PUSH1 0xA0 DUP7 DUP9 SUB SLT ISZERO PUSH2 0x3C18 JUMPI PUSH1 0x0 DUP1 REVERT JUMPDEST PUSH2 0x3C21 DUP7 PUSH2 0x37C2 JUMP JUMPDEST SWAP5 POP PUSH2 0x3C2F PUSH1 0x20 DUP8 ADD PUSH2 0x37C2 JUMP JUMPDEST SWAP4 POP PUSH1 0x40 DUP7 ADD CALLDATALOAD SWAP3 POP PUSH1 0x60 DUP7 ADD CALLDATALOAD SWAP2 POP PUSH2 0x3A49 PUSH1 0x80 DUP8 ADD PUSH2 0x37C2 JUMP JUMPDEST PUSH1 0x0 DUP1 PUSH1 0x40 DUP4 DUP6 SUB SLT ISZERO PUSH2 0x3C5E JUMPI PUSH1 0x0 DUP1 REVERT JUMPDEST DUP3 CALLDATALOAD SWAP2 POP PUSH1 0x20 DUP4 ADD CALLDATALOAD PUSH1 0xFF DUP2 AND DUP2 EQ PUSH2 0x3C76 JUMPI PUSH1 0x0 DUP1 REVERT JUMPDEST DUP1 SWAP2 POP POP SWAP3 POP SWAP3 SWAP1 POP JUMP JUMPDEST PUSH1 0x0 DUP1 PUSH1 0x40 DUP4 DUP6 SUB SLT ISZERO PUSH2 0x3C94 JUMPI PUSH1 0x0 DUP1 REVERT JUMPDEST PUSH2 0x3C9D DUP4 PUSH2 0x37C2 JUMP JUMPDEST SWAP5 PUSH1 0x20 SWAP4 SWAP1 SWAP4 ADD CALLDATALOAD SWAP4 POP POP POP JUMP JUMPDEST PUSH1 0x0 PUSH1 0x20 DUP3 DUP5 SUB SLT ISZERO PUSH2 0x3CBD JUMPI PUSH1 0x0 DUP1 REVERT JUMPDEST PUSH2 0x221D DUP3 PUSH2 0x3897 JUMP JUMPDEST PUSH1 0x0 DUP1 PUSH1 0x0 DUP1 PUSH1 0x80 DUP6 DUP8 SUB SLT ISZERO PUSH2 0x3CDC JUMPI PUSH1 0x0 DUP1 REVERT JUMPDEST PUSH2 0x3CE5 DUP6 PUSH2 0x37C2 JUMP JUMPDEST SWAP4 POP PUSH2 0x3CF3 PUSH1 0x20 DUP7 ADD PUSH2 0x37C2 JUMP JUMPDEST SWAP4 SWAP7 SWAP4 SWAP6 POP POP POP POP PUSH1 0x40 DUP3 ADD CALLDATALOAD SWAP2 PUSH1 0x60 ADD CALLDATALOAD SWAP1 JUMP JUMPDEST PUSH1 0x20 DUP2 MSTORE PUSH1 0x0 PUSH2 0x221D PUSH1 0x20 DUP4 ADD DUP5 PUSH2 0x3A55 JUMP JUMPDEST PUSH1 0x0 DUP1 PUSH1 0x0 PUSH1 0x60 DUP5 DUP7 SUB SLT ISZERO PUSH2 0x3D30 JUMPI PUSH1 0x0 DUP1 REVERT JUMPDEST POP POP DUP2 CALLDATALOAD SWAP4 PUSH1 0x20 DUP4 ADD CALLDATALOAD SWAP4 POP PUSH1 0x40 SWAP1 SWAP3 ADD CALLDATALOAD SWAP2 SWAP1 POP JUMP JUMPDEST PUSH1 0x40 DUP1 DUP3 MSTORE DUP4 MLOAD SWAP1 DUP3 ADD DUP2 SWAP1 MSTORE PUSH1 0x0 SWAP1 PUSH1 0x20 DUP6 ADD SWAP1 PUSH1 0x60 DUP5 ADD SWAP1 DUP4 JUMPDEST DUP2 DUP2 LT ISZERO PUSH2 0x3D81 JUMPI DUP4 MLOAD DUP4 MSTORE PUSH1 0x20 SWAP4 DUP5 ADD SWAP4 SWAP1 SWAP3 ADD SWAP2 PUSH1 0x1 ADD PUSH2 0x3D63 JUMP JUMPDEST POP POP PUSH1 0x20 SWAP4 SWAP1 SWAP4 ADD SWAP4 SWAP1 SWAP4 MSTORE POP SWAP3 SWAP2 POP POP JUMP JUMPDEST PUSH4 0x4E487B71 PUSH1 0xE0 SHL PUSH1 0x0 MSTORE PUSH1 0x11 PUSH1 0x4 MSTORE PUSH1 0x24 PUSH1 0x0 REVERT JUMPDEST DUP1 DUP3 ADD DUP1 DUP3 GT ISZERO PUSH2 0x2220 JUMPI PUSH2 0x2220 PUSH2 0x3D94 JUMP JUMPDEST PUSH4 0x4E487B71 PUSH1 0xE0 SHL PUSH1 0x0 MSTORE PUSH1 0x32 PUSH1 0x4 MSTORE PUSH1 0x24 PUSH1 0x0 REVERT JUMPDEST PUSH1 0x0 PUSH1 0x1 DUP3 ADD PUSH2 0x3DE5 JUMPI PUSH2 0x3DE5 PUSH2 0x3D94 JUMP JUMPDEST POP PUSH1 0x1 ADD SWAP1 JUMP JUMPDEST DUP2 DUP2 SUB DUP2 DUP2 GT ISZERO PUSH2 0x2220 JUMPI PUSH2 0x2220 PUSH2 0x3D94 JUMP JUMPDEST PUSH1 0x0 PUSH1 0x20 DUP3 DUP5 SUB SLT ISZERO PUSH2 0x3E11 JUMPI PUSH1 0x0 DUP1 REVERT JUMPDEST POP MLOAD SWAP2 SWAP1 POP JUMP JUMPDEST DUP1 DUP3 MUL DUP2 ISZERO DUP3 DUP3 DIV DUP5 EQ OR PUSH2 0x2220 JUMPI PUSH2 0x2220 PUSH2 0x3D94 JUMP JUMPDEST PUSH1 0x0 DUP3 PUSH2 0x3E4C JUMPI PUSH4 0x4E487B71 PUSH1 0xE0 SHL PUSH1 0x0 MSTORE PUSH1 0x12 PUSH1 0x4 MSTORE PUSH1 0x24 PUSH1 0x0 REVERT JUMPDEST POP DIV SWAP1 JUMP INVALID CALLDATASIZE ADDMOD SWAP5 LOG1 EXTCODESIZE LOG1 LOG3 0x21 MOD PUSH8 0xC828492DB98DCA3E KECCAK256 PUSH23 0xCC3735A920A3CA505D382BBCCD5ED15C6E187E77E9AEE8 DUP2 DUP5 0xC2 0x1F 0x4F 0x21 DUP3 0xAB PC 0x27 0xCB EXTCODESIZE PUSH31 0x7FBEDCD63F033009B779B17422D0DF92223018B32B4D1FA46E071723D6817 0xE2 BASEFEE PUSH14 0x3BECC55F00A264697066735822 SLT KECCAK256 0xE8 0xB3 0xD0 0xD3 MCOPY DIV PUSH4 0x9FC2D3D0 BLOBHASH 0xDA 0xAC SWAP1 0x1F 0xAF BLOBBASEFEE DUP1 TSTORE 0xEF LOG3 0xBC CREATE2 PUSH3 0x410E0F PUSH12 0x3AB63E64736F6C634300081C STOP CALLER "},"methodIdentifiers":{"BPS()":"249d39e9","MAX_BATCH()":"950bff9f","MAX_FEE_BPS()":"d55be8c6","RECIPIENT_WIN()":"5ca48a7f","RECIPIENT_WIN_REFUND_DELAY()":"1435756a","SENDER_WIN()":"a4bde0b5","UNRESOLVED()":"5f1aeebf","UPGRADE_INTERFACE_VERSION()":"ad3cb1cc","UPGRADE_TIMELOCK()":"25ed32ca","acceptOwnership()":"79ba5097","batchClaim(uint256[],address,bytes32,address)":"2dd41899","batchRefund(uint256[],address)":"14937def","calculateFee(address,uint256)":"8b28ab1e","claimConditional(uint256,address,bytes32)":"200e6361","createConditionalIOU(address,address,uint256,bytes32,bytes32,bytes32,uint256)":"41474052","emergencyWithdrawToken(address,uint256)":"a4c3b091","executeCreate(address,address,uint256,bytes32)":"94851bf8","executorMaxTxAmount()":"17a28259","executors(address)":"9ac2a011","feeBps()":"24a9d853","getConfig()":"c3f909d4","getIOU(uint256)":"2049f88f","getPendingIOUs(bytes32,uint256,uint256)":"f2121d41","globalFeeExempt()":"c7f417ba","holdDuration()":"57e4288a","initialize(address,address,uint256,uint256,address)":"57fb25cc","ious(uint256)":"08f13f8f","isFeeExempt(address)":"3f4218e0","minFee()":"24ec7590","nextId()":"61b8ce8c","owner()":"8da5cb5b","pause()":"8456cb59","paused()":"5c975abb","pendingOwner()":"e30c3978","proxiableUUID()":"52d1902d","recipientIOUs(bytes32,uint256)":"b3ab4c49","refundConditional(uint256)":"c137b7c2","refundEligibility(uint256)":"38385d00","renounceOwnership()":"715018a6","resolveConditional(uint256,uint8)":"6a0c5038","scheduleUpgrade(address)":"0c80447a","setExecutor(address,bool)":"1e1bff3f","setExecutorMaxTxAmount(uint256)":"1f8fb2a2","setFeeExempt(address,bool)":"8ebfc796","setFees(uint256,uint256)":"0b78f9c0","setGlobalFeeExempt(bool)":"8e3dafdd","setHoldDuration(uint256)":"30eb4ba8","setSupportedToken(address,bool)":"e7986466","setTreasury(address)":"f0f44260","setVault(address)":"6817031b","supportedTokens(address)":"68c4ac26","totalEscrowedByToken(address)":"7475e466","transferOwnership(address)":"f2fde38b","treasury()":"61d027b3","unpause()":"3f4ba83a","upgradeTimelockEnd()":"24c901c9","upgradeToAndCall(address,bytes)":"4f1ef286","vault()":"fbfa77cf"}}}}}